:100000000C9429050C9470050C948B050C947005C8
:100010000C9470050C9470050C94C1280C94700518
:100020000C9470050C9470050C9470050C9470057C
:100030000C9470050C9470050C9455140C94700578
:100040000C9470050C9470050C9470050C9470055C
:100050000C9470050C9470050C9470050C9470054C
:100060000C9470050C947005000000000000000066
:100070000000000000000000000000000000000080
:100080000000000000000000000000007E0F00D40F
:10009000FFFFFFC700000078000000000000000024
:1000A0002A2B2800000000000000000000000000D3
:1000B00000000029000000002C1E342021222434DE
:1000C0002627252E362D3738271E1F2021222324B0
:1000D00025263333362E37381F0405060708090A4C
:1000E0000B0C0D0E0F101112131415161718191AE8
:1000F0001B1C1D2F3130232D350405060708090A66
:100100000B0C0D0E0F101112131415161718191AC7
:100110001B1C1D2F3130354C00DA0281FFD9F1DB79
:1001200020A4A62EAF00A0C000A1C800AED580A814
:100130001FD300408D142000506C6169642D506104
:1001400064202F2F2F2F2F2F2F2F2F2F2F0000AE78
:10015000FD377A585A000004E6D6B4460200210161
:1001600016000000742FE5A3E001FA00BD5D003D1C
:100170008889C65436C3174FE4E46873BBAA448425
:10018000EA5987532642E1931675ABB9749FB2873B
:100190007F1F754A735F0A6CEFB0447C4DDC3EA84C
:1001A000F465F96C67EF3EEAA1E13795A058C29576
:1001B00050537312C130201B136E73957C0D818ECA
:1001C000BD7833E1584755ABF9340EEC24C82240D2
:1001D00040291CAED26B136F07A01FBD7DF599049B
:1001E000E2085E2C7258C86E437F86689FCBE9890F
:1001F0003973E491A25B70D8B326449644656F0EC0
:10020000832FD064D261DB7380AF600EAF9384DB49
:10021000F814C370FB76ED1BAA3B687D352AF6A067
:1002200042E8956B23D630130D8D9D000000000031
:1002300070348E949287048E0001D901FB03000074
:10024000759F2598B1C467FB020000000004595A4D
:100250005F006000610054005C005D005E005500BE
:1002600059005A005B0056006200630067005700A7
:100270000100010001000100010001000100010076
:100280000100010001000100010001000100010066
:100290000100010001000100010001000100010056
:1002A0000100010001000100010001000100010046
:1002B0000100010001000100010001000100010036
:1002C0000100010001000100010001000100010026
:1002D0000100010023040000020002001F040000CE
:1002E0000300010024040000040002000904430884
:1002F0000500010025040000060002000B040000B8
:10030000070002002104000008000100260400008C
:10031000090002000D041E080A0002000F041E0856
:100320000B00020011041E080C00020013041E083A
:100330000D00020015041E080E00020017041E081E
:100340000F00020019041E08100002001B041E0802
:10035000110002001D041E08120002002704000004
:10036000130002002904000000AF05010902A101E9
:1003700085020901A10005091901290515002501BA
:100380009505750181029501750381030501093009
:1003900009311581257F9502750881060938158177
:1003A000257F950175088106050C0A3802158125FF
:1003B0007F950175088106C0C005010980A10185EE
:1003C0000319012AB700150126B7009501751081A0
:1003D00000C0050C0901A101850419012AA002151C
:1003E0000126A002950175108100C00660FF096119
:1003F000A1010962150026FF0095207508810209F8
:1004000063150026FF00952075089102C0050109BB
:1004100006A101050719E029E715002501950875D2
:100420000181029501750881030507190029FF154F
:100430000026FF00950675088100050819012905A9
:10044000950575019102950175039103C01C037612
:1004500000690061006C003A0066003600340063F9
:1004600000320062003300630000001E0350006C85
:10047000006100690064002D0050006100640020EC
:10048000005200650076003300000014034B006545
:100490000079006300610070007300730073000056
:1004A000000403090409025B00030100A0320904EF
:1004B00000000103010100092101010001224000A7
:1004C0000705810308000109040100020300000080
:1004D000092101010001222200070584030800010F
:1004E00007050403080001090402000103000000DD
:1004F0000921010100012281000705830308000191
:10050000120110010000000883795050030001021D
:10051000030107087F0807003E5B4F5B3E003E6B10
:100520004F6B3E001C3E7C3E1C00183C7E3C18007D
:100530001C577D571C001C5E7F5E1C0000183C1879
:100540000000FFE7C3E7FF00001824180000FFE7E2
:10055000DBE7FF0030483A060E00262979292600FD
:10056000407F05050700407F05253F005A3CE73CDA
:100570005A007F3E1C1C0800081C1C3E7F001422F1
:100580007F2214005F5F005F5F0006097F017F002C
:10059000006689956A0060606060600094A2FFA2B6
:1005A000940008047E04080010207E201000080833
:1005B0002A1C0800081C2A0808001E101010100031
:1005C0000C1E0C1E0C0030383E383000060E3E0E5D
:1005D000060000000000000000005F0000000007AF
:1005E00000070000147F147F1400242A7F2A1200C1
:1005F00023130864620036495620500000080703A0
:100600000000001C224100000041221C00002A1CA6
:100610007F1C2A0008083E08080000807030000097
:1006200008080808080000006060000020100804A6
:1006300002003E5149453E0000427F4000007249A1
:10064000494946002141494D33001814127F1000DA
:100650002745454539003C4A4949310041211109A6
:100660000700364949493600464949291E0000001D
:100670001400000000403400000000081422410073
:100680001414141414000041221408000201590922
:1006900006003E415D594E007C1211127C007F49DC
:1006A000494936003E41414122007F4141413E00DF
:1006B0007F49494941007F09090901003E414151F3
:1006C00073007F0808087F0000417F410000204040
:1006D000413F01007F08142241007F40404040001C
:1006E0007F021C027F007F0408107F003E414141D1
:1006F0003E007F09090906003E4151215E007F0945
:100700001929460026494949320003017F010300A7
:100710003F4040403F001F2040201F003F403840E6
:100720003F00631408146300030478040300615954
:10073000494D4300007F4141410002040810200060
:10074000004141417F00040201020400404040405A
:1007500040000003070800002054547840007F2820
:1007600044443800384444442800384444287F0036
:1007700038545454180000087E09020018A4A49CA0
:1007800078007F080404780000447D400000204089
:10079000403D00007F102844000000417F400000E1
:1007A0007C04780478007C080404780038444444CD
:1007B0003800FC182424180018242418FC007C0895
:1007C0000404080048545454240004043F44240002
:1007D0003C4040207C001C2040201C003C4030401D
:1007E0003C004428102844004C9090907C004464C5
:1007F000544C44000008364100000000770000001F
:100800000041360800000201020402003C262326B3
:100810003C00000000000000404040F0F8F8FF38C5
:10082000FFF8F83FF8F8FF38FFF8F8F040404000D4
:10083000000000000080C0C0C0800000C0C0800078
:10084000000080C0C000C0C0000080C0C000000028
:100850000000C0C0C0C0C000C0C000000000000058
:100860000000000000000000000000000000000088
:100870000000000000000000000000000000000078
:100880000000000000000000000000000000000068
:1008900000C0F0F8FC3E1E06010000007F4141410F
:1008A0007F007F4141417F000080C0E07E5B4F5B65
:1008B000FEC00000C000DCD7DEDEDED7DC00C000FA
:1008C0000000000000000000000000000000000028
:1008D0000000000000000000494949FFFFFFFFE061
:1008E000DFBFBF00BFBFDFE0FFFFFFFF4949490097
:1008F000000000001F3F6060E0BF1F007F7F071EF9
:10090000381E077F7F007F7F0E1F3B716000000055
:1009100000007F7F0C0C0C007E7E007F7E030300B6
:100920007F7E03037E7E03037F7E000F3E703C06C6
:100930003C703E0F00327B49493F7E007F7E0303BF
:10094000001E3F69696F26000000000000000000E3
:1009500000030F1F3F3C7870600000007F41414161
:100960007F007F4141417F00307B7F783020203005
:10097000787F3B0003000F7F0F0F0F7F0F000300F6
:100980000000000000000000000000000000000067
:100990000000000000000000010101070F0F7F0FA1
:1009A0007F0F0F7E0F0F7F0F7F0F0F0701010100D9
:1009B0000000000000000000000101000000000035
:1009C0000000000000000000000000000000000027
:1009D0000000000000000000000000000000000017
:1009E0000000000000000000000000000000000007
:1009F00000000000000000000000000000000000F7
:100A000000000000000000000000000000000000E6
:100A100000000000000000000000000000000000D6
:100A200000000000000000000000000000000000C6
:100A300000000000000000000000000000000000B6
:100A400000000000000000000000000000000000A6
:100A5000000011241FBECFEFD8E0DEBFCDBF04B62B
:100A600003FE27C080914D0790914E07A0914F073C
:100A7000B09150078730904BA740B04BD1F4109203
:100A80004D0710924E0710924F071092500714BE58
:100A900084B7877F84BF0FB6F894A89580916000D3
:100AA000886180936000109260000FBEE0E0F8E380
:100AB000099527E0A6E8B1E001C01D92AD34B20768
:100AC000E1F711E0A0E0B1E0E8ECF6E602C0059045
:100AD0000D92A638B107D9F70E94E8280C94193373
:100AE0000C940000A82FB92F80E090E041E050EA7C
:100AF000609530E009C02D9182279795879510F079
:100B000084279527305EC8F36F5FA8F30895EADF66
:100B10008D939D930895CF93CFB7CF93DF93C395D4
:100B20004B9BE9F74B9B10C04B9B0EC04B9B0CC0E3
:100B30004B9B0AC04B9B08C04B9B06C0C09127072C
:100B4000C395C09327078EC06F93C0912607DD27FA
:100B5000C55DD84F2F9365E54B9B03C02F916F91D7
:100B6000E1CF0F931F934F9320E040E15F9309B1D2
:100B70000C7003FB27F93F9350E03BE039C01C7039
:100B800040642F77012F5F5F1EC0406819B11C7051
:100B90002F7752501FC0406409B12F770C70D1F1EC
:100BA0005F5F00C023C0406219B12F771C7091F1C4
:100BB0005F5F00C025C00C701027515012F45D5FBC
:100BC0000000115027952C3F19B1C8F61C70012761
:100BD000015027952C3FC8F64227499309B10C7064
:100BE00010274F73115027952C3FA8F64695469530
:100BF00019B11C7079F00127015027952C3F98F608
:100C00006B5A60F3315009B1B0F600C012E01CBB62
:100C100000271CC03B503195C31BD04012E01CBBC9
:100C20000881033C21F10B3411F120912407198133
:100C3000110F1213EDCF4A81441F093679F10D329D
:100C400011F0013E29F74F7009F0042F00932A0795
:100C50003F915F914F911F910F912F916F91CCB365
:100C6000C1FD5DCFDF91CF91CFBFCF91189520917E
:100C70002A07222369F310912807112309F049C09C
:100C800034300AF448C03093280720932507109188
:100C900026073BE0311B309326073DC00091280713
:100CA0000130BCF50AE54F7049F43091210134FD63
:100CB00033C000932101C1E0D7E032C0433059F086
:100CC000443091F030910C0734FD26C000930C079E
:100CD000CDE0D7E025C03091410734FD1DC0009321
:100CE0004107C2E4D7E01CC03091180734FD14C09E
:100CF00000931807C9E1D7E013C0052710E000C032
:100D000000000BB91AC0052710E0221F1DC010E01B
:100D100021C04AE502C032ED432FC4E1D0E032E009
:100D20001AB11C605B9A0BB11AB95CE020E865E36C
:100D300020FF05270BB9279517951C3FF0F6669500
:100D4000B8F7B1F720FF05270BB9279517951C3F7A
:100D5000D0F62795179517FF052700001C3F0BB904
:100D6000B0F629913A9519F7037F10912907110FD1
:100D7000C651D0400BB911F01093240712E01CBBF0
:100D800008601AB1137F402F437F54E05A95F1F762
:100D90000BB91AB94BB95CCFFC018381833081F167
:100DA00030F48130E9F0823019F180E00895813229
:100DB00009F44EC08232C9F72481358121303105D2
:100DC00009F45BC02230310509F45EC0232B69F7BA
:100DD0008DE094E09093F4048093F30480E408950C
:100DE00080E095E09093F4048093F30482E1089509
:100DF00085EA94E09093F4048093F3048BE50895DE
:100E000082818230E9F050F4811112C081EA94E0CD
:100E10009093F4048093F30484E00895833029F6DA
:100E20008DE494E09093F4048093F3048CE10895AE
:100E30008BE894E09093F4048093F30484E10895A4
:100E40008BE694E09093F4048093F3048EE108958C
:100E50008281813061F0823069F08111A6CF87EB09
:100E600094E09093F4048093F30489E0089580ED76
:100E700094E0F7CF80EF94E0F4CF2BEE33E03093A3
:100E8000F4042093F30408958AE693E09093F40425
:100E90008093F30481E808958091EE04089588E139
:100EA00098E00FB6F894A895809360000FBE9093D9
:100EB0006000A895F894D8E0CEEF28E3299320E0CD
:100EC000299314BEFFCF0895CF93DF9300D000D0B5
:100ED000CDB7DEB78FB7F89420913704309138043E
:100EE0004091390450913A0429833A834B835C83BF
:100EF0008FBF69817A818B819C810F900F900F90B9
:100F00000F90DF91CF9108959C01FC0132968FEFF5
:100F100090E04191461751F08F3F19F4411101C003
:100F2000892F9F5F9630A9F78F3F09F40895280F06
:100F3000311D87FD3A95F9016283089520913304AC
:100F4000309134042817390771F09093340480935A
:100F50003304E0913104F0913204309721F00084A1
:100F6000F185E02D0994089520912F0430913004EB
:100F70002817390771F09093300480932F04E09183
:100F80003104F0913204309721F00680F781E02D92
:100F900009940895E0913104F0913204309721F0E2
:100FA0000190F081E02D099480E00895452B39F0FF
:100FB000682381E06F3F09F080E08170089581E04F
:100FC000FCCFAC013091510360915203232F621387
:100FD00001C00895822F90E0FC01EE0FFF1FE75B38
:100FE000FC4F0190F081E02DE417F50791F467E0E4
:100FF000649FF001659FF00D1124EF5EFC4F41E00E
:1010000044832313E6CF019683709927809351037D
:1010100008950196282F2370DACF1092AE02109215
:10102000AD02E1E1F3E08581811102C014821682F4
:10103000379683E0E934F807B1F70895E9E0F4E082
:10104000848195812AE030E0B9010E945832609392
:101050001B01868180931A01828580931901848502
:101060008093180186859785B9010E945832609354
:1010700017018089809316018289809315018489E4
:101080008093140108958091090490910A0490932B
:101090001E0180931D01089590913902803F59F4FB
:1010A00080913A0287FF0DC010923A0291110BC055
:1010B0001092310208C0813F81F480913A021816E3
:1010C0009CF3992381F080913B0290913C02892B03
:1010D00009F064C0109230020895823F49F497FFEE
:1010E000F0CF1092390280913A028111ECCFE0CF1B
:1010F000833F19F41916ACF3E4CF20913B02893FEA
:1011000029F41216F4F610923B02DBCF8A3F19F451
:1011100027FFD7CFF8CF20913C028B3F29F427FF40
:10112000D0CF10923C02CDCF8C3F19F41216CCF3E5
:10113000C8CF843F31F4809138028E7F809338028B
:10114000C0CF853F21F4809138028D7FF7CF863F55
:1011500021F4809138028B7FF1CF873F21F4809179
:101160003802877FEBCF883F21F4809138028F7E51
:10117000E5CF8D3F31F4809132028E7F8093320231
:10118000A0CF8E3F21F4809132028D7FF7CF8F3F29
:1011900009F097CF809132028B7FF0CF0895809134
:1011A000320280FF0CC06091150170E07595679563
:1011B000759567956115710549F1862F089581FF31
:1011C00006C06091150170E075956795F3CF609149
:1011D000150182FD0BC0909130029923A1F060911E
:1011E000140180911501961738F0682F70E060386F
:1011F000710500F38FE70895899FC001112470E005
:101200000E947832F4CF61E070E0D7CF81E008959A
:1012100080913202609111047091120480FF16C017
:1012200020911901269FC001279F900D1124BC0118
:1012300076956795769567956038710508F043C097
:101240006115710509F441C0862F089581FF0BC017
:1012500020911901269FC001279F900D1124BC01E8
:1012600076956795E9CF82FF09C0809119019B01AE
:10127000829FB001839F700D1124DECF2091310237
:101280002223D1F29091180180911901482F50E04A
:10129000291748F0CB01849FB001859F700D949F62
:1012A000700D1124C9CF289F90011124269FA00101
:1012B000279F500D369F500D1124692F70E0CA01F1
:1012C0000E945832B9CF8FE7089581E00895803F9A
:1012D00031F40E940809819580933A020895813F74
:1012E00019F40E940809F8CF823F31F40E940809DE
:1012F0008195809339020895833F19F40E9408096B
:10130000F8CF893F29F40E94CF0880933B020895CB
:101310008A3F21F40E94CF088195F7CF8B3F31F4AB
:101320000E94CF08819580933C0208958C3F19F468
:101330000E94CF08F8CF843F31F480913802816059
:10134000809338020895853F21F4809138028260AD
:10135000F7CF863F21F4809138028460F1CF873F38
:1013600021F4809138028860EBCF883F21F480918E
:1013700038028061E5CF8D3F31F480913202816087
:101380008093320208958E3F21F480913202826070
:10139000F7CF8F3FB9F7809132028460F1CF80E0C0
:1013A0000895F894E82FE295EF70F0E041A18F7076
:1013B00021E030E0B90102C0660F771F8A95E2F79D
:1013C000CB01962F9095942391A392A1892B82A370
:1013D000789408959091EE0192FF06C0282F28710D
:1013E0002830F9F4877F846093FF06C0282F287186
:1013F0002831F1F4877E84612091EF0120FF06C03F
:10140000382F38713830D9F4877F816021FF06C0CA
:10141000282F28712831D1F4877E816194FD877E41
:101420000895282F24712430F9F68B7F8860DCCF53
:10143000282F2471243101F78B7E8861DDCF382F6E
:101440003171313019F78E7F8860E0CF282F2171FC
:10145000213121F78E7E8861E1CFCF93DF93EC01BC
:10146000803E910509F460C050F58133910509F47F
:10147000A6C090F48932910509F49AC08A9709F4BC
:10148000A5C0C130D10509F462C0CE010497813AEC
:10149000910508F055C05BC089339105F1F18238A0
:1014A0009105D9F1C59709F47CC0C83AD10508F077
:1014B00094C0C53AD10528F3A497D06448C0843EAF
:1014C000910509F453C068F4823E9105E1F1833E31
:1014D000910509F440C0CE01805E9109089780F51E
:1014E00036C0863E910509F44CC0873E910509F44B
:1014F0004DC0811522E5920708F0AAC0811531E59B
:10150000930708F0FAC08F3F910511F008F074C0FE
:10151000803F910550F2D0651AC08091EE01837032
:10152000B1F0C0EED0E013C08091EE0180FD12C199
:101530009091EF0190FF0BC0C3EED0E084FF07C095
:10154000D0E0C0E004C08091EE0182FDF5CFCE0175
:10155000DF91CF9108958091EE0182FDFEC09091C0
:10156000EF0190FDDECF84FFF2CFEACF8091EF0153
:1015700081FFEDCF8091EE01C7EED0E084FDE0CF9A
:10158000E6CF8091EE0183FDF7CFE1CF8091EE01B0
:1015900083FDE6C09091EF0191FFE5CFC4EED0E06E
:1015A000D6CF8091EE0185FFD2CFC9E2D0E0CFCF78
:1015B0008091EE0185FFCBCFC5E3D0E0C8CF80910D
:1015C000EE0186FFC4CFCAE2D0E0C1CF8091EE0128
:1015D00086FFBDCFC1E3D0E0BACFCF3BD10508F045
:1015E0007ACFC85AD0E0CC0FDD1FC15DDE4F099025
:1015F000D881C02DD464ABCF811540E5940760F449
:10160000C11580E4D80708F075C0CE019A95811500
:101610009F4108F49CCF94CFF4E096958795FA9576
:10162000E1F783702C2F26952695237040E2249FA6
:1016300090011124382B8C2F8370C1E0D0E002C0C0
:10164000CC0FDD1F8A95E2F7C22BD32BDC687FCF4E
:10165000C11586E5D80730F5C11595E5D90708F01D
:1016600060C0C11524E5D207C0F49C2F96959695CD
:101670009E0123703327C115D34508F043C0C1E054
:10168000D0E002C0CC0FDD1F2A95E2F720E2929F46
:10169000C0011124C82BD92BD9CFDC2FCC27C46F84
:1016A000D06A55CFC1153AE5D30788F4C11549E58D
:1016B000D40708F041C0CE0198558F3F910511F035
:1016C00008F03ECFDC2FCC27C06FD06A40CFCE01D0
:1016D00090568115904208F033CF8D2F8F710E9464
:1016E000EA0990E0982F882788279F719C012C2B6E
:1016F000E90120C0DF70D06A2ACFD82FCC27C16F74
:10170000D06A25CFC1E0D0E002C0CC0FDD1F2A9502
:10171000E2F730E2939FC0011124C82BD92BDA687D
:1017200016CF8C2F0E94EA09C82FD0E0DC2FCC27DF
:10173000CC27DF71D0620BCF8C2F8F700E94EA090B
:1017400034E0D695C7953A95E1F7CF70DC2FC82FD6
:10175000D069FDCEC9E3D0E0FACEC2EED0E0F7CE3C
:10176000C6EED0E0F4CE8091EA01882331F01092E9
:10177000EA011092E9011092E8010895982F9095DE
:10178000809108048923809308040895982F9095E8
:101790008091070489238093070408951092E6013D
:1017A0001092E5011092E40108958091E301811106
:1017B0001092E3010895E091E2019091A101E913F3
:1017C00002C080E008952E2F30E058E0E59FF00140
:1017D0001124EE55FE4F5181561306C05081581307
:1017E00003C05281541304C0F9013196E770E7CF6A
:1017F00081E008958091E2019091A101981301C0C8
:1018000008958F5F8770FACFE82F9E3F39F1990FC7
:10181000990FE90F9E2F9770E695E695E69583E080
:10182000E89FF0011124ED56FE4F50E040E080E0CB
:10183000219130E0092E02C0369527950A94E2F7EF
:1018400021703327042E01C0220F0A94EAF7822B5D
:101850004F5F5F4F4330510559F7089580E0089579
:10186000E82F9E3F59F1990F990FE90F8E2F87703E
:1018700041E001C0440F8A95EAF7E695E695E695C2
:1018800083E0E89FF0011124ED56FE4F30E020E0A8
:1018900070E05191DF011197CB01022E02C09695A5
:1018A00087950A94E2F7817081958527842385279F
:1018B0008C932F5F3F4F2330310559F70895282F20
:1018C000892F82958F70903C80F48A30B0F48430F8
:1018D00020F4823090F480E008958630E1F781E0D2
:1018E000283E88F0213FB9F70EC08C3011F08F30C0
:1018F00091F793FB882780F9089581E0203F39F024
:1019000018F4283E40F70895243F29F7FCCF0895A6
:1019100080913504882321F11092360488E190E00B
:1019200020E40FB6F894A895809360000FBE209332
:10193000600083B7817F846083BF83B7816083BF8A
:101940007894889583B78E7F83BF0FB6F894A89557
:1019500080916000886180936000109260000FBEEB
:1019600008959C019A9581159F4150F5D901AA27A8
:10197000B170F901EE27F270B90166277470A90100
:101980004427587034FF0EC080E1AB2B09F480E08F
:10199000EF2B09F08062672B09F08064452B89F0FA
:1019A0008068089581E0AB2B09F480E0EF2B09F00B
:1019B0008260672B09F08460452B19F088600895D8
:1019C00080E00895CF93DF93682F81E06A3019F0AB
:1019D0006D3029F480E0DF91CF910C94630D8091FC
:1019E000FF069091000726E0FC01A9EFB6E0019008
:1019F0000D922A95E1F7603E08F45AC026E0FC01FA
:101A000011922A95E9F7C091FF06D091000746E0B0
:101A100050E0BE0189EF96E00E94A2329E01295F4C
:101A20003440892B41F1C90145E0969587954A9547
:101A3000E1F741E050E0BA0102C0660F771F8A95D6
:101A4000E2F7CB016091F7047091F804862B972B95
:101A5000B9016B5F7F4FE5E076956795EA95E1F711
:101A600002C0440F551F6A95E2F7842B952B909383
:101A7000F8048093F7042A5F3F4F4091F604642FE7
:101A800070E0C9010E945832481B463010F4240F00
:101A9000311D211572E0370710F030E020E02750AB
:101AA0003B4F309300072093FF06DF91CF910895BD
:101AB000F6E06F9FB00111246E5E7A4F46E050E071
:101AC0000E949932A0CFCF93382FE091FF06F0917A
:101AD0000007E95FF4402091F604622F70E0CF0127
:101AE0000E945832281B822F332361F066E00E9447
:101AF0006C32C82FC15010F4CF91089580E20E943B
:101B0000E20CF8CF9F01280F311D2115324018F04B
:101B100080E0F0E0E0E08E0F9F2F911D87509B4FFB
:101B2000909300078093FF06E7CFCF92DF92EF926A
:101B3000FF920F931F93CF93DF936C017B0164E6B9
:101B400070E088E70E944D31EC0197FD12C010E073
:101B500000E0F601E00FF11F849164E670E00E945E
:101B6000C731EC01892B29F40F5F1F4F0E151F059C
:101B700081F70E945432CE01DF91CF911F910F91D6
:101B8000FF90EF90DF90CF900895CF93DF9300D038
:101B900000D00F92CDB7DEB78091A8028D838091DF
:101BA000A9028823F1F00E946407DC01CB01805A6E
:101BB0009541AF4FBF4F8093A4029093A502A0938D
:101BC000A602B093A7028D81811108C062E070E087
:101BD00088E693E00E94950D892B61F08091A80220
:101BE0008D838D810F900F900F900F900F90DF914C
:101BF000CF91089581E08093A802F0CFCF93DF9337
:101C000080912807835087FD14C090912607CCE06F
:101C1000D0E0C91BD109C55DD84F909125079031FF
:101C200008F070C0883009F458C01092E304109294
:101C300028078091210184FF43C0809120018F3FBC
:101C400009F43EC0C82F893008F0C8E0982F9C1BCB
:101C5000909320019091010728E892279093010723
:101C6000882301F18091F3049091F4042091F2040F
:101C700026FF0AC1FC012C2F42E057E03491DA0123
:101C80003C934F5F5F4F31962150C1F79C012F5F0E
:101C90003F4F8FEF8C0F820F932F911D9093F40481
:101CA0008093F3046C2F82E097E00E94870584E024
:101CB0008C0FC83019F09FEF909320018093210181
:101CC00084E199B19C7031F48150D9F710922907C1
:101CD00010922407DF91CF9108958091E304893118
:101CE00008F0A3CFE82FF0E0ED53FB4F9E01285FF3
:101CF0003F4F999191932C173D07D9F7885F8093B7
:101D0000E30495CF9D3209F0A3C0883009F08FCF4E
:101D100083EC809301078AE5809321011092F204FD
:101D20008881807609F447C0803229F58981813025
:101D300099F48C819D81892BF1F485EE94E0909348
:101D4000F4048093F30488E09F81911131C09E8157
:101D5000981770F5892F2CC0823041F484EE94E0FE
:101D60009093F4048093F30481E0EECF8A3029F459
:101D70008B818093E40480E0E7CF8930E1F78A81AA
:101D80009B818115924069F48C819D81892B49F456
:101D900081E08093F1048E819F819093F004809381
:101DA000EF04888187FF52C08E8190E89093F204FF
:101DB000809320013CCF2A8110920A0799819111CA
:101DC0000AC010920B072AE037E082E03093F40457
:101DD0002093F304B9CF953029F4209329072AE002
:101DE00037E0F4CF9630C1F49B81913049F4CE01B5
:101DF0000E94CC0690E49093F2048F3F91F2A4CF1E
:101E00009230A9F3933099F3913289F3923279F3B6
:101E100090E49093F20498CF983089F0993019F4B7
:101E20002093ED04DCCF9A3071F09B30C1F69BE437
:101E300090930D079093420790931907D0CF2DEE02
:101E400034E081E0C3CF2AE037E0FBCF8FEFADCFA6
:101E50008091F20487FFEBCE8091EF049091F00423
:101E6000892B71F08091F104813051F48881809345
:101E7000EE041092F0041092EF0410922001D7CEDD
:101E80008EE180932101D3CEDC012C2F42E057E07C
:101E9000FA013D9130834F5F5F4F2150C9F7F6CE75
:101EA0001F93CF93DF93782F162FEA01888184FF49
:101EB0001EC0898128E882278983AE014E5F5F4F6B
:101EC000FA01272F392F710FD9012F5F3F4F8C91C6
:101ED0008193872F821B1816BCF3612FCA010E94C1
:101EE00087051C5F1883DF91CF911F9108958AE5C4
:101EF0008883E3CF2091410724FF05C041E457E0E8
:101F000066E00C94500F08959B019091C2049813C1
:101F100007C04091C0045091C10446175707B9F05B
:101F20008093C2043093C1042093C0048093BD0405
:101F30003093BF042093BE048091410784FF07C003
:101F400041E457E063E08DEB94E00C94500F08956A
:101F5000BC0184E00C94840FBC0183E00C94840FDA
:101F6000CF93DF93CAE0D0E080910C0784FF1CC0C0
:101F70008091BB049091BC04981799F028E0829F4F
:101F8000C00111244CE057E068E0855C9B4F0E9443
:101F9000500F8091BB0490E001968F709927809339
:101FA000BB04DF91CF9108950E94FE0D8FE99FE061
:101FB0000197F1F700C000002197B1F6F2CFCF935F
:101FC000DF93D82FC92FA091BC04B0E0CD010196BA
:101FD0008F7099272091BB04281781F093E0AA0FF6
:101FE000BB1F9A95E1F7A55CBB4F98E0ED2FFC2F46
:101FF00001900D929A95E1F78093BC040E94FE0D2A
:102000000E94B00F88E0ED2FFC2FA5EEB4E0019008
:102010000D928A95E1F7DF91CF9108959C012150AF
:10202000310908F408958FE99FE00197F1F700C0A6
:102030000000F5CF0F931F93CF93DF9309E014E0D7
:10204000C7EED0E0CE010E94CF32F80181938F011C
:102050002196C930F1E0DF07A9F7C6EDD2E0FE0115
:1020600085919491009711F0FC0109952896F3E071
:10207000CE36DF07A1F7DF91CF911F910F91089521
:102080000F931F93CF93DF93843030F5643020F5A6
:1020900020E1829FE001112434E0639FB00111240C
:1020A000C60FD71F50E0440F551FC40FD51FC95589
:1020B000DF4FCE010E94CF32082F10E0102F0027F3
:1020C000CE0101960E94CF329801282BC901DF91E1
:1020D000CF911F910F91089590E080E0F8CF0F937A
:1020E0001F93CF93DF93843038F5643028F5443064
:1020F00018F528E0629FE001112450E0440F551FBD
:10210000C40FD51F30E2839FC0011124C80FD91F0F
:10211000CE0187960E94CF32082F10E0102F0027A3
:10212000CE0188960E94CF329801282BC901DF91F9
:10213000CF911F910F91089590E080E0F8CF462F46
:10214000672F2091A2023091A302232B89F47E3FB6
:1021500039F44E3F69F48091A0029091A102089554
:10216000843030F4743020F4443010F40C946F1048
:1021700090E080E00895DF92EF92FF920F931F931B
:10218000CF93DF937C010091F50480913D02082BF1
:10219000C7E0D0E010E0DC2EC8010C2E02C09595FF
:1021A00087950A94E2F780FD0CC02197A0F7D12C07
:1021B0008D2DDF91CF911F910F91FF90EF90DF90C8
:1021C0000895B7018C2F0E949F100E942D0A01973D
:1021D00061F3EECFCF93DF93D82FC92F0E94BB10AE
:1021E0006D2F7C2F0E949F10DF91CF910C942D0AB0
:1021F000FC0186819781009721F00E942D0A0C94A2
:102200005F0C808191810E94EA10F9CF1F93CF93D8
:10221000DF9300D000D00F92CDB7DEB749835A8349
:1022200089819A816623B9F02223A9F00E94BB100C
:10223000182F682F89819A810E94300C69817A81D8
:10224000812F0F900F900F900F900F90DF91CF91F3
:102250001F910C949F100E94040C182FEFCFFC01CB
:10226000262F86819781009739F4408151816281C0
:10227000738184810C940611089583E290E00E949A
:10228000CF32883389F484E290E00E94CF328632E4
:1022900059F485E290E00E94CF3291E0833109F059
:1022A00090E0892F8170089580E0FCCFCF9384E087
:1022B00090E00E94CF32C82F82E290E00E94CF329D
:1022C000982F8C2FCF9108950F931F93CF93DF9367
:1022D00009E014E0C7EED0E0CE010E94CF32F80151
:1022E00061918F01681719F0CE010E94DD322196AD
:1022F000C930F1E0DF0781F7DF91CF911F910F9196
:102300000895E9E0F4E0128E138E8FEA90E0918355
:10231000808385E0848F88E893E1938382832CE235
:1023200031E03583248382E390E09783868345E020
:1023300050E0518740874AE050E05387428744E1AC
:1023400050E0558744873787268724E630E0318B75
:10235000208B28E030E0338B228B28E230E0358B75
:10236000248B978B868B88EC90E0918F808F158ED5
:102370008CE390E0978F868F80E590E091A380A317
:102380000E9464110C941A10CF93DF93C9EAD1E034
:1023900060E0CE010E94DD322196C11584E0D807AD
:1023A000B9F7DF91CF9108950F931F93CF93DF93E8
:1023B0008901843058F5643048F5423038F52115EC
:1023C0003C4531F42091120130911301232BF1F09F
:1023D00090E1899FE001112484E0689FB0011124FD
:1023E000C60FD71F50E0440F551FC40FD51FC95546
:1023F000DF4F612FCE010E94DD32602FCE010196AA
:10240000DF91CF911F910F910C94DD32DF91CF912D
:102410001F910F9108950F931F93CF93DF9389011D
:10242000843058F5643048F5443038F501152CE512
:10243000120731F42091120130911301232BE9F09E
:1024400098E0699FE001112450E0440F551FC40F2C
:10245000D51F20E2829FC0011124C80FD91F612F10
:10246000CE0187960E94DD32602FCE018896DF91E3
:10247000CF911F910F910C94DD32DF91CF911F917D
:102480000F910895CF93C82F6FEF811168E383E216
:1024900090E00E94DD326FEFC11166E284E290E0CD
:1024A0000E94DD326FEFC11163E185E290E0CF91D0
:1024B0000C94DD32CF93C091EF01C2FB992790F9C4
:1024C000981781F080FBC2F9C093EF016091EE0193
:1024D00084E090E00E94DD326C2F82E290E0CF91A8
:1024E0000C94DD32CF9108957F928F929F92AF929C
:1024F000BF92CF92DF92EF92FF920F931F93CF93F1
:10250000DF93CDB7DEB764970FB6F894DEBF0FBE8A
:10251000CDBFC0901201D090130181E090E0909364
:10252000130180931201B12CA12C10E0450100E0B1
:1025300015C0F70125913491472D602F812F0E94FE
:102540000B1222E0E20EF11C739434E07312F1CF0F
:1025500084E0880E911C0F5F043049F0C401880F9D
:10256000991FFC01E05BFD4F7F01712CE2CF00E081
:1025700021E030E040E0602F812F0E94D41121E063
:1025800030E041E0602F812F0E94D4110F5F0430B2
:1025900079F71F5FF0E1AF0EB11C143039F60E94DD
:1025A00081111A8219821C821B821E821D8218864A
:1025B0001F8288EC90E09A87898709E011E04AE061
:1025C00050E0B801CE0101960E940133065F1F4F13
:1025D000093521E0120799F77E013BE0E30EF11C7B
:1025E0008AE0F70111928A95E9F74AE050E0B801D4
:1025F000C7010E940133065F1F4F093AF1E01F0730
:10260000A1F7D0921301C092120164960FB6F8940C
:10261000DEBF0FBECDBFDF91CF911F910F91FF9015
:10262000EF90DF90CF90BF90AF909F908F907F9072
:10263000089580E00E94421260E086E290E00E94ED
:10264000DD320E9474120E94C41181E00C94421287
:10265000282FCB01283068F43AE0239FB0011124E1
:10266000675F7E4F4AE050E00E94BF3290E080E01A
:1026700008958FEF9FEF08958F929F92AF92BF9230
:10268000CF92DF92EF92FF920F931F93CF93DF933E
:10269000CDB7DEB72A970FB6F894DEBF0FBECDBF19
:1026A00007E513E0F12CE12C8BE1C82E88E2D82E4F
:1026B00095E4A92E98E2B92E21E1822E27E2922EEE
:1026C000F801D182C082B382A28295828482F58A87
:1026D000E48ABE016F5F7F4F8E2D0E942813892BE5
:1026E00029F489859A85F801938B828BFFEFEF1A85
:1026F000FF0A0A5E1F4F88E0E816F10409F72A96E0
:102700000FB6F894DEBF0FBECDBFDF91CF911F9102
:102710000F91FF90EF90DF90CF90BF90AF909F9080
:102720008F900895CF92DF92EF92FF920F931F93B5
:10273000CF93DF93CDB7DEB72A970FB6F894DEBFFD
:102740000FBECDBFE0E5F2E080E5DF011D928A9586
:10275000E9F7E1E1F3E088E3DF011D928A95E9F70B
:1027600080E5C82E82E0D82E7F0109E511E0F7014F
:10277000D182C0824AE050E0B801CE0101960E94A9
:10278000BF3288E0FE013196D60101900D928A9504
:10279000E1F789859A85D70113969C938E931297BA
:1027A000BAE0CB0ED11CE7E0EE0EF11C065F1F4F26
:1027B000093AF1E01F07D9F62A960FB6F894DEBF62
:1027C0000FBECDBFDF91CF911F910F91FF90EF9082
:1027D000DF90CF9008956AEE7EEF90E080E00E9457
:1027E000FB3260E082E090E00E94DD3260E083E056
:1027F00090E00E94DD3210923D0260E084E090E0C3
:102800000E94DD3260E082E290E00E94DD3260E012
:1028100085E090E00E94DD3260E086E090E00E947A
:10282000DD326FEF87E090E00E94DD3240E050E063
:10283000BA0188E090E00E94EF3260E08DE090E025
:102840000E94DD3240E050E0BA0188E190E00E9451
:10285000EF3260E087E190E00E94DD3240E050E03E
:10286000BA018CE190E00E94EF3270E060E080E21B
:1028700090E00E94FB3240E050E0BA0188E190E035
:102880000E94EF3280E00E9442120E94191340E041
:1028900050E0BA018FE090E00E94EF3240E050E05B
:1028A000BA0183E190E00C94EF3278941F921FB646
:1028B0001F9211248F939F93AF93BF9380913704FE
:1028C00090913804A0913904B0913A040196A11D69
:1028D000B11D8093370490933804A0933904B093CA
:1028E0003A04BF91AF919F918F911F901FBE1F908F
:1028F00018959C014FB7F894809137049091380453
:10290000A0913904B0913A044FBF821B930B0895F4
:102910002FB7F8948091370490913804A09139042E
:10292000B0913A042FBF08950E9488142091390273
:1029300030913A02232B21F0809335029093360296
:1029400020913B0230913C02232B21F080933302F3
:1029500090933402E0913104F0913204309749F0C1
:1029600082E0809337020480F581E02D87E392E0D6
:102970000994089580910B0490910C04892B91F097
:102980000E9488142091E8013091E901AC01421BBA
:10299000530B9A0181E040910B0450910C042417D1
:1029A000350708F480E081700895809107049091C4
:1029B0000804892B9091E701892B809388018091ED
:1029C000EA01882309F180910B0490910C04892B72
:1029D00029F00E94BA1481110E94B30B80918801E2
:1029E0009091EA01892B8093880120E08AE891E0A8
:1029F000FC013081019631112F5F31E0803993075E
:102A0000B9F721110E94B30BE0913104F091320427
:102A1000309731F00280F381E02D88E891E009944D
:102A20000895CF93DF93EC0181E0898B80910704B7
:102A30009F81892B80930704809108049885892BB6
:102A4000809308040E94D514EA81FB81309739F005
:102A50006C897D89CE010696DF91CF910994DF9133
:102A6000CF910895EF92FF920F931F93CF93DF932F
:102A7000EC018A85811134C0EB80FC8087E5F81A6F
:102A800026E12E9DC0012F9D900D1124DC01A95A35
:102A9000BC4F1496ED91FC911597309731F05496F8
:102AA0006D917C91835A9C4F099586E18E9D8001A2
:102AB0008F9D100D1124095A1C4FF80187810E9427
:102AC000C60BF80180850E94BE0B0E94D5141882A7
:102AD00019861B861E821D82109256031092550382
:102AE000DF91CF911F910F91FF90EF90089590E0AB
:102AF00080E00E94B40790E080E00E949E07109260
:102B000008041092E7010E94D51486E0E7E3F2E0A2
:102B1000DF011D928A95E9F710923102109230027E
:102B2000109232020C9494148093F5040C9477154F
:102B30008091F504982F9670963019F488600C9463
:102B40009415877FFCCF21E030E001C0220F8A95E9
:102B5000EAF720958091F50482230C9494159091C6
:102B6000E601809589238093E601282F277039F4A8
:102B7000282F082E000C330B9217130621F4909186
:102B8000EF0192FF07C08595859585950E94A31555
:102B90000C94CE0B089521E030E001C0220F8A95FD
:102BA000EAF78091F504822B0C9494159091EF0133
:102BB00092FD10C098E0899F90011124622B6093D0
:102BC000E6010E94CB150E9488149093E501809342
:102BD000E40108950C94CB1580933D020C94771575
:102BE00010920704EAE8F1E086E0DF011D928A9581
:102BF000E9F70C947715882321F00E94BE0B0C9402
:102C0000D5140895882339F090910804892B809376
:102C100008040C94D5140895882321F00E94C60B53
:102C20000C94D5140895882339F090910704892BCA
:102C3000809307040C94D51408958823B1F19CEF78
:102C4000980F913A70F4EAE8F1E09191891303C08A
:102C5000DF0111971C9291E0E039F907B1F70C946C
:102C6000D51490E2980F983050F4877091E001C02D
:102C7000990F8A95EAF7892F0E94C60BF0CF9BE542
:102C8000980F933020F490E080E00C94B40798E51E
:102C9000980F973120F490E080E00C949E07803FDD
:102CA00020F00E944C080C9494140895CF93C82FE0
:102CB000882309F455C08CEF8C0F813AF8F4EAE8C8
:102CC000F1E0DF018D91C81761F021E0A039B20772
:102CD000C9F76C2F88E891E00E948407CF910C948B
:102CE000D5148191C81303C0DF0111971C9231E004
:102CF000E039F307B1F70E94D514EBCF80E28C0FD7
:102D0000883068F4C77021E030E001C0220FCA9516
:102D1000EAF780910704822B80930704DFCF8BE5CD
:102D20008C0F833038F42C2F2452330BC901CF91F0
:102D30000C94B407E8E5EC0FE73150F4F0E0EE0F47
:102D4000FF1FE15DFE4F80819181CF910C949E0722
:102D5000C03F30F08C2F0E946709CF910C949414DF
:102D6000CF910895FF920F931F93CF93DF938C0120
:102D7000EB01F42E80911F0182FF43C08B7F809373
:102D80001F0180912B0420912D0430912E04AB0162
:102D9000421B530B9A0140911D0150911E012417B3
:102DA0003507A8F40E94561680911F018D7F8093ED
:102DB0001F0180912704909128040E940E10809199
:102DC0002B040E941D1682E00E94BE0B24C090912D
:102DD00008049260909308040E94561680911F0187
:102DE000826080931F018091240485FFE2CF86FDDD
:102DF000E0CFFF20F1F2DF91CF911F910F91FF9073
:102E00000895802F0E941D1680912B0490912C0410
:102E100080179107C1F20E94D514D0932E04C0935D
:102E20002D04E9CF0F931F93CF93C82F009129044E
:102E300010912A04893321F000912704109128046D
:102E40008C2F0E9456160115110531F48C2FCF914D
:102E50001F910F910C941D168FE99FE00197F1F7D8
:102E600000C0000001501109EECFFF920F931F9395
:102E7000CF93DF93C42FD22FFC0182818823A9F046
:102E80004093AC020E9488149093AB028093AA02F4
:102E9000C77081E001C0880FCA95EAF7DF91CF9132
:102EA0001F910F91FF900C9413161091AC02141304
:102EB00038C08091AA029091AB020E9479142091AF
:102EC0002104309122048217930758F5C0E2CD0FF8
:102ED0001D17A9F01770FF24F3948F2D01C0880FE0
:102EE0001A95EAF70E940C16C83048F48D2F8770A7
:102EF00001C0FF0C8A95EAF78F2D0E941316802FD0
:102F00000E941217C830A0F4D77081E001C0880F6A
:102F1000DA95EAF7DF91CF911F910F91FF900C9412
:102F20000C16C77081E001C0880FCA95EAF7F2CF8E
:102F3000DF91CF911F910F91FF900895AF92BF92B3
:102F4000CF92DF92EF92FF920F931F93CF93DF9375
:102F5000EC018AE0A82E2881222309F48CC02130BC
:102F6000C9F599818A81913021F422960E94121725
:102F700005C0923029F422960E9456162196EBCF76
:102F8000933021F422960E941D16F8CF943011F050
:102F90002196F4CF229630E020E0AE014F5F5F4FE4
:102FA0008053990B8A30910550F02150310930F34C
:102FB0008FE99FE00197F1F700C00000F6CFA29ED5
:102FC000B001A39E700D11249C01260F371F89812B
:102FD000EA01E3CFE22FF0E0E856FF4FB490822FF2
:102FE00086958695869590E0FC01E857FF4FE49022
:102FF0002770F12C022E02C0F594E7940A94E2F7B0
:1030000031E0E322FF24FC01E858FF4FC490D12CAB
:10301000022E02C0D594C7940A94E2F731E0C3228D
:10302000DD24FC01E859FF4F049110E002C0159522
:1030300007952A95E2F701701127E114F10419F0C0
:1030400081EE0E945616C114D10419F086EE0E943A
:1030500056168B2D0E941217CD2819F086EE0E946D
:103060001D16EF2819F081EE0E941D16012B09F4A0
:1030700085CF8CE27BCFDF91CF911F910F91FF9095
:10308000EF90DF90CF90BF90AF9008958F929F9276
:10309000AF92BF92CF92DF92EF92FF920F931F9366
:1030A000CF93DF9300D000D0CDB7DEB77C01DC0139
:1030B00013964D915C91149711966C9111978C9188
:1030C0000E94D607811139C161E0C7010E942F110A
:1030D0008C01F70182818111D2C0D70112964C91E7
:1030E00041110FC10031BFE51B0709F4B7C1013120
:1030F000EFE51E0709F4B6C1C80197558F3F91054A
:1031000011F008F04BC020910001022E000C330B8F
:103110002817390714F48093000126E1289F5001F5
:10312000299FB00C11249501295A3C4F6901D901FE
:1031300050964C935097F701928116968C91169762
:10314000992309F491C11A961C930E9319978F5FD6
:1031500016968C930E948814D6011E969C938E938B
:103160001D978091EA0117968C9317978091080418
:1031700090910704892B18968C931897ED91FC91E8
:103180001197309739F054966D917C91C501835A0F
:103190009C4F099510935603009355038091240486
:1031A00080FFC1C10E9488146C01D70112968C91D6
:1031B000882311F180911F0182FF06C040E0B60113
:1031C00090E080E00E94B21682E00E94BE0B0B31BC
:1031D000BCE51B0709F456C10C31ECE51E0709F4E8
:1031E00087C190911F01892F8E7F90FF81600A31E6
:1031F000FCE51F0709F47FC10832110508F081C101
:103200000E31110508F0ADC1C80104974A9708F0C6
:103210003EC18091240484FD86C1D70112968C9111
:10322000882309F4BAC180911F0180FF7CC190916D
:10323000240491FD04C020910704211174C195FF5D
:103240009BC120912D0430912E04F601E21BF30B5B
:103250009F0196FD02C081FD8FC1283C310508F019
:103260008BC120912B0430912C040217130709F015
:1032700083C181FD7BC1802F0E94561653C080916F
:1032800000018F3F09F429CF47E5C42E43E0D42E37
:10329000B12CA12C9924939480910001082E000C4C
:1032A000990B8A159B050CF418CFF60186818823AB
:1032B00009F1818592850817190739F48091550322
:1032C0009091560308171907A9F0D6011F969C92F2
:1032D0001F971C961C930E931B9751968C918111EE
:1032E00003C0C6010E941115C60106960E94321540
:1032F00010920804BFEFAB1ABB0AE6E1CE0ED11C58
:10330000CBCFC80182519F45409708F034C58FEF5D
:1033100093E00E94CF323EEED32ED00E09EA11E0A8
:10332000882341F18091E601877039F0F7018281AD
:10333000882319F082E00E94AF150F900F900F9034
:103340000F90DF91CF911F910F91FF90EF90DF9041
:10335000CF90BF90AF909F908F9008950115F4E0AB
:103360001F0701F3C8010E94CF32811101C0DA9416
:103370000F5F1F4FD110F2CF809122019091230156
:10338000A0912401B091250189839A83AB83BC83EA
:1033900099249A9468012FEFC21AD20AC8010E9498
:1033A000CF3289831A82882309F4BCCF813009F097
:1033B00049C0580132E0A30EB11CC6010E94CF32B1
:1033C000C82E8A83882309F4ADCFC5010E94CF326D
:1033D000D82E8FEF8C0D833068F4580143E0A40E93
:1033E000B11CDB82DD2021F0CE0101960E949E17E8
:1033F0008501D0CF54E0C512FBCF580184E0A80E60
:10340000B11CC80103960E94CF32282FDD2009F499
:1034100089CF882309F486CF2150330B929EA001D7
:10342000939E500D1124AD2DA150BB0BCD01840FE7
:10343000951F0197E8F2EFE9FFE03197F1F700C03F
:103440000000F7CFCE0101960E949E175601D0CF03
:1034500081E00E94CB150E94981564CF81E00E9404
:10346000A315F9CF82E0FBCF882309F497CEF901A9
:103470008189882309F492CEC501835A9C4F0E940A
:1034800032158CCE80911F01816080931F01F7015E
:103490003281332309F47BC41092AC020631FCE57F
:1034A0001F0708F0B1C002302CE5120708F4BEC0B7
:1034B0000E9456119093EF018093EE0106313CE596
:1034C000130708F003C102304CE5140708F0F1C0FF
:1034D0006091EE011091EF0184E090E00E94DD32F6
:1034E000612F82E290E00E94DD320E94F0151ACF37
:1034F00080911F018E7F80931F0182E00E94BE0B8E
:10350000C6CF0933110560F40D32110520F40B32DA
:10351000110509F0BCCF8091240482FD04C07DCE4A
:1035200004361105C1F3033FFCE51F0709F454C03D
:10353000D0F5083D3CE5130709F448C0093D4CE5CA
:10354000140709F45BC0073D5CE5150709F09FCF40
:1035500006E221EE41EE67ED7CE5C7010E943517DA
:10356000E1CE8091240483FDDECF57CE8091080404
:103570008260809308047FCE10932C0400932B0468
:10358000D0922E04C0922D0480911F0184608093FC
:103590001F0182E00E94AF15C5CE40E0B601C80110
:1035A0000E94B216BFCE053F8CE51807D9F0063F42
:1035B0009CE51907E9F0043FACE51A0709F067CF6D
:1035C00007E225EE44EE64EF7CE5C7CF07E225EE87
:1035D00045EE68ED7CE5C1CF06E221EE40EE63EFFB
:1035E0007CE5BBCF06E221EE42EE65EF7CE5B5CF90
:1035F00007E225EE46EE66EF7CE5AFCF08E221E07C
:1036000045EE69ED7CE5A9CFC8018A5F9C45099725
:1036100008F44ECF06314CE5140709F4BCC30A3553
:10362000FDE51F0709F420C108F0FBC001153CE5CA
:10363000130709F408C10E3D1C4509F412C1D70156
:1036400016968D919C91009709F412C10E942D0A43
:10365000182F092FD7011296CC9012971596DC904F
:10366000D2942FE0D2228091E6018770A1F0AC2C99
:10367000CC2091F0892F807F803421F080E2810F6F
:10368000883048F082E00E94AF158091E601877093
:10369000AA24A3948111A12C802F82958F70882E4B
:1036A000912C8C3008F030C1F401E55EFC4C0C9498
:1036B0008C32F801E350FC458091EE018160E331EA
:1036C000F10590F4E95DFC4C0C948C320A5F1C45CA
:1036D0000930110508F0FCCE065C1C4CF8010C9476
:1036E0008C328091EE0182608093EE01F1CE809168
:1036F000EE018460F9CF8091EE018860F5CF809172
:10370000EF0181608093EF01E3CE8091EF01826051
:10371000F9CF8091EE018061E7CF8091EE01806268
:10372000E3CF8091EE018064DFCF0E94F01580919D
:10373000EE018068D9CF8091EE018C60D5CF809169
:10374000EF018360DFCF8091EE018E7FCDCF80913E
:10375000EE018D7FC9CF8091EE018B7FC5CF809127
:10376000EE01877FC1CF8091EF018E7FCBCF80911B
:10377000EF018D7FC7CF8091EE018F7EB5CF809115
:10378000EE018F7DB1CF8091EE018F7BADCF0E9496
:10379000F0158091EE018F77A7CF8091EE01837FA6
:1037A000A3CF8091EF018C7FADCF8091EE0182FBA2
:1037B000992790F921E0922790FB82F990FB83F9F9
:1037C00093CF8091EF01982F909591708E7F892BE8
:1037D00090FB81F997CF0E94F0159091EE01892F0F
:1037E00097FB87F9805880CF61E08EE090E00E94DF
:1037F000DD326ECE60E0F9CF8091900181110FC073
:1038000089E2EAE8F1E020E931E09191891303C00F
:10381000DF0111971C922E173F07B9F7E9C285E324
:10382000F0CF0B355DE5150709F10C351D4509F0A5
:1038300006CF8091EF0182FB882780F991E08927EC
:103840000E945A12FCCE0E94F0159FEFA4E3BCE048
:103850009150A040B040E1F700C000000E944F0727
:1038600061CD0E94EB135ECD81E0EACF80E0E8CF2E
:10387000F7018281C080D180882369F0C6010E944F
:10388000BB10182F682FC6010E94300CB601812F83
:103890000E949F10DBCEC6010E94040C182FF6CFA9
:1038A000B02FBF70BB2E802F807F19F0B29490EFA5
:1038B000B922CC20C9F0BB2069F080E2810F8830AA
:1038C00010F011110BC080910704B82AB0920704C0
:1038D0000E94D514812F0E94561616C080910804AC
:1038E000B82AB0920804F4CF812F0E941D16BB2085
:1038F00059F080E2810F883010F0111135C08B2D06
:103900000E94C60B0E94D51498E0891A9108A4E081
:103910008A16910410F40E94CA07812F902F0E94EA
:103920005F0C811109C21092920110929101AA209C
:10393000B1F08091E60180FD12C0D70112961C9271
:103940008595859585950E94CB15C7010E944618DF
:103950008091E6018595859585950E94A31560E087
:10396000C7010E942F11E9CC8B2D0E94BE0BCACF3C
:10397000E02FEF70BE2E802F807F803219F0B2943E
:1039800080EFB822112321F1113009F46DC0CC2051
:1039900009F476C0DD2009F446C020E0D7014C913F
:1039A00011965C91119712966C91129713967C91D7
:1039B000139714968C910E9406118091260481FD24
:1039C00089CFF701858180FF85CF8F7085832BC0DC
:1039D000CC2069F1D11004C08091EA018B2924C068
:1039E000F1E0DF1213C08091EF0182FD8DCF809155
:1039F000EA01B82AB81609F487CF0E948814909378
:103A0000E9018093E801B092EA017ECF809125041C
:103A1000823010F3D812E0CF0E94B30B8091E30103
:103A2000B812B092E3018B2D0E9413166DCFD11006
:103A300006C00E94B30B8B2D0E940C1665CF80919F
:103A4000250421E0D2120BC0823008F45DCF8091B2
:103A500007048B2109F458CF0E94D50BEACF82309E
:103A600040F38D11E6CF50CFCC2029F035E03D1545
:103A700008F44ACFD8CF44E04D1508F445CFDBCF4A
:103A8000DD20C9F28091290490912A04193321F094
:103A900080912704909128040E940E10812F0E948B
:103AA0001D1632CF802F86958695837069F0813000
:103AB00009F02ACF812F902F9370C11002C090E09F
:103AC00080E00E949E0720CF812F902F9370C1101D
:103AD00002C090E080E00E94B40716CF812FCC2076
:103AE00039F00E9467090E9494140E9494140CCF2C
:103AF0000E944C08FACF802F8370A9F5C11004CF23
:103B0000912F929596959770990F990F412F4F701D
:103B1000092E01C0440F0A94EAF7212F207114FFE7
:103B200007C02FE030E001C0220F9A95EAF72095F8
:103B3000902F969596959370923081F0822F842BDA
:103B4000933031F080913D02913029F0242B822373
:103B50000E94EC15D9CE842B822BFACF242B809196
:103B60003D028227F5CF8695CC2011F0802F817001
:103B7000882309F4C9CE912F929596959770990F45
:103B8000990F412F4F70092E01C0440F0A94EAF794
:103B9000212F207114FF07C02FE030E001C0220F59
:103BA0009A95EAF72095902F969596959370923076
:103BB00081F0822F842B933031F08091F504913085
:103BC00029F0242B82230E9494159ECE842B822BD5
:103BD000FACF242B8091F5048227F5CFF02FFF70C8
:103BE000BF2ECC2029F08F2F0E94CB15812F1CCF08
:103BF000812F0E940C168B2D0E94A31585CE123F9B
:103C000009F44AC060F4103F41F1113FE9F1CC20C2
:103C100009F48DC0D1105ECE802F8F713AC0133F52
:103C200009F43FC0143F99F720912504223008F48D
:103C300066C08091E301CC2009F44EC00E94C60BFF
:103C40008091E60187708430C1F50E94CE0B802FF1
:103C50008F710E94A315A12C57CECC2081F024E0B7
:103C60002D1508F451CE202F2F7181E090E001C076
:103C7000880F2A95EAF79091F5048927A4CF35E0BB
:103C80003D1508F441CEEFCF802F8F71CC2009F481
:103C9000B3CF0E94CB1538CE802F8F71CC20C9F3C3
:103CA000ABCF80E0CC2009F48ECF81E0902F9F71C4
:103CB00001C0880F9A95EAF786CF80912504D8161F
:103CC00050F6402F4F71B42E842F0E94CB1563E025
:103CD0008B2D0E94D615BFCF90910704982B9093FF
:103CE0000704D21640F00E94CE0B0E94D50B64E070
:103CF000802F8F71EECF81E00E94AF15ACCFCC202A
:103D000059F0502F5F71B52E852F0E94CB1563E0BF
:103D10008B2D0E94D615F8CD81E00E94AF1581E071
:103D20008D1508F0F1CD82E00E94AF15EDCDD110D8
:103D3000A9CE802F8F7160CFCC2019F0D110F3CD98
:103D4000F6CDD110F0CD20E0F701408151816281A4
:103D5000738184810E9406118091260483FFE3CD44
:103D60008091910190919201029709F0DCCD812F11
:103D70000E941217D8CD0031FFE51F0709F468CB68
:103D800001312FE5120709F0B7C982E062CB063195
:103D90001C4509F054CC80910704982F9A7A209101
:103DA000230420FF04C0482F447409F090E021FF51
:103DB00004C0482F417109F090E022FF04C0482F51
:103DC000487809F090E023FF03C0827209F090E088
:103DD000332309F411CD81E0911101C080E080937B
:103DE000900169E2911165E388E891E00E948407FF
:103DF0000E94D51497CACF92DF92EF92FF920F9351
:103E00001F93CF93DF9380919E01807F31F4809147
:103E10009B01C091E20181110BC0DF91CF911F91F5
:103E20000F91FF90EF90DF90CF9008952196C7708B
:103E30008091A1018C1789F3F0909901E0909A018B
:103E4000C0909C01D0909D01A6016E2D8F2D0E94E7
:103E5000D607D0E08111EACF8E0183E0000F111F59
:103E60008A95E1F7F801EE55FE4F81818E11DECF84
:103E700080818F11DBCF82818111D8CFE380F480E4
:103E8000EC18FD0860E089E991E00E942F11809113
:103E9000210490912204E816F90640F680919E01D3
:103EA0008F70806180939E01F801E955FE4F8081FB
:103EB0008F708061808389E991E00E944618DF91CC
:103EC000CF911F910F91FF90EF90DF90CF900C94C6
:103ED000FA0B5F926F927F928F929F92AF92BF92F6
:103EE000CF92DF92EF92FF920F931F93CF93DF93C6
:103EF000CDB7DEB72D970FB6F894DEBF0FBECDBF9E
:103F00008C0185E0F801DE01199601900D928A95E9
:103F1000E1F7D8011296EC9089E9A82E81E0B82E3D
:103F200080909C0190909D01A40160919A018091E4
:103F300099010E94D6078111CEC1F801C380D480B7
:103F4000F0909B01C601881999094C01FF2009F4E2
:103F50005FC15080618060E0C5010E942F11809197
:103F600021049091220470909E018816990608F011
:103F700020C140919C0150919D01B0909901A09069
:103F80009A01872D807F6A2D09F0BAC08B2D0E947F
:103F9000D607FE2C811139C0D80111968C9111974A
:103FA0008A1133C08C918B1130C020919F013091C8
:103FB000A00116968D919C912817390731F5E110D3
:103FC00024C0872D8F70806180939E0189E991E0E4
:103FD0000E94461880919E01F80185838F2D2D96B1
:103FE0000FB6F894DEBF0FBECDBFDF91CF911F910A
:103FF0000F91FF90EF90DF90CF90BF90AF909F9088
:104000008F907F906F905F90089560E089E991E0D4
:104010000E942F118091210490912204843F9140AD
:10402000F8F0A601662D852D0E94D60781114BC0A0
:1040300081E08E2580FF1DC04E2D662D852D0E94AE
:10404000DB0B8823B1F089E991E00E94461888E0F3
:10405000E9E9F1E0DF011D928A95E9F7F12CBECF85
:1040600060E089E991E00E942F118091260480FD93
:10407000D8CFA601662D852D0E94D607811125C0B7
:1040800081E08E25B82FB170DB2E80FF30C04E2D21
:10409000662D852D0E94DB0BC82E811128C0598604
:1040A0006A8689859A850E94EA10292F22952F70A9
:1040B000903268F0225F2F70223088F0C8010E9491
:1040C0004618CD2C12C080E0B5CF80E0DBCF9F70CA
:1040D00011F0882351F0805E883038F0EFCF9F7068
:1040E000D1F3F8019581907FB1F7FC2C77CFEE20CA
:1040F00009F474CF80919E01816080939E01AECFC0
:104100008B2D0E94D607811124C0D80111968C9165
:1041100011978A111EC08C918B111BC020919F0199
:104120003091A00116968D919C9117972817390709
:1041300081F4E1100EC015967C92C8010E944618C9
:1041400088E0F801A9E9B1E001900D928A95E1F7C4
:1041500045CFC8010E94F810882339F1EE2029F1DB
:1041600080919E018032A0F02091990130919A01B6
:104170003A8329831B82DD82CC828E8380919F01CA
:104180009091A00198878F83CE0101960E944618D6
:1041900088E0F801A9E9B1E001900D928A95E1F774
:1041A0000E94FB1EFF24F39419CFC8010E944618F9
:1041B000F9CF872D807F09F446CF909099018090A8
:1041C0009A0140919C0150919D01682D892D0E947A
:1041D000D6078111BECFF80181818811BACF8081C5
:1041E0008911B7CF20919F013091A00186819781DD
:1041F0002817390709F0ADCFE110ABCF7582C801A0
:104200000E94461888E0D5011D928A95E9F7E6CE0E
:1042100060E089E991E00E942F1180912104909142
:1042200022048816990608F050C0FE2CEE2009F4EE
:10423000BCCFE0909901D0909A0140919C0150919F
:104240009D016D2D8E2D0E94D607811130C0F80181
:1042500081818D112CC080818E1129C020919F01F8
:104260003091A001868197812817390701F560E018
:1042700089E991E00E942F118091260482FD60CF90
:1042800080919E0180FD5CCF982F907F09F458CFDC
:10429000D80115968C931597903F09F44ECF982F1F
:1042A000907F905F8F70892B15968C9346CFC801B5
:1042B0000E94F81081116CCF80919E0181608093E3
:1042C0009E01C8010E94461889CE88E0F50111922E
:1042D0008A95E9F783CEEE2009F467CFC8010E94E2
:1042E000F810F82E882309F460CF88E0F801A9E9D6
:1042F000B1E001900D928A95E1F78091990190913A
:104300009A010E94EA100E94FB1E68CEEF92FF9273
:104310000F931F93CF93DF93CDB7DEB760970FB6A0
:10432000F894DEBF0FBECDBF29873A874B875C87E5
:104330006D877E878F87988BCE0109960E94691FB3
:10434000811136C088E0FE013996DE011196019098
:104350000D928A95E1F7E984FA840C851D85A80100
:104360006F2D8E2D0E94D607811122C0A091A10130
:10437000B0E0CD010196877099272091E2012817BE
:10438000190649F1E982FA821D830C8393E0AA0F92
:10439000BB1F9A95E1F7AE55BE4F98E0FE013196EE
:1043A00001900D929A95E1F78093A1010E94FA0B7A
:1043B0008091E2019091A10189131BC060960FB614
:1043C000F894DEBF0FBECDBFDF91CF911F910F914B
:1043D000FF90EF9008950E94F0151092A1011092A5
:1043E000E20188E0E9E9F1E0DF011D928A95E9F751
:1043F000DFCFB8E08B9FC00111248E559E4F0E94E5
:10440000691F8823D9F28091E20190E001968770BC
:1044100099278093E201CCCFEF92FF920F931F93E5
:10442000CF93DF938091B002882361F0C091AF02F7
:104430008CE0F82E8091B002C81758F01092B002AC
:104440001092AF02DF91CF911F910F91FF90EF90EB
:104450000895EE24E394EC0EE092AF020C2F10E0EE
:10446000CF9DE0011124CF54DD4F4B815C816981E8
:1044700088810E94D60781111BC08E819F81892B64
:1044800021F488859985019651F4288139814A81E2
:104490005B816C817D818E819F810E948621F09E4F
:1044A000F001F19EF00D1124EF54FD4F14821382A0
:1044B000CE2DC0CF109254031092530310921C01C2
:1044C00080915203809351030E940D080C940C229A
:1044D0003F924F925F926F927F928F929F92AF9294
:1044E000BF92CF92DF92EF92FF920F931F93CF93E1
:1044F000DF93C091510397E0892E01E010E02CE09A
:10450000322E3EEF932E44244394809152038C1319
:1045100015C00E940C22DF91CF911F910F91FF9047
:10452000EF90DF90CF90BF90AF909F908F907F9053
:104530006F905F904F903F900C940D08D0E0FE017B
:10454000EE0FFF1FE75BFC4F80819181889ED001B9
:10455000899EB00D1124AF5EBC4F14962C91149718
:10456000211157C05090B002E1EBF2E030E020E0C2
:10457000712C5D01251508F04AC0E284F384D50151
:10458000CD90DC906FEF7FEF612C462D50E0DA018B
:10459000AA0FBB1FAC0DBD1D0D90BC91A02D109797
:1045A00031F0EA16FB0609F4BA016394EECF6F3FCF
:1045B0007607A1F1D80102C0AA0FBB1F6A95E2F7E6
:1045C0007A2AB80102C0660F771F6A94E2F7AB013E
:1045D0004150510974161506F9F4329EF001339ECC
:1045E000F00D1124EF54FD4F889ED001899EB00D2F
:1045F0001124AF5EBC4F12962D913C9113973783D7
:104600002683908291829187808715964C920E9492
:10461000E1072196C37079CF148213822F5F3F4F39
:104620003C96A8CFBF92CF92DF92EF92FF920F936A
:104630001F93CF93DF9300D000D0CDB7DEB71A829F
:1046400019821C821B829DE5C92E91E0D92E10E0B3
:1046500000E0EE24E394F12CF60181916F018F3F8D
:1046600009F44CC0F894E82FE295EF70F0E021A136
:104670008F70A70102C0440F551F8A95E2F7CA0147
:10468000922F982B91A392A18095892382A378944D
:1046900000C0E1E6F1E030E020E0B12C41914F3F75
:1046A00009F473C0A42FA295AF70B0E090968C91DE
:1046B00090E04F7002C0959587954A95E2F780FD8E
:1046C00064C08E2D022E01C0880F0A94EAF7B82A22
:1046D0002F5F3F4F2430310509F7F6013197808174
:1046E0008F3F11F00E94D10950EA5A95F1F7E1E0AD
:1046F000F0E0EC0FFD1FE00FF11FB0820F5F1F4FC6
:104700000430110509F0A8CF44E050E0BE016F5F0E
:104710007F4F80EF91E00E94A2329C01BB24B394B2
:10472000892B09F4B12C232B91F189819A81AB81DA
:10473000BC818093F0019093F101A093F201B093BA
:10474000F30181E08093ED010E9488149093EC01C5
:104750008093EB018091EB019091EC010E94791420
:104760000597C8F08091F00180932A028091F101B1
:1047700080932B028091F20180932C028091F301AF
:1047800080932D021092ED0106C080E0A0CF8091B1
:10479000ED018111DFCF809100018F3F09F072C0E0
:1047A00080911C01811172C08091240480FF1CC083
:1047B00080911F0182FF18C00E948814BC01809163
:1047C0002D0490912E049B01281B390B80911D0113
:1047D00090911E012817390738F041E080912B0491
:1047E00090912C040E94B2168B2D0F900F900F9079
:1047F0000F90DF91CF911F910F91FF90EF90DF907D
:10480000CF90BF900895E29EF001E39EF00D112439
:10481000E95AFC4FC288D388C114D10421F4C09056
:104820002104D0902204E29E8001E39E100D112409
:10483000095A1C4FF80186818823C1F08585968529
:104840000E947914C816D90688F4FE9C60011124D0
:10485000F8018189811105C0C601895A9C4F0E94C7
:104860001115C601835A9C4F0E943215F3942F2DC7
:1048700030E080910001082E000C990B82179307FD
:1048800014F68ECFF12C86E1E82EF1CF8091530300
:1048900090915403009709F487CF0E9479142091D6
:1048A000AD023091AE022817390708F07DCF909104
:1048B000510380915203981759F00E946822109278
:1048C000AE021092AD0210925403109253036CCFBB
:1048D0000E940C2210925403109253030E940D0860
:1048E00063CF2F923F924F925F926F927F928F92FF
:1048F0009F92AF92BF92CF92DF92EF92FF920F936F
:104900001F93CF93DF93CDB7DEB769970FB6F894B7
:10491000DEBF0FBECDBF242F498B952F5A8B6B8BDB
:104920007C8B8D8B4C895D89692F822F0E94D607E5
:10493000811109C08091910190919201019690930B
:104940009201809391018B898111109208041E8637
:104950001F86188A85E0FE017196DE011996019086
:104960000D928A95E1F780910B0490910C04892BAC
:10497000C1F00E9488142091E4013091E501821B6E
:10498000930B20910B0430910C048217930720F0B5
:104990008091E60182FFF2C10E94BA1481110E9447
:1049A000B30B4C855D856A8589850E94D607811188
:1049B00011C061E0CE0109960E942F116C018B8518
:1049C00027EFC2162CE5D20681F4882321F181E07D
:1049D00080931C0129853A854B855C856D857E8594
:1049E0008F8598890E948621C5C038EFC3163CE5A3
:1049F000D30629F4882379F00E945A22EBCF49EF9D
:104A0000C4164CE5D40639F4882329F080911C01A2
:104A10008111F2CFDCCF01E113E0512CB12CA12C9C
:104A200022242394312C2EEF422EF8014081518113
:104A300088248A94982C20E0822F90E0FC01EE0FCD
:104A4000FF1FE40FF51F608171816115710531F061
:104A5000C616D70609F44C012F5FEECFF12CFFEFFD
:104A60008F169F0609F448C0F8014481F0901C019C
:104A70008F2D411180E0F82FF170FF2EF801E580B5
:104A800086819B85992309F40CC1FF2009F409C193
:104A900060901F0470902004E11012C0A10101C0B9
:104AA000440F8A94EAF7842B86838091AD0290911B
:104AB000AE028615970520F47092AE026092AD02A8
:104AC000C10102C0880F991F2A95E2F70197F801EA
:104AD00026812817190681F480915303909154037D
:104AE000009709F460C00E9479146816790608F0EE
:104AF0005AC021E0F80124835F28FFEFAF1ABF0AF4
:104B0000095F1F4F28E0A216B10409F08ECF8B85F4
:104B1000882309F41EC1552009F41BC10E94881482
:104B200090935403809353038091B002883010F522
:104B300091E0980F9093B00298E0FE013996DE0163
:104B4000119601900D929A95E1F73CE0839FC00188
:104B500011248F549D4F28E0FE013196DC01019015
:104B60000D922A95E1F72FEF3FEFFC013187208767
:104B7000D386C28669960FB6F894DEBF0FBECDBF4E
:104B8000DF91CF911F910F91FF90EF90DF90CF9029
:104B9000BF90AF909F908F907F906F905F904F905D
:104BA0003F902F9008958091510350915203982F78
:104BB000F0E0E0E0851314C090935103E017F10793
:104BC00009F49ACF90E0FC01EE0FFF1FE75BFC4F6A
:104BD000B182A082019683709927809352038CCF73
:104BE000682E712CF301EE0FFF1FE75BFC4F208155
:104BF000318147E0429FD001439FB00D1124AF5E49
:104C0000BC4F6D917C911197798F688F40E020E0C7
:104C100030E0E32FF0E0EE0FFF1F688D798DE60F97
:104C2000F71F8080918081149104E1F0F8010190D8
:104C3000F081E02DFF8BEE8B20E005C086169706F5
:104C400009F44F2D2F5FE22FF0E0EE0FFF1F6E896A
:104C50007F89E60FF71F608171816115710571F71A
:104C60003F5FD7CF4423D1F0F801231708F0FD01AF
:104C700021E024830E171F0721F490935103F42E93
:104C80003BCF891305C0AE17BF0711F49F5F937028
:104C900093012F5F3F4F822F83708CCFF0E0E0E0D5
:104CA000F7CF90E0E1101FC0B10102C0660F771F7F
:104CB0002A95E2F79B01215031092817390731F471
:104CC000442309F444C0C5010E94E107C10101C0A9
:104CD000880F8A94EAF7982F9095F80186818923A6
:104CE0008683FE2C09CFAC01082C02C05595479550
:104CF0000A94E2F79C012150310982239323892BE6
:104D000011F540FF20C0F80182819381892BC1F009
:104D10001B821C821D821E8249824A820E94881444
:104D20008160582F9D838C83F801828193818F83CA
:104D3000988729813A814B816D817E810E948621ED
:104D4000F8011582C3CFF42FF170EF2EBFCFEF2CF7
:104D5000BDCF9091510380915203981731F00E947A
:104D60006822552009F436CE05CF0E940C221092FD
:104D70005403109253030E940D08F3CF82E00E9467
:104D8000AF150ACE0F931F93CF93DF9300D000D0BF
:104D90000F92CDB7DEB78C019093A1028093A00251
:104DA000011580E2180720F5802F0E941D16C8010A
:104DB0000E94B10C9801205E31092830310510F0B5
:104DC000012B59F40F900F900F900F900F90DF91DF
:104DD000CF911F910F910C940C160F900F900F9084
:104DE0000F900F90DF91CF911F910F910C94FB15B5
:104DF0008EEF89838A831B820E9488148160782FBA
:104E00009D838C8349815A816B818D810F900F9096
:104E10000F900F900F90DF91CF911F910F910C94F5
:104E200071240F931F93CF93DF938C01EB0166E402
:104E300072E08C2F0E942813892BA1F48091270403
:104E4000909128040E940E10DD27C25CDD4F8881FE
:104E5000F80110821882833009F148F4813059F04A
:104E6000823081F0DF91CF911F910F9108958430AE
:104E7000D1F08530B9F780914602909147020097B2
:104E800089F306C08091480290914902009799F3F6
:104E9000DF91CF911F910F910C94C22680914A020D
:104EA00090914B02F3CF80914C0290914D0200976C
:104EB00079F7209146023091470280914802909103
:104EC000490221153105D9F2009711F7C901E0CF48
:104ED0000F931F93CF93DF9300D000D00F92CDB7E5
:104EE000DEB78C019093A1028093A002011580E2AD
:104EF0001807E8F4C8010E94B10C9801205E31093E
:104F00002830310518F00115110571F40E941316AF
:104F1000802F0F900F900F900F900F90DF91CF91F7
:104F20001F910F910C9456160E940216F1CF8EEF2E
:104F300089838A8381E08B830E9488148160782F23
:104F40009D838C8349815A816B818D810F900F9055
:104F50000F900F900F90DF91CF911F910F910C94B4
:104F60007124AF92BF92CF92DF92EF92FF920F9394
:104F70001F93CF93DF93182F062FC090F5048091D5
:104F80003D02C82AC7E0D0E0D12CF12CE12CD7019A
:104F9000C6010C2E04C0B695A795979587950A94DF
:104FA000D2F780FF22C0402F612F8C2F0E9440102B
:104FB0005C0181E0A816B104C1F0C5010E94682718
:104FC0008FE39CE90197F1F700C00000C5010E9442
:104FD000C22681E0DF91CF911F910F91FF90EF905A
:104FE000DF90CF90BF90AF900895219780F6402F2B
:104FF000612F80E00E944010D82FC92F0E9468279F
:105000008FE39CE90197F1F700C000008D2F9C2FE2
:10501000DECFCF93DF93D82FC92F0E9468278091CE
:105020002704909128040E940E108D2F9C2FDF9151
:10503000CF910C94C2260F931F93CF93DF938C01D3
:10504000862F66E472E00E942813892BC9F4C09170
:105050004602D0914702209799F0F8018081833071
:1050600069F4CE010E940928CE010E940928CE01D0
:10507000DF91CF911F910F910C9409288430B8F7DC
:10508000DF91CF911F910F9108950F931F93CF93AD
:10509000DF938C01EB0166E472E08C2F0E942813F1
:1050A000892B09F064C0FE01FF27D8018C91E25CD6
:1050B000FD4F8130D9F419969C911997992311F0DD
:1050C00080830CC01A969C919923D1F382E080834F
:1050D00080914802909149020097D9F4809146024C
:1050E00090914702009709F442C013C08230E9F55D
:1050F00019968C91199781112DC01A968C91811156
:105100000EC083E0808380914A0290914B02009709
:1051100019F1DF91CF911F910F910C94682784E0D2
:10512000808380914C0290914D02009791F780917D
:105130004602909147020097F9F00E940928809159
:10514000480290914902009721F780914602909180
:105150004702DFCF85E0808380914602909147022D
:10516000009729F00E940928F0CF86E08083DF9124
:10517000CF911F910F91089580914802909149021B
:10518000B1CF1F921FB61F9211248F939F93AF939D
:10519000BF9380913604811113C0809137049091A0
:1051A0003804A0913904B0913A044196A11DB11D73
:1051B0008093370490933804A0933904B0933A0451
:1051C000BF91AF919F918F911F901FBE1F90189517
:1051D000CDB7DEB767970FB6F894DEBF0FBECDBF71
:1051E0000E94881490932F0280932E0280E890E012
:1051F0000FB6F89480936100909361000FBE8FEC1E
:1052000099E090938701809386010E943C130E944D
:1052100092130E941A10809169008860809369003F
:10522000E99A8BE480930D078093420780931907D6
:105230008AE580930C078093410780931807539A5F
:1052400080E0815009F066C15398789482E084BD73
:1052500093E095BD9AEF97BD80936E000E943D113B
:10526000811102C00E94191380E60E94D10981E6D3
:105270000E94D10982E60E94D10983E60E94D109E9
:1052800080E30E94D10987E90E94D10986E90E9442
:10529000D10985E90E94D1091092F00110922A02E9
:1052A0001092F10110922B021092F20110922C0236
:1052B0001092F30110922D0290E080E00E94D7320C
:1052C0008A3E9E4F21F40E943D11811102C00E942E
:1052D000EB1382E090E00E94CF32809323020E9481
:1052E00056119093EF018093EE010E941223EFE399
:1052F000FCE93197F1F700C000000E941223809171
:105300002A0280FF08C06FEF7FEF90E080E00E94EC
:10531000FB320E944F0783E090E00E94CF320E9450
:10532000EC151092200280E88093F6040E94473129
:105330006DE070E08BE291E00E94950D892B09F001
:1053400043C08091200263E070E081FDEBC088E201
:1053500091E00E94950D892BB9F56DE070E088E130
:1053600091E00E94950D892B79F50E946407688B66
:10537000798B8A8B9B8BDC01CB01805A9541AF4F97
:10538000BF4F8093A4029093A502A093A602B0936E
:10539000A702E9EFF4E080E092E0DF019C011D92BA
:1053A00021503040E1F7F0930007E093FF068FEFC4
:1053B0009FEF9093F8048093F70481E08093A90213
:1053C0008093A802109221026DE771E02CEF822EEB
:1053D00021E0922E25E731E0E9E7F1E041E050E0FD
:1053E0001191812F82958F7090E0DC019196FC9055
:1053F00091971F70E12E6A0101C0CC0C1A95EAF753
:105400000C2D00950F2191960C93919792961C91DB
:1054100092971C2992961C93D901FD909D010F2D06
:1054200002950F7010E0D8019196BC90BF2DBF700F
:10543000FB2E6A0101C0CC0CBA95EAF7DC2CD094A3
:10544000DB20D8019196DC9291979296DC9092970E
:10545000DC289296DC92DC0190968C9190E002C060
:1054600095958795EA94E2F78170D80190960C9112
:1054700010E002C015950795FA94E2F790E000FD60
:1054800092E0892BD4018D934D016E177F0709F0AF
:10549000A7CF81E091E09093320480933104BFEF75
:1054A000E0E7F2E0B150E040F040E1F700C000007A
:1054B0009E012F5F3F4F790166246394712C809188
:1054C000270710913504882381F1109227070E9445
:1054D000881490932F0280932E02112309F4CEC4D6
:1054E000109235040E94F0150E94CA07809135047D
:1054F000882309F4C3C40E94880C0E941223EAE2A4
:10550000F2E0819181115DC44EE252E04E175F07D7
:10551000C1F7D5CFA895AFE9BFE01197F1F700C06B
:1055200000008FCE85E291E014CF1111E4CF80917D
:105530002E0290912F020E947914069708F49EC4BF
:1055400081E0809335040E94880CD5CF9F5FDD0CED
:10555000943009F0B5C40F5F1F4F0430110509F0F6
:10556000A4C48FEF8B878C871D860E94881481606E
:10557000782F9F878E874B855C856D858F850E94F0
:105580007124BBC40E94E20C0F5F1F4FF80184918D
:1055900048C58F5F5CC5880F880F880F80930D0109
:1055A00010921001895F80930E0183E080931101B6
:1055B00072C5E0E0F2E080E2DF011D928A95E9F732
:1055C000E1E8F1E0FD8BEC8B0DE711E0AC89BD89E2
:1055D0002D91BD8BAC8BF80121908F01240E352EBF
:1055E000311CC10187509B4F1C01E22FF0E0E050BD
:1055F000FE4F30E020E077E0972E921AC62C022E64
:1056000001C0CC0C0A94EAF7510190E0D5018D91CC
:105610005D018C21692D691B6770862E062E000C9A
:10562000770BB82F01C0BB0F8A94EAF78B2E7195C8
:10563000619571096770772701C086956A95EAF7C9
:10564000882A8081882A80829F5F9830F9F62F5FB0
:105650003F4F31962830310571F6E5E8F1E02C89AD
:105660003D89E217F30709F0B1CF04E610E020E22C
:1056700030E040E052E02AC540911B019AE0499F8A
:10568000A00111244217530708F097C58F5F80933C
:10569000310202C08F3FD1F7CC2059F00E94080997
:1056A0009FEF1C140CF491E0899F802D11248093AE
:1056B0003902DD2059F00E9408099FEF1D140CF4F7
:1056C00091E0899F802D112480933A023091390214
:1056D000332309F472C520913A02222309F46DC5DF
:1056E00045EB3403C0011124992359F090933902FA
:1056F00055EB250390011124332339F030933A02FE
:105700005CC581E080933902F3CF81E080933A0257
:1057100054C5409117019AE0499FA00111244217F6
:10572000530708F05FC58F5F8093300202C08F3F40
:10573000D1F7002359F00E94CF089FEF10160CF408
:1057400091E0899F802D112480933B02112359F011
:105750000E94CF089FEF11160CF491E0899F802DD5
:10576000112480933C0230913B02332309F43AC563
:1057700020913C02222309F435C545EB3403C001D6
:105780001124992359F090933B0255EB2503900186
:105790001124332339F030933C0224C581E08093F7
:1057A0003B02F3CF81E080933C021CC5E43150F40E
:1057B000EE2359F0E150E33140F4F0E0ED5BFC4CB6
:1057C0000C948C32EE3F09F458C58FEF2AC3109227
:1057D000C40489E08093C50415C08091C40482305C
:1057E00009F441C3833089F0813079F70E9464075E
:1057F0000E9492326093C5047093C6048093C704DC
:105800009093C80403EC14E0BBC280911201909104
:105810001301892BB9F380912A028093C5048091EA
:105820002B028093C60480912C028093C704809140
:105830002D028093C804E6CF8091C404823029F6FB
:105840008091C5049091C604A091C704B091C8048A
:10585000888B998BAA8BBB8BBC01CD010E949232A5
:1058600086E290E00E94DD32CDCF4091C604609187
:10587000C5048091C4040E946F1098278927982737
:105880009093C8048093C704BDCF2091C704309182
:10589000C8043227232732274091C6046091C504EB
:1058A0008091C4040E940B12ADCF0E947412AACF43
:1058B00080E18093C404A6CF82E08093C40487E58E
:1058C00089CF8091C604282F30E08D3108F09ACF1F
:1058D0000091C4041091C50410270127102763EC20
:1058E000C62E64E0D62ED901AD53BB4F5D01C80171
:1058F00087559E4FAC14BD0409F484CF0735B2E040
:105900001B0750F40E94CF32F60184830F5F1F4FB4
:10591000BFEFCB1ADB0AEBCFD60114961C92F6CF61
:105920008091120190911301892B09F46BCF809122
:10593000C604C82ED12C8D3108F064CF0091C40468
:105940001091C50410270127102753ECA52E54E011
:10595000B52EC00ED11EC80187559E4FC016D10668
:1059600009F450CF0735E2E01E0728F4D50114965C
:105970006C910E94DD32BFEFAB1ABB0A0F5F1F4F65
:10598000EACF0E94C4113ECF84E093CF8091C60439
:10599000282F30E08D3108F035CF0091C4041091EC
:1059A000C50410270127102743ECC42E44E0D42E51
:1059B000F901ED53FB4F5F01C8018796AC14BD049C
:1059C00009F420CF0038110558F40E94CF32D601D7
:1059D00014968C930F5F1F4FFFEFCF1ADF0AECCFA7
:1059E000F6011482F7CF8091C604C82ED12C8D31D8
:1059F00008F008CF0091C4041091C50410270127B6
:105A000010270038110508F0FDCE80E890E0801BDB
:105A1000910B8C159D0508F4F5CE33ECA32E34E0E4
:105A2000B32EC00ED11EC8018796C016D10609F448
:105A3000E9CE0038110528F4D50114966C910E9426
:105A4000DD32BFEFAB1ABB0A0F5F1F4FECCF88E010
:105A5000E6E2F1E0D70101900D928A95E1F784E149
:105A6000EFECF4E011928A95E9F784E08093C304A7
:105A70001092C4041092C5041092C60488E0F70185
:105A8000A7ECB4E001900D928A95E1F7BBCE10929D
:105A9000C30481E08093C4041092C5041092C6042C
:105AA000B1CE8091C604682F70E0762F6627809172
:105AB000C504860F972F911D092E000CAA0BBB0B56
:105AC00025E0880F991FAA1FBB1F2A95D1F7AC01AB
:105AD000BD01405E5F4F6F4F7F4F803EFFEF9F07DE
