:100000000C94DF040C9426050C9441050C942605F1
:100010000C9426050C9426050C94A5250C94260515
:100020000C9426050C9426050C9426050C942605A4
:100030000C9426050C9426050C947D110C94260531
:100040000C9426050C9426050C9426050C94260584
:100050000C9426050C9426050C9426050C94260574
:100060000C9426050C9426050000000000000000FA
:100070000000000000000000000000000000000080
:100080000000000000000000000000007E0F00D40F
:10009000FFFFFFC700000078000000000000000024
:1000A0002A2B2800000000000000000000000000D3
:1000B00000000029000000002C1E342021222434DE
:1000C0002627252E362D3738271E1F2021222324B0
:1000D00025263333362E37381F0405060708090A4C
:1000E0000B0C0D0E0F101112131415161718191AE8
:1000F0001B1C1D2F3130232D350405060708090A66
:100100000B0C0D0E0F101112131415161718191AC7
:100110001B1C1D2F3130354C5F0060006100540006
:100120005C005D005E00550059005A005B005600FF
:100130006200630067005700010001000100010038
:1001400001000100010001000100010001000100A7
:100150000100010001000100010001000100010097
:100160000100010001000100010001000100010087
:100170000100010001000100010001000100010077
:100180000100010001000100010001000100010067
:10019000010001000100010000AF00DA0281FFD977
:1001A000F1DB20A4A62EAF00A0C000A1C800AED5F0
:1001B00080A81FD300408D142000506C6169642D0D
:1001C000506164202F2F2F2F2F2F2F2F2F2F2F00F5
:1001D00000AEFD377A585A000004E6D6B446020055
:1001E000210116000000742FE5A3E001D200C45DD8
:1001F000003D8889C65436C3174FE4E46873BBAA30
:100200004484EA5987532642E1931675ABB9749F2B
:10021000B2877F1F754A735F0A6CEFB0447C4DDC78
:100220003EA8F465F96C67EF3EEAA1E13795A05866
:10023000C29550537312C130201B136E73957C0D01
:10024000818EBD7833E1584755ABF9340EEC24C8A4
:10025000224040291CAED26B136F07A01FBD7D9BAF
:1002600064111AC027EACFF1E28F180EFC3561BF86
:100270005996A23C6C55D221DDE805F99074A2AAEA
:1002800021CB871019E509222F159BB423F5F94FCF
:10029000A5D44D11BFAEEB3B7C36E2C964A7C5BE09
:1002A0007AA734E84894F3B3EB894C1E5146CF1F2C
:1002B00012F52C490000793C1C2EA8A29F81000158
:1002C000E001D3030000C14ED6DEB1C467FB0200DB
:1002D00000000004595A05010902A1018502090123
:1002E000A1000509190129051500250195057501CC
:1002F00081029501750381030501093009311581DA
:10030000257F95027508810609381581257F95019D
:1003100075088106050C0A38021581257F9501753F
:10032000088106C0C005010980A101850319012AC1
:10033000B700150126B700950175108100C0050CA6
:100340000901A101850419012AA002150126A002B4
:10035000950175108100C00660FF0961A101096265
:10036000150026FF009520750881020963150026F7
:10037000FF00952075089102C005010906A101053D
:100380000719E029E71500250195087501810295F7
:1003900001750881030507190029FF150026FF00D4
:1003A000950675088100050819012905950575014F
:1003B0009102950175039103C01C037600690061E9
:1003C000006C003A006600360034006300320062C0
:1003D000003300630000001E0350006C00610069E0
:1003E0000064002D00500061006400200052006590
:1003F0000076003300000014034B006500790063B1
:1004000000610070007300730073000000040309B2
:100410000409025B00030100A0320904000001038B
:1004200001010009210101000122400007058103AB
:100430000800010904010002030000000921010174
:1004400000012222000705840308000107050403B8
:100450000800010904020001030000000921010154
:100460000001228100070583030800011201100129
:1004700000000008837950500300010203010000CE
:10048000000000003E5B4F5B3E003E6B4F6B3E004A
:100490001C3E7C3E1C00183C7E3C18001C577D57BF
:1004A0001C001C5E7F5E1C0000183C180000FFE76B
:1004B000C3E7FF00001824180000FFE7DBE7FF0098
:1004C00030483A060E00262979292600407F050586
:1004D0000700407F05253F005A3CE73C5A007F3E1D
:1004E0001C1C0800081C1C3E7F0014227F221400E4
:1004F0005F5F005F5F0006097F017F0000668995EE
:100500006A0060606060600094A2FFA2940008042A
:100510007E04080010207E20100008082A1C080015
:10052000081C2A0808001E10101010000C1E0C1EBB
:100530000C0030383E383000060E3E0E060000003B
:100540000000000000005F0000000007000700003E
:10055000147F147F1400242A7F2A120023130864B6
:100560006200364956205000000807030000001CB6
:10057000224100000041221C00002A1C7F1C2A008E
:1005800008083E08080000807030000008080808CD
:1005900008000000606000002010080402003E51C6
:1005A00049453E0000427F400000724949494600EB
:1005B0002141494D33001814127F1000274545454D
:1005C00039003C4A494931004121110907003649A7
:1005D00049493600464949291E0000001400000020
:1005E00000403400000000081422410014141414C8
:1005F00014000041221408000201590906003E417E
:100600005D594E007C1211127C007F494949360029
:100610003E41414122007F4141413E007F494949DD
:1006200041007F09090901003E41415173007F08E3
:1006300008087F0000417F4100002040413F010049
:100640007F08142241007F40404040007F021C028E
:100650007F007F0408107F003E4141413E007F093A
:10066000090906003E4151215E007F091929460013
:1006700026494949320003017F0103003F404040C1
:100680003F001F2040201F003F4038403F006314C0
:10069000081463000304780403006159494D4300C2
:1006A000007F414141000204081020000041414107
:1006B0007F0004020102040040404040400000036B
:1006C000070800002054547840007F284444380034
:1006D000384444442800384444287F003854545453
:1006E000180000087E09020018A4A49C78007F0866
:1006F0000404780000447D4000002040403D00009C
:100700007F102844000000417F4000007C047804F2
:1007100078007C0804047800384444443800FC180D
:100720002424180018242418FC007C080404080061
:1007300048545454240004043F4424003C404020C6
:100740007C001C2040201C003C4030403C004428E1
:10075000102844004C9090907C004464544C440019
:100760000008364100000000770000000041360814
:1007700000000201020402003C2623263C00000087
:1007800000000000404040F0F8F8FF38FFF8F83F64
:10079000F8F8FF38FFF8F8F0404040000000000093
:1007A0000080C0C0C0800000C0C08000000080C0C9
:1007B000C000C0C0000080C0C00000000000C0C079
:1007C000C0C0C000C0C00000000000000000000069
:1007D0000000000000000000000000000000000019
:1007E0000000000000000000000000000000000009
:1007F00000000000000000000000000000C0F0F851
:10080000FC3E1E06010000007F4141417F007F4108
:1008100041417F000080C0E07E5B4F5BFEC0000076
:10082000C000DCD7DEDEDED7DC00C0000000000048
:1008300000000000000000000000000000000000B8
:1008400000000000494949FFFFFFFFE0DFBFBF0094
:10085000BFBFDFE0FFFFFFFF494949000000000084
:100860001F3F6060E0BF1F007F7F071E381E077FAD
:100870007F007F7F0E1F3B716000000000007F7FC4
:100880000C0C0C007E7E007F7E0303007F7E030342
:100890007E7E03037F7E000F3E703C063C703E0F61
:1008A00000327B49493F7E007F7E0303001E3F6983
:1008B000696F2600000000000000000000030F1F09
:1008C0003F3C7870600000007F4141417F007F41E4
:1008D00041417F00307B7F7830202030787F3B00A3
:1008E00003000F7F0F0F0F7F0F00030000000000B9
:1008F00000000000000000000000000000000000F8
:1009000000000000010101070F0F7F0F7F0F0F7E16
:100910000F0F7F0F7F0F0F07010101000000000084
:1009200000000000000101000000000000000000C5
:1009300000000000000000000000000000000000B7
:1009400000000000000000000000000000000000A7
:100950000000000000000000000000000000000097
:100960000000000000000000000000000000000087
:100970000000000000000000000000000000000077
:100980000000000000000000000000000000000067
:100990000000000000000000000000000000000057
:1009A0000000000000000000000000000000000047
:1009B0000000000000000000000000000000112402
:1009C0001FBECFEFD8E0DEBFCDBF04B603FE27C009
:1009D00080914B0590914C05A0914D05B0914E052D
:1009E0008730904BA740B04BD1F410924B0510923A
:1009F0004C0510924D0510924E0514BE84B7877FAA
:100A000084BF0FB6F894A8958091600088618093A8
:100A10006000109260000FBEE0E0F8E3099525E069
:100A2000A6E7B1E001C01D92AB34B207E1F711E0D7
:100A3000A0E0B1E0EAE4FFE402C005900D92A63721
:100A4000B107D9F70E94D01D0C945F270C940000C9
:100A5000A82FB92F80E090E041E050EA609530E0A7
:100A600009C02D9182279795879510F084279527A7
:100A7000305EC8F36F5FA8F30895EADF8D939D930E
:100A80000895CF93CFB7CF93DF93C3954B9BE9F7EF
:100A90004B9B10C04B9B0EC04B9B0CC04B9B0AC08A
:100AA0004B9B08C04B9B06C0C0912505C395C093C6
:100AB00025058EC06F93C0912405DD27C75DDA4FF1
:100AC0002F9365E54B9B03C02F916F91E1CF0F935F
:100AD0001F934F9320E040E15F9309B10C7003FB3B
:100AE00027F93F9350E03BE039C01C7040642F77FA
:100AF000012F5F5F1EC0406819B11C702F775250E4
:100B00001FC0406409B12F770C70D1F15F5F00C046
:100B100023C0406219B12F771C7091F15F5F00C054
:100B200025C00C701027515012F45D5F0000115069
:100B300027952C3F19B1C8F61C7001270150279545
:100B40002C3FC8F64227499309B10C7010274F7308
:100B5000115027952C3FA8F64695469519B11C7063
:100B600079F00127015027952C3F98F66B5A60F3D6
:100B7000315009B1B0F600C012E01CBB00271CC008
:100B80003B503195C31BD04012E01CBB0881033C95
:100B900021F10B3411F1209122051981110F12134B
:100BA000EDCF4A81441F093679F10D3211F0013E33
:100BB00029F74F7009F0042F009328053F915F91AA
:100BC0004F911F910F912F916F91CCB3C1FD5DCFCC
:100BD000DF91CF91CFBFCF91189520912805222387
:100BE00069F310912605112309F049C034300AF445
:100BF00048C03093260520932305109124053BE03F
:100C0000311B309324053DC0009126050130BCF511
:100C10000AE54F7049F43091120134FD33C000935E
:100C20001201CFEFD4E032C0433059F0443091F09C
:100C300030910A0534FD26C000930A05CBE0D5E0CB
:100C400025C030913F0534FD1DC000933F05C0E431
:100C5000D5E01CC03091160534FD14C00093160574
:100C6000C7E1D5E013C0052710E000C000000BB9B4
:100C70001AC0052710E0221F1DC010E021C04AE560
:100C800002C032ED432FC4E1D0E032E01AB11C6063
:100C90005B9A0BB11AB95CE020E865E320FF0527F9
:100CA0000BB9279517951C3FF0F66695B8F7B1F785
:100CB00020FF05270BB9279517951C3FD0F62795E0
:100CC000179517FF052700001C3F0BB9B0F62991B7
:100CD0003A9519F7037F10912705110FC651D0409F
:100CE0000BB911F01093220512E01CBB08601AB179
:100CF000137F402F437F54E05A95F1F70BB91AB98F
:100D00004BB95CCFFC018381833081F130F48130B9
:100D1000E9F0823019F180E00895813209F44EC083
:100D20008232C9F7248135812130310509F45BC055
:100D30002230310509F45EC0232B69F789E793E07F
:100D40009093CC028093CB0280E408958CE694E0EB
:100D50009093CC028093CB0282E1089581E194E0EC
:100D60009093CC028093CB028BE5089582818230F0
:100D7000E9F050F4811112C08DE094E09093CC0220
:100D80008093CB0284E00895833029F689EB93E0C9
:100D90009093CC028093CB028CE1089587EF93E08F
:100DA0009093CC028093CB0284E1089587ED93E089
:100DB0009093CC028093CB028EE1089582818130A2
:100DC00061F0823069F08111A6CF83E294E09093C4
:100DD000CC028093CB0289E008958CE394E0F7CFB6
:100DE0008CE594E0F4CF27E533E03093CC022093F8
:100DF000CB02089586ED92E09093CC028093CB02D3
:100E000081E808958091C602089580E0089588E100
:100E100098E00FB6F894A895809360000FBE909369
:100E20006000A895F894D8E0CEEF28E3299320E05D
:100E3000299314BEFFCF08959C014FB7F894809179
:100E4000D7019091D801A091D901B091DA014FBF9B
:100E5000821B930B0895CF93DF9300D000D0CDB7C2
:100E6000DEB78FB7F8942091D7013091D801409127
:100E7000D9015091DA0129833A834B835C838FBF78
:100E800069817A818B819C810F900F900F900F90D8
:100E9000DF91CF9108958091D10181111092D101FC
:100EA00008958091D0019091CF01892B9091CE012E
:100EB000892B809378019091D101992391F0892B0E
:100EC0008093780120E08AE791E0FC01308101966F
:100ED00031112F5F31E080389307B9F721110E945B
:100EE0004B07E091E101F091E201309731F002808F
:100EF000F381E02D88E791E009940895EAE7F1E0B5
:100F00009191891303C0DF0111971C9291E0E038A1
:100F1000F907B1F70895AAE7B1E0EFEF90E02D915E
:100F2000821751F0EF3F19F4211101C0E92F9F5FA3
:100F30009630A9F7EF3F09F408950E2E000CFF0B31
:100F4000E858FE4F82830895E92FEE0FEE0FE80F69
:100F50009E2F9770E695E695E69585E0E89FF0016F
:100F60001124ED53FE4F50E040E080E0219130E04D
:100F7000092E02C0369527950A94E2F7217033278F
:100F8000042E01C0220F0A94EAF7822B4F5F5F4FB5
:100F90004530510559F70895E92FEE0FEE0FE80F90
:100FA0008E2F877041E001C0440F8A95EAF7E695DD
:100FB000E695E69585E0E89FF0011124ED53FE4F9C
:100FC00030E020E070E05191DF011197CB01022E5B
:100FD00002C0969587950A94E2F7817081958527DE
:100FE000842385278C932F5F3F4F2530310559F798
:100FF00008958091C20190919101981301C00895C4
:101000008F5F8770FACF882341F080959091CF0150
:1010100089238093CF010C9451070895882339F0D8
:101020009091CF01892B8093CF010C9451070895A3
:10103000882341F080959091D00189238093D0013D
:101040000C9451070895882339F09091D001892B91
:101050008093D0010C94510708952091880130911C
:1010600089012817390771F09093890180938801CD
:10107000E091E101F091E201309721F00084F185E7
:10108000E02D099408952091860130918701281759
:10109000390771F09093870180938601E091E10117
:1010A000F091E201309721F00680F781E02D09945C
:1010B0000895E091E101F091E201309721F0019073
:1010C000F081E02D099480E0089590911F02803F07
:1010D00059F48091200287FF0DC0109220029111D7
:1010E0000BC010921A0208C0813F81F48091200247
:1010F00018169CF3992381F080912102909122028D
:10110000892B09F064C0109217020895823F49F4B8
:1011100097FFF0CF10921F02809120028111ECCF37
:10112000E0CF833F19F41916ACF3E4CF20912102EC
:10113000893F29F41216F4F610922102DBCF8A3F80
:1011400019F427FFD7CFF8CF209122028B3F29F443
:1011500027FFD0CF10922202CDCF8C3F19F4121668
:10116000CCF3C8CF843F31F480911E028E7F8093F0
:101170001E02C0CF853F21F480911E028D7FF7CFE4
:10118000863F21F480911E028B7FF1CF873F21F4AF
:1011900080911E02877FEBCF883F21F480911E0251
:1011A0008F7EE5CF8D3F31F480918A018E7F8093D1
:1011B0008A01A0CF8E3F21F480918A018D7FF7CFE5
:1011C0008F3F09F097CF80918A018B7FF0CF0895F0
:1011D00080918A0180FD16C081FD16C082FD16C077
:1011E000809117028823A1F0883280F428E0829F42
:1011F000C001112468E270E00E94DF26862F672B71
:1012000039F0089582E0089584E0089588E0089513
:1012100081E0089580918A0180FD14C081FD14C091
:1012200082FD16C080911A02882381F0843180F4F7
:1012300022E3829FC001112464E170E00E94DF2656
:10124000862F08958CE0089589E1089585E008953A
:1012500082E30895803F31F40E940A0981958093CA
:1012600020020895813F19F40E940A09F8CF823FB5
:1012700031F40E940A09819580931F020895833FEB
:1012800019F40E940A09F8CF893F29F40E94E8085E
:101290008093210208958A3F21F40E94E8088195F5
:1012A000F7CF8B3F31F40E94E808819580932202AA
:1012B00008958C3F19F40E94E808F8CF843F31F478
:1012C00080911E02816080931E020895853F21F463
:1012D00080911E028260F7CF863F21F480911E022A
:1012E0008460F1CF873F21F480911E028860EBCFAC
:1012F000883F21F480911E028061E5CF8D3F31F45B
:1013000080918A01816080938A0108958E3F21F443
:1013100080918A018260F7CF8F3FB9F780918A016F
:101320008460F1CFF894E82FE295EF70F0E041A1EE
:101330008F7021E030E0B90102C0660F771F8A95F7
:10134000E2F7CB01962F9095942391A392A1892B3C
:1013500082A3789408959091DF0192FF06C0282F10
:1013600028712830F9F4877F846093FF06C0282F06
:1013700028712831F1F4877E84612091E00120FFFB
:1013800006C0382F38713830D9F4877F816021FF4B
:1013900006C0282F28712831D1F4877E816194FD01
:1013A000877E0895282F24712430F9F68B7F88607A
:1013B000DCCF282F2471243101F78B7E8861DDCFAB
:1013C000382F3171313019F78E7F8860E0CF282FA8
:1013D0002171213121F78E7E8861E1CF8091350224
:1013E000882321F11092D60188E190E020E40FB625
:1013F000F894A895809360000FBE2093600083B797
:10140000817F846083BF83B7816083BF7894889530
:1014100083B78E7F83BF0FB6F894A8958091600044
:10142000886180936000109260000FBE0895CF9392
:10143000DF939C01FB019A9581159F4160F5E901BD
:10144000CC27D170D901AA27B270B9016627747070
:10145000A9014427587034FF10C080E1CD2B09F456
:1014600080E0AB2B09F08062672B09F08064452B8C
:1014700009F08068DF91CF91099481E0CD2B09F4C8
:1014800080E0AB2B09F08260672B09F08460452B6C
:1014900089F38860EFCFDF91CF910895CF93DF93E9
:1014A000682F81E06A3019F06D3029F480E0DF9117
:1014B000CF910C94CF0A8091FD049091FE0426E018
:1014C000FC01A7EFB4E001900D922A95E1F7603E90
:1014D00008F45AC026E0FC0111922A95E9F7C09160
:1014E000FD04D091FE0446E050E0BE0187EF94E099
:1014F0000E9409279E01275F3240892B41F1C901D3
:1015000045E0969587954A95E1F741E050E0BA01AC
:1015100002C0660F771F8A95E2F7CB016091F50252
:101520007091F602862B972BB9016B5F7F4FE5E038
:1015300076956795EA95E1F702C0440F551F6A95C5
:10154000E2F7842B952B9093F6028093F5022A5FA5
:101550003F4F4091F402642F70E0C9010E94CB26F6
:10156000481B463010F4240F311D211572E0370757
:1015700010F030E020E029503D4F3093FE042093DE
:10158000FD04DF91CF910895F6E06F9FB001112423
:1015900062587B4F46E050E00E940027A0CFCF93D7
:1015A000382FE091FD04F091FE04E75FF2402091B6
:1015B000F402622F70E0CF010E94CB26281B822FFD
:1015C000332361F066E00E94BF26C82FC15010F49B
:1015D000CF91089580E20E944E0AF8CF9F01280F14
:1015E000311D2115324018F080E0F0E0E0E08E0F70
:1015F0009F2F911D89509D4F9093FE048093FD0471
:10160000E7CFCF92DF92EF92FF920F931F93CF938A
:10161000DF936C017B0164E670E088E70E94D225CD
:10162000EC0197FD12C010E000E0F601E00FF11FA1
:10163000849164E670E00E942E26EC01892B29F447
:101640000F5F1F4F0E151F0581F70E94BB26CE01AD
:10165000DF91CF911F910F91FF90EF90DF90CF908E
:101660000895CF93DF9300D000D00F92CDB7DEB7AF
:10167000809115028D83809116028823F1F00E94DB
:101680002B07DC01CB01805A9541AF4FBF4F8093B0
:10169000110290931202A0931302B09314028D8151
:1016A000811108C062E070E088E991E00E94010BBE
:1016B000892B61F0809115028D838D810F900F90A1
:1016C0000F900F900F90DF91CF91089581E080935C
:1016D0001502F0CFCF93DF9380912605835087FDCD
:1016E00014C090912405CCE0D0E0C91BD109C75D9E
:1016F000DA4F90912305903108F070C0883009F4DA
:1017000058C01092BB02109226058091120184FFEE
:1017100043C0809111018F3F09F43EC0C82F89302A
:1017200008F0C8E0982F9C1B909311019091FF0442
:1017300028E892279093FF04882301F18091CB023F
:101740009091CC022091CA0226FF0AC1FC012C2FE5
:1017500040E055E03491DA013C934F5F5F4F3196A2
:101760002150C1F79C012F5F3F4F8FEF8C0F820FED
:10177000932F911D9093CC028093CB026C2F80E02D
:1017800095E00E943D0584E08C0FC83019F09FEF72
:10179000909311018093120184E199B19C7031F40E
:1017A0008150D9F71092270510922205DF91CF9131
:1017B00008958091BB02893108F0A3CFE82FF0E0B3
:1017C000E353FD4F9E01285F3F4F999191932C1752
:1017D0003D07D9F7885F8093BB0295CF9D3209F012
:1017E000A3C0883009F08FCF83EC8093FF048AE593
:1017F000809312011092CA028881807609F447C052
:10180000803229F58981813099F48C819D81892BE1
:10181000F1F48DEB92E09093CC028093CB0288E0C0
:101820009F81911131C09E81981770F5892F2CC02E
:10183000823041F48CEB92E09093CC028093CB0207
:1018400081E0EECF8A3029F48B818093BC0280E066
:10185000E7CF8930E1F78A819B818115924069F455
:101860008C819D81892B49F481E08093C9028E810E
:101870009F819093C8028093C702888187FF52C0DE
:101880008E8190E89093CA02809311013CCF2A8107
:1018900010920805998191110AC01092090528E05B
:1018A00035E082E03093CC022093CB02B9CF953063
:1018B00029F42093270528E035E0F4CF9630C1F4D1
:1018C0009B81913049F4CE010E94820690E490936E
:1018D000CA028F3F91F2A4CF9230A9F3933099F3CB
:1018E000913289F3923279F390E49093CA0298CFBF
:1018F000983089F0993019F42093C502DCCF9A30E2
:1019000071F09B30C1F69BE490930B0590934005DA
:1019100090931705D0CF25EC32E081E0C3CF28E0CB
:1019200035E0FBCF8FEFADCF8091CA0287FFEBCEC2
:101930008091C7029091C802892B71F08091C902F1
:10194000813051F488818093C6021092C8021092AF
:10195000C70210921101D7CE8EE180931201D3CE2F
:10196000DC012C2F40E055E0FA013D9130834F5FC0
:101970005F4F2150C9F7F6CE1F93CF93DF93782F97
:10198000162FEA01888184FF1EC0898128E88227FA
:101990008983AE014E5F5F4FFA01272F392F710FF8
:1019A000D9012F5F3F4F8C918193872F821B18168F
:1019B000BCF3612FCA010E943D051C5F1883DF91B3
:1019C000CF911F9108958AE58883E3CFCF93DF936A
:1019D000CDECD2E08091160584FF18C046E155E0B9
:1019E00068E0CE010E94BC0C289682E0CD3ED8076C
:1019F00089F78091160584FF0CC046E155E060E050
:101A000090E080E0DF91CF910C94BC0C0E946A0BB7
:101A1000E1CF0E946A0BEDCF20913F0524FF05C066
:101A20004FE355E066E00C94BC0C0895CF93DF9330
:101A300000D00F92CDB7DEB79B019091BA029813F8
:101A400007C04091B8025091B90246175707A1F05C
:101A50008093BA023093B9022093B80289833B8302
:101A60002A8380913F0584FF07C04FE355E063E080
:101A7000CE0101960E94BC0C0F900F900F90DF9149
:101A8000CF910895BC0184E00C94160DBC0183E055
:101A90000C94160DCF93DF93CAE0D0E080910A0535
:101AA00084FF1CC08091B6029091B702981799F0FC
:101AB00028E0829FC00111244AE055E068E08A5C7A
:101AC0009D4F0E94BC0C8091B60290E001968F70F1
:101AD00099278093B602DF91CF9108950E946A0BF7
:101AE0008FE99FE00197F1F700C000002197B1F660
:101AF000F2CFCF93DF93D82FC92FA091B702B0E0D8
:101B0000CD0101968F7099272091B602281781F098
:101B100093E0AA0FBB1F9A95E1F7AA5CBD4F98E02E
:101B2000ED2FFC2F01900D929A95E1F78093B7026B
:101B30000E946A0B0E944A0D88E0ED2FFC2FADEB4E
:101B4000B2E001900D928A95E1F7DF91CF9108956F
:101B5000CF9384E090E00E941D27C82F81E290E09F
:101B60000E941D27982F8C2FCF9108950F931F93BC
:101B7000CF93DF93843030F5643020F520E1829FED
:101B8000E001112434E0639FB0011124C60FD71F78
:101B900050E0440F551FC40FD51FCA55DF4FCE016B
:101BA0000E941D27082F10E0102F0027CE0101965C
:101BB0000E941D279801282BC901DF91CF911F9109
:101BC0000F91089590E080E0F8CF0F931F93CF938B
:101BD000DF93843038F5643028F5443018F528E078
:101BE000629FE001112450E0440F551FC40FD51F20
:101BF00030E2839FC0011124C80FD91FCE01869601
:101C00000E941D27082F10E0102F0027CE01879675
:101C10000E941D279801282BC901DF91CF911F91A8
:101C20000F91089590E080E0F8CF462F672F209124
:101C3000330230913402232B89F47E3F39F44E3F36
:101C400069F480918401909185010895843030F485
:101C5000743020F4443010F40C94E50D90E080E0F2
:101C60000895CF93DF930E94150EEC01803E9105FD
:101C700009F46EC060F58133910509F4B1C088F4B0
:101C80008932910509F4A5C08A9709F4B0C0C13022
:101C9000D10551F1CE010497813A910508F064C055
:101CA00023C08933910509F44CC08238910509F4A9
:101CB00048C08533910509F485C0883A910508F03C
:101CC0009DC0853A910518F3A497D0640DC0843E59
:101CD000910509F45CC060F4823E910509F447C0A7
:101CE000833E910509F448C0CE01DF91CF9108955C
:101CF000863E910509F456C0873E910509F457C008
:101D0000811522E5920708F0ACC0811531E59307F3
:101D100008F0FCC0883E910538F3811540E5940732
:101D200008F083C0C11580E4D80708F0ECC0CF3FAD
:101D3000D10511F008F072C0C03FD105A8F0D06500
:101D4000D3CF8091DF01837079F2C0EED0E0CCCFA9
:101D50008091DF0180FD07C19091E00190FFC4CF29
:101D6000C3EED0E084FFC0CFD0E0C0E0BDCF809113
:101D7000DF0182FDF5CFB8CF8091DF0182FDF6C093
:101D80009091E00190FDE1CF84FFAECFEDCF809147
:101D9000E00181FFA9CF8091DF01C7EED0E084FD93
:101DA000E3CFA2CF8091DF0183FDF7CF9DCF80915C
:101DB000DF0183FDDEC09091E00191FFE5CFC4EE2D
:101DC000D0E092CF8091DF0185FF8ECFC9E2D0E0D5
:101DD0008BCF8091DF0185FF87CFC5E3D0E084CF33
:101DE0008091DF0186FF80CFCAE2D0E07DCF809175
:101DF000DF0186FF79CFC1E3D0E076CF885A910921
:101E0000479708F0B1CFC85AD0E0CC0FDD1FC05EB5
:101E1000DE4F0990D881C02DD46466CFCE019A954B
:101E200081159F4108F460CF9FCFF4E09695879588
:101E3000FA95E1F783702C2F26952695237040E2C2
:101E4000249F90011124382B8C2F8370C1E0D0E0A7
:101E500002C0CC0FDD1F8A95E2F7C22BD32BDC68C2
:101E600043CFC11586E5D80730F5C11595E5D907EB
:101E700008F060C0C11524E5D207C0F49C2F9695E8
:101E800096959E0123703327C115D34508F043C0B2
:101E9000C1E0D0E002C0CC0FDD1F2A95E2F720E2BE
:101EA000929FC0011124C82BD92BD9CFDC2FCC276E
:101EB000C46FD06A19CFC1153AE5D30788F4C115AC
:101EC00049E5D40708F041C0CE0198558F3F9105F0
:101ED00011F008F049CFDC2FCC27C06FD06A04CFB7
:101EE000CE0190568115904208F03ECF8D2F8F7114
:101EF0000E94AB0990E0982F882788279F719C014A
:101F00002C2BE90120C0DF70D06AEECED82FCC2771
:101F1000C16FD06AE9CEC1E0D0E002C0CC0FDD1FB6
:101F20002A95E2F730E2939FC0011124C82BD92BE8
:101F3000DA68DACE8C2F0E94AB09C82FD0E0DC2FF4
:101F4000CC27CC27DF71D062CFCE8C2F8F700E9430
:101F5000AB0934E0D695C7953A95E1F7CF70DC2F01
:101F6000C82FD069C1CEC9E3D0E0BECEC2EED0E06A
:101F7000BBCEC6EED0E0B8CEBF92CF92DF92EF924A
:101F8000FF920F931F93CF93DF938C01C090F002C9
:101F9000D090F102E090F202F090F3028091D20131
:101FA0009091D301A091D401B091D501C82AD92A2A
:101FB000EA2AFB2ACFE1D0E0BC2ED701C6010C2EC5
:101FC00004C0B695A795979587950A94D2F780FD9A
:101FD0000EC0219788F7B12C8B2DDF91CF911F91E7
:101FE0000F91FF90EF90DF90CF90BF900895B801D0
:101FF0008C2F0E94310E019761F3EECFCF93DF93C8
:10200000D82FC92F0E94BC0F6D2F7C2FDF91CF914D
:102010000C94310E0E94FE0F282F892F8F70392FBC
:1020200032953F70903C80F43A30B0F4343020F474
:10203000323090F480E008953630E1F781E0283EB8
:1020400088F0213FB9F70EC03C3011F03F3091F7D6
:10205000869586958695089581E0203F39F018F49D
:10206000283E40F70895243F29F7FCCF0895CF93E9
:10207000DF93C6EED0E060E0CE010E942B272196D0
:10208000C11584E0D807B9F7DF91CF9108950F9378
:102090001F93CF93DF938901843058F5643048F55E
:1020A000423038F521153C4531F420913102309110
:1020B0003202232BF1F090E1899FE001112484E0AA
:1020C000689FB0011124C60FD71F50E0440F551F61
:1020D000C40FD51FCA55DF4F612FCE010E942B2799
:1020E000602FCE010196DF91CF911F910F910C943B
:1020F0002B27DF91CF911F910F9108950F931F937D
:10210000CF93DF938901843058F5643048F544302B
:1021100038F501152CE5120731F420913102309188
:102120003202232BE9F098E0699FE001112450E08E
:10213000440F551FC40FD51F20E2829FC0011124F8
:10214000C80FD91F612FCE0186960E942B27602FC2
:10215000CE018796DF91CF911F910F910C942B2781
:10216000DF91CF911F910F9108958F929F92AF921F
:10217000BF92CF92DF92FF920F931F93CF93DF9383
:10218000A0903102B090320281E090E09093320250
:1021900080933102D12CC12CC0E04601D0E014C0A4
:1021A000F801259134914F2D6D2F8C2F0E947E10B8
:1021B0000E5F1F4FF39484E0F812F2CF84E0880E94
:1021C000911CDF5FD43039F08401000F111F085ECD
:1021D0001E4FF12CE5CFD0E021E030E040E06D2F44
:1021E0008C2F0E94471021E030E041E06D2F8C2FB2
:1021F0000E944710DF5FD43079F7CF5F80E1C80ECF
:10220000D11CC43051F6B0923202A0923102DF915B
:10221000CF911F910F91FF90DF90CF90BF90AF9023
:102220009F908F9008956BEE7EEF90E080E00E948B
:10223000492760E082E090E00E942B2760E083E085
:1022400090E00E942B271092D2011092D30110929D
:10225000D4011092D50160E084E090E00E942B2729
:1022600060E081E290E00E942B2760E085E090E052
:102270000E942B2760E086E090E00E942B276FEF02
:1022800087E090E00E942B2740E050E0BA0188E010
:1022900090E00E943D2760E08DE090E00E942B27B7
:1022A00040E050E0BA0188E190E00E943D2760E004
:1022B00087E190E00E942B2740E050E0BA018CE1DA
:1022C00090E00E943D2760E080E290E00E942B2792
:1022D00040E050E0BA0188E190E00E943D2740E0F4
:1022E00050E0BA018FE090E00E943D2740E050E0CE
:1022F000BA0183E190E00C943D2778941F921FB6B9
:102300001F9211248F939F93AF93BF938091D70116
:102310009091D801A091D901B091DA010196A11D47
:10232000B11D8093D7019093D801A093D901B093A8
:10233000DA01BF91AF919F918F911F901FBE1F90A7
:1023400018952FB7F8948091D7019091D801A0915A
:10235000D901B091DA012FBF08950E94A1112091F7
:102360001F0230912002232B21F080931B029093B7
:102370001C022091210230912202232B21F0809314
:10238000180290931902E091E101F091E201309777
:1023900049F082E080931D020480F581E02D8DE1FB
:1023A00092E00994089590E080E00E94430890E054
:1023B00080E00E942D081092CF011092CE010E9461
:1023C000510786E0EDE1F2E0DF011D928A95E9F721
:1023D00010921A021092170210928A010C94AD11F9
:1023E0006093F0027093F1028093F2029093F302F3
:1023F0000C94D311CF93DF9300D000D0CDB7DEB7CC
:102400008091F0029091F102A091F202B091F3025A
:10241000AC01BD0146705527662777279C014630E1
:1024200051056105710591F4AD01286029833A8356
:102430004B835C8369817A818B819C810F900F90A3
:102440000F900F90DF91CF910C94F011AD01277F89
:10245000EDCF0F931F93CF93DF9300D000D0CDB774
:10246000DEB741E050E060E070E004C0440F551F6B
:10247000661F771F8A95D2F74095509560957095A5
:102480008091F0029091F102A091F202B091F302DA
:102490008A019B01082319232A233B2309831A83DA
:1024A0002B833C83C901B8010F900F900F900F90C0
:1024B000DF91CF911F910F910C94F0119091CD016C
:1024C000809589238093CD01282F277071F4282FC0
:1024D000082E000C330B9217130639F0859585955D
:1024E00085950E9429121092CD0108950F931F9394
:1024F000CF93DF9300D000D0CDB7DEB741E050E0FE
:1025000060E070E004C0440F551F661F771F8A9576
:10251000D2F78091F0029091F102A091F202B09175
:10252000F3028A019B01082B192B2A2B3B2B0983D1
:102530001A832B833C83C901B8010F900F900F9031
:102540000F90DF91CF911F910F910C94F011609338
:10255000D2017093D3018093D4019093D5010C9450
:10256000D3111092D001EAE7F1E086E0DF011D927D
:102570008A95E9F70C94D311882309F459C082385D
:1025800071F40E94590881FF53C089E30E948B07B0
:102590000E94510789E30E947E070C9451078338FB
:1025A00059F40E94590880FF43C083E50E948B07BD
:1025B0000E94510783E5EFCF843859F40E945908EF
:1025C00082FF36C087E40E948B070E94510787E490
:1025D000E2CF9CEF980F913AF0F290E2980F98308A
:1025E00088F4877021E030E0A90102C0440F551F34
:1025F0008A95E2F7CA0180959091D0018923809352
:10260000D001CBCF9BE5980F933020F490E080E091
:102610000C94430898E5980F973120F490E080E0FF
:102620000C942D08803F20F00E9465080C94AD1199
:102630000895CF93C82F882309F48FC08238C1F43E
:102640000E94590881FD89C089E30E948B070E947E
:1026500051072FEF31EE84E0215030408040E1F708
:1026600000C0000089E30E947E07CF910C945107BF
:102670008338A1F40E94590880FD6FC083E50E9451
:102680008B070E9451079FEF21EE34E091502040CC
:102690003040E1F700C0000083E5E5CF8438A1F4C5
:1026A0000E94590882FD59C087E40E948B070E944E
:1026B00051078FEF91EE24E0815090402040E1F7E8
:1026C00000C0000087E4CFCF8CEF8C0F813A68F414
:1026D000EAE7F1E08191C817D1F131E0E038F30782
:1026E000C9F78C2F0E948B07C0CF80E28C0F8830F7
:1026F00068F4C77021E030E001C0220FCA95EAF704
:102700008091D001822B8093D001AFCF8BE58C0FCD
:10271000833038F42C2F2452330BC901CF910C9401
:102720004308E8E5EC0FE73150F4F0E0EE0FFF1F4F
:10273000E05EFE4F80819181CF910C942D08C03FC7
:1027400060F08C2F0E942A09CF910C94AD118C2F30
:102750000E947E070E945107C4CFCF9108950F9326
:102760001F93CF93C82F10E000E0893311F400E5E8
:1027700010E08C2F0E9419130115110531F48C2FD4
:10278000CF911F910F910C94BC128FE99FE001979C
:10279000F1F700C0000001501109EECFFF920F9336
:1027A0001F93CF93DF93C62FD42F122FFC0182816A
:1027B0008823A9F06093EF020E94A1119093EE028A
:1027C0008093ED02C77081E001C0880FCA95EAF7D7
:1027D000DF91CF911F910F91FF900C94230880916E
:1027E000EF02681334C08091ED029091EE020E94D6
:1027F0001C07883C910558F500E20D0FCD17A9F094
:10280000C770FF24F3948F2D01C0880FCA95EAF793
:102810000E941808083048F48D2F877001C0FF0C03
:102820008A95EAF78F2D0E942308812F0E94AF130B
:102830000830A0F4D77081E001C0880FDA95EAF77C
:10284000DF91CF911F910F91FF900C941808C770E2
:1028500081E001C0880FCA95EAF7F2CFDF91CF91EE
:102860001F910F91FF900895AF92BF92CF92DF9288
:10287000EF92FF920F931F93CF93DF93EC018AE0C7
:10288000A82E2881222309F48CC02130C9F5998112
:102890008A81913021F422960E94AF1305C09230B4
:1028A00029F422960E9419132196EBCF933021F43C
:1028B00022960E94BC12F8CF943011F02196F4CFEA
:1028C000229630E020E0AE014F5F5F4F8053990BBE
:1028D0008A30910550F02150310930F38FE99FE0A3
:1028E0000197F1F700C00000F6CFA29EB001A39EB1
:1028F000700D11249C01260F371F8981EA01E3CF57
:10290000E22FF0E0E856FF4FB490822F869586952F
:10291000869590E0FC01E857FF4FE4902770F12C7A
:10292000022E02C0F594E7940A94E2F731E0E32224
:10293000FF24FC01E858FF4FC490D12C022E02C0A6
:10294000D594C7940A94E2F731E0C322DD24FC0158
:10295000E859FF4F049110E002C0159507952A959C
:10296000E2F701701127E114F10419F081EE0E94E1
:102970001913C114D10419F086EE0E9419138B2D7E
:102980000E94AF13CD2819F086EE0E94BC12EF28EA
:1029900019F081EE0E94BC12012B09F485CF8CE264
:1029A0007BCFDF91CF911F910F91FF90EF90DF9040
:1029B000CF90BF90AF900895BF92CF92DF92EF92E9
:1029C000FF920F931F93CF93DF9300D000D0CDB72A
:1029D000DEB78C01CB01FB01F280FF2009F4FFC1BF
:1029E000980122513F452031310508F0A8C18FEFF1
:1029F00093E00E941D27811181C0025186EEC82EEE
:102A0000D12C01113DC08091130190911401A0912E
:102A10001501B091160189839A83AB83BC83BB24D3
:102A2000BA9486010F5F1F4FC6010E941D2789833C
:102A30001A82882309F462C0813009F054C07601FB
:102A400032E0E30EF11CC8010E941D27082F8A8383
:102A5000882309F453C0C7010E941D27182F8FEF48
:102A6000800F8330D8F4760183E0E80EF11C1B83DD
:102A7000112321F0CE0101960E9434146701D1CFB9
:102A8000C114F4E0DF06D1F1C6010E941D278111B7
:102A900001C001502FEFC21AD20AB3CF043071F730
:102AA000760194E0E90EF11CC60103960E941D27F1
:102AB000282F112319F1882309F12150330BB29EDD
:102AC000A001B39E500D1124E12FE150FF0BCF0167
:102AD000840F951F019790F2EFE9FFE03197F1F72E
:102AE00000C00000F7CFCE0101960E943414780197
:102AF000C5CF81E00E9476120E94FA11F12C05C028
:102B000081E00E9429120E94FA118F2D0F900F90E0
:102B10000F900F90DF91CF911F910F91FF90EF9049
:102B2000DF90CF90BF90089582E0E4CF053F3CE571
:102B30001307F1F027E245EE66EE063FECE51E07CF
:102B400041F027E245EE64EE043FFCE51F0709F083
:102B500018C10E94CE13D2CF26E241EE61EEF9CF2A
:102B600027E245EE65EEF5CF26E241EE60EEF1CFCD
:102B700026E241EE62EEEDCFC8018A5F9C450997DF
:102B800008F40DC106318CE5180709F0BFC080912B
:102B9000D0018A7A91E009F490E09093800181114C
:102BA000A9C089E20E948B070E945107A7CFF801B4
:102BB000E350FC458091DF018160E331F10590F441
:102BC000EF59F84D0C94F3260A5F1C4509301105A6
:102BD00008F0F5C00C58184DF8010C94F3268091BC
:102BE000DF0182608093DF01EAC08091DF018460B1
:102BF000F9CF8091DF018860F5CF8091E00181609D
:102C00008093E001DCC08091E0018260F9CF809187
:102C1000DF018061E7CF8091DF018062E3CF8091A7
:102C2000DF018064DFCF0E94B1128091DF018068F4
:102C3000D9CF8091DF018C60D5CF8091E001836096
:102C4000DFCF8091DF018E7FCDCF8091DF018D7F3F
:102C5000C9CF8091DF018B7FC5CF8091DF01877F56
:102C6000C1CF8091E0018E7FCBCF8091E0018D7F3D
:102C7000C7CF8091DF018F7EB5CF8091DF018F7D3F
:102C8000B1CF8091DF018F7BADCF0E94B1128091D7
:102C9000DF018F77A7CF8091DF01837FA3CF809162
:102CA000E0018C7FADCF8091DF0182FB992790F905
:102CB00021E0922790FB82F990FB83F993CF8091DA
:102CC000E001982F909591708E7F892B90FB81F970
:102CD00097CF0E94B1129091DF01892F97FB87F95E
:102CE000805880CF61E08EE090E00E942B2767C083
:102CF00060E0F9CF85E356CF80918001811104C057
:102D000089E20E947E0750CF85E3FBCF0115FCE5E9
:102D10001F0739F00E3D1C4509F0F7CE0E94131134
:102D2000EDCE0E94B1123FEF84E39CE03150804031
:102D30009040E1F700C000000E940707DFCE00319D
:102D4000EFE51E0709F4D5CE0131FFE51F0709F4B1
:102D5000EBCE033F2CE5120709F406CF08F0E6CED0
:102D6000083DECE51E0709F4FBCE28E241E0093DF1
:102D7000FCE51F0709F4F6CE073D2CE5120709F420
:102D8000EBCEFF20C1F11092EF0206312CE51207C5
:102D900008F0F2CE02303CE5130708F4B7CF0E94EA
:102DA000A80D9093E0018093DF0106318CE51807B0
:102DB00008F00ACF02309CE5190708F0F8CE6091C0
:102DC000DF011091E00184E090E00E942B27612F49
:102DD00081E290E00E942B270E94B1128FCE003139
:102DE0002FE5120709F48CCE01313FE5130709F0F6
:102DF000B0CF82E086CE06311C4509F47DCFFF249A
:102E0000F39483CE0F931F93CF93DF9300D000D022
:102E100000D0CDB7DEB78C019093850180938401FB
:102E20001C821D821E828EEF89838A8381E08B83C0
:102E30000E94A11181609D838C83011580E2180797
:102E400008F03FC0C801805E9109089728F06EE045
:102E500078E00115110511F463E278E0C8010E94E1
:102E6000170A802F0E9419138FE39CE90197F1F74D
:102E700000C000000E94A11181609D838C831B8291
:102E8000011590E2190720F5802F0E94BC12C8019D
:102E9000805E9109089728F063E078E0011511053C
:102EA00011F468E178E0C8010E94170A26960FB66F
:102EB000F894DEBF0FBECDBFDF91CF911F910F9170
:102EC0000895BE016F5F7F4FC8010E94DC14CCCF14
:102ED000BE016F5F7F4FC8010E94DC14E7CFCF9225
:102EE000DF92EF92FF920F931F93CF93DF93182FF0
:102EF000062FC090F002D090F102E090F202F09024
:102F0000F3028091D2019091D301A091D401B091AC
:102F1000D501C82AD92AEA2AFB2ACFE1D0E0D70175
:102F2000C6010C2E04C0B695A795979587950A946F
:102F3000D2F780FF12C0402F612F8C2F0E94B60D58
:102F40008130910551F0DF91CF911F910F91FF904A
:102F5000EF90DF90CF900C940217219700F7402F4D
:102F6000612F80E00E94B60DEECF7F928F929F92EC
:102F7000AF92BF92CF92DF92EF92FF920F931F9387
:102F8000CF93DF93CDB7DEB729970FB6F894DEBFA6
:102F90000FBECDBF6C01FC0183819481892B31F080
:102FA0008081918189238F3F09F0F4C229960FB661
:102FB000F894DEBF0FBECDBFDF91CF911F910F916F
:102FC000FF90EF90DF90CF90BF90AF909F908F9049
:102FD0007F9008950E94BC0F182F682F89819A81D5
:102FE0000E94CC0769817A81812F0E94150EB6015B
:102FF0000E94DC1481111EC08091CD018770B1F256
:10300000F6018281882391F282E029960FB6F89426
:10301000DEBF0FBECDBFDF91CF911F910F91FF900B
:10302000EF90DF90CF90BF90AF909F908F907F9068
:103030000C945E12F6018281E080F1808823D1F148
:10304000C7010E94BC0F182F682FC7010E94CC0730
:10305000B701812F0E94310E8C01782EF601F2808B
:10306000E580E2942FE0E2228091CD018770A1F00B
:103070009F2CFF2091F0812F807F803421F080E20F
:10308000800F883048F082E00E945E128091CD016E
:103090008770992493948111912C812F82958F7040
:1030A000A82EB12C8C3008F03FC0F501E358F84D44
:1030B0000C94F326C7010E94A407182FC9CFF12F43
:1030C000FF70EF2E107F19F0E29490EFE922802F2D
:1030D000FF20C9F0EE2069F090E2900F983010F0D8
:1030E00001110BC08091D001E82AE092D0010E942A
:1030F0005107802F0E94191317C08091CF01E82A31
:10310000E092CF01F4CF0E94BC12EE2069F0E0946F
:10311000005E083010F071103BC08091D001E822B1
:10312000E092D0010E945107E8E0AE1AB108F4E045
:10313000AF16B10410F40E945908992009F436CF53
:103140008091CD0180FD32CFF60112828595859563
:1031500085950E947612C6010E94B5178091CD0117
:1031600085958595859529960FB6F894DEBF0FBE97
:10317000CDBFDF91CF911F910F91FF90EF90DF9026
:10318000CF90BF90AF909F908F907F900C9429121A
:103190008091CF01E822E092CF01C4CF212F2F7080
:1031A000822E107F103219F0829480EF88227720CF
:1031B00071F031E0731661F1FF20B9F1EE2071F189
:1031C000F601858180FF95CF8F70858327C0FF2012
:1031D00091F09091D101882D892BE11003C00E94BC
:1031E0002308A2CF41E0E412FACF981709F49CCF4C
:1031F0008093D10199CFE11006C00E944B07882D22
:103200000E94180891CF51E0E51609F48DCFF5CF53
:10321000FF2031F065E06E1508F486CF882DDFCFF2
:1032200074E07E1508F480CFEACFEE2041F3093335
:1032300049F4FFEF17EE23E0F15010402040E1F792
:1032400000C00000802F0E94BC126ECF812F869597
:103250008695837061F0813009F066CFC801937064
:10326000F11002C090E080E00E942D085DCFC801FF
:103270009370F11002C090E080E00E94430854CFA8
:10328000802FFF2039F00E942A090E94AD110E9470
:10329000AD114ACF0E946508FACF812F837009F0E3
:1032A00072C0F11041CF202F229526952770220F52
:1032B000220F402F4F7050E070E060E0022E04C0FB
:1032C000440F551F661F771F0A94D2F780E090E0E5
:1032D000DC0104FF0FC08FE090E0A0E0B0E004C08C
:1032E000880F991FAA1FBB1F2A95D2F7809590952A
:1032F000A095B095E12FE695E695E370E23051F1A7
:10330000E33009F10091D2011091D3012091D40151
:103310003091D501E13099F0842B952BA62BB72B5A
:10332000AC01BD0140235123622373234E835F838D
:1033300068877987CB01BA010E94A712F5CE402B8E
:10334000512B622B732B8A019B01082B192B2A2BE3
:103350003B2B12C0842B952BA62BB72B4091D2016F
:103360005091D3016091D4017091D5018C019D01E0
:1033700004271527262737270E831F832887398799
:10338000C901B801D9CF8695FF2011F0812F817036
:10339000882309F4C9CE202F229526952770220F65
:1033A000220F402F4F7050E070E060E0022E04C00A
:1033B000440F551F661F771F0A94D2F780E090E0F4
:1033C000DC0104FF0FC08FE090E0A0E0B0E004C09B
:1033D000880F991FAA1FBB1F2A95D2F78095909539
:1033E000A095B095E12FE695E695E370E23081F186
:1033F000E330F9F00091F0021091F1022091F20215
:103400003091F302E13089F0842B952BA62BB72B5A
:10341000AC01BD0140235123622373234E835F839C
:1034200068877987CB01BA0110C0402B512B622BE2
:10343000732B8A019B01082B192B2A2B3B2B0E8304
:103440001F8328873987C901B8010E94F0116CCE0B
:10345000842B952BA62BB72B4091F0025091F102B3
:103460006091F2027091F3028C019D0104271527EF
:1034700026273727E4CF1F70FF2029F0812F0E94D5
:103480007612802FACCE802F0E941808812F0E94C8
:1034900029124ACE802F22EF721609F446C0271552
:1034A00070F030EF731609F141EF7416B1F1FF209F
:1034B00009F460C0E1101DCE812F8F7133C053EF2E
:1034C0007516C1F164EF7612F2CFFF2009F447C000
:1034D0001F71812F0E94761258E0159FC0011124A0
:1034E00083608093CD01812F1DC0FF2089F074E09F
:1034F0007E1508F419CE1F7181E090E0A0E0B0E0E5
:1035000004C0880F991FAA1FBB1F1A95D2F7A4CF1A
:1035100025E02E1508F408CEEECF812F8F71FF2005
:1035200009F4B5CF0E947612FFCD812F8F71FF2055
:10353000C9F3ADCF60E070E0CB01FF2009F485CF87
:103540001F7181E090E0A0E0B0E0AC01BD0104C0DB
:10355000440F551F661F771F1A95D2F75FCF81E082
:103560000E945E1261E06E1508F0DECD82E00E94DE
:103570005E12DACDEE2059F0893309F063CE7FEF89
:1035800087EE93E0715080409040E1F759CE812F53
:103590008F717DCF85E0DE01119601900D928A95A5
:1035A000E1F7F601228189819A81211113CD0E94D0
:1035B000A407182F17CD1F93CF93DF93809190010D
:1035C000807FA9F480918D01882389F08091C201C8
:1035D000D091910160918B0170918C01A0918E012D
:1035E000B0918F01C62FC72316E0D81304C0DF9116
:1035F000CF911F91089590E0109711F0CF3F19F4EB
:1036000001968770F2CF189F9001199F300D1124F9
:10361000F901EE56FE4F41814713F2CF4081461328
:10362000EFCF42814111ECCF438154814A1B5B0BA8
:10363000483C510528F7809190018F7080618093FC
:103640009001F901E956FE4F80818F70806180837F
:103650008BE891E00E94B517DF91CF911F910C94F8
:10366000F907AF92BF92CF92DF92EF92FF920F9342
:103670001F93CF93DF93CDB7DEB72B970FB6F89498
:10368000DEBF0FBECDBF8C0185E0F801DE011796CD
:1036900001900D928A95E1F7F80180819181E28095
:1036A0002BE8A22E21E0B22E60918E0170918F0145
:1036B0006115710509F421C130918B0140918C0194
:1036C000242F23232F3F09F418C1C380D480F09006
:1036D0008D01F601E61BF70BFF2009F4DFC02091F6
:1036E0009001522F507FE83CF10508F0BAC051110B
:1036F00077C0FE2C491321C038131FC0E1101DC034
:103700002F70206120939001C5010E94B517809110
:103710009001F80185838F2D2B960FB6F894DEBFAC
:103720000FBECDBFDF91CF911F910F91FF90EF9012
:10373000DF90CF90BF90AF900895CD2829F0282F2B
:1037400029232F3F09F0F7C020E0F22FF170DF2E80
:10375000E091C2014091910156E020FD1CC0EE2095
:10376000D1F280919001816080939001F12CD3CFB0
:103770002E2F30E05E9FF0011124EE56FE4F618146
:10378000961306C06081861303C06281E612E7CFFC
:10379000F9013196E770E413EBCF8F8398878F811F
:1037A00098850E94FE0F292F22952F70903260F08D
:1037B000225F2F70223078F49F7051F0F8019581CC
:1037C000907F31F4D12C0AC09F7011F08823D1F37F
:1037D000805E8830B8F3C8010E94B517FD2C9BCFDE
:1037E000491312C0381310C0E1100EC0F801258330
:1037F000C8010E94B51786E0F801ABE8B1E001907E
:103800000D928A95E1F787CF8F8398878F8198856E
:103810000E940A10882309F1EE20F9F080919001AE
:10382000803270F020918B0130918C013A83298392
:103830001B82DD82CC828E83CE0101960E94B51759
:1038400086E0F801ABE8B1E001900D928A95E1F7CE
:103850000E94DB1AFF24F3945ECFC8010E94B517C3
:10386000F9CF51110AC08BE891E00E94B51786E0AC
:10387000F50111928A95E9F779CF4913C5CF38132D
:10388000C3CFE110C1CFF8012583C8010E94B5174D
:1038900086E0F50111928A95E9F73DCFE83CF10504
:1038A000B8F7FE2CEE20C9F2491316C0381314C025
:1038B0008091900180FD9FCF982F907F09F49BCF3E
:1038C000F8018583903F09F493CF982F907F905F04
:1038D0008F70892B85838CCF8F8398878F81988574
:1038E0000E940A108111ACCF809190018160809379
:1038F0009001C8010E94B5170ECFEE2009F4ADCF9C
:103900008F8398878F8198850E940A10F82E8823CC
:1039100009F4A3CF86E0F801ABE8B1E001900D9285
:103920008A95E1F780918B0190918C010E94FE0FA6
:103930000E94DB1AF0CE21E02E2507CF1F93CF93F4
:10394000DF93CDB7DEB767970FB6F894DEBF0FBE33
:10395000CDBF342F4B8B252F5C8B6D8B7E8B8F8B4C
:103960008E899F8961111092CF011A8A3D872E8717
:103970006F87998B888B86E0FE013D96DE01179656
:1039800001900D928A95E1F7CE0107960E94311BB6
:10399000882389F016E08091C201909191018913EA
:1039A0004FC067960FB6F894DEBF0FBECDBFDF9154
:1039B000CF911F91089586E0FE013796DE011196A2
:1039C00001900D928A95E1F74A855B854115510575
:1039D00009F37F816885862F87238F3FD9F2209155
:1039E000910130E0C901019687709927E091C201E9
:1039F000E817190671F40E94B11210929101109209
:103A0000C20186E0EBE8F1E0DF011D928A95E9F75B
:103A1000C1CF79836A835D834C8396E0929FD00106
:103A2000939FB00D1124AE56BE4FFE01319601900A
:103A30000D929A95E1F7809391010E94F907AACF20
:103A4000819FC00111248E569E4F0E94311B8823F6
:103A500009F4A7CF8091C20190E001968770992761
:103A60008093C20198CFBF92CF92DF92EF92FF92E4
:103A70000F931F93CF93DF938EE4E82E81E0F82E0F
:103A8000CBEDD1E0C12CD12C01E010E0F701819108
:103A90007F01F894E82FE295EF70F0E021A18F709C
:103AA000A80102C0440F551F8A95E2F7CA01922F60
:103AB000982B91A392A18095892382A3789400C02A
:103AC000E2E5F1E030E020E0B12C4191A42FA29595
:103AD000AF70B0E090968C9190E04F7002C09595D9
:103AE00087954A95E2F780FD48C0802F022E01C0DD
:103AF000880F0A94EAF7B82A2F5F3F4F2430310528
:103B000021F7F701319780810E94920953E0C51691
:103B100019F080EA8A95F1F78881B81681F1B882A8
:103B200081E0D82AC3942196E4E0CE12AFCFDD2005
:103B300041F181E0809383010E94A1119093820161
:103B40008093810180918101909182010E941C07E4
:103B50000697D8F08091DB01809329028091DC01E7
:103B600080932A028091DD0180932B028091DE01F7
:103B700080932C021092830108C080E0BCCF80E0CB
:103B8000D0CF809183018111DDCF8D2DDF91CF9139
:103B90001F910F91FF90EF90DF90CF90BF9008950D
:103BA000CDB7DEB762970FB6F894DEBF0FBECDBFBC
:103BB0000E94A1118A8B292E80E890E00FB6F8941C
:103BC00080936100909361000FBE85E097E0909331
:103BD0007701809376018091690088608093690005
:103BE000E99A8BE480930B05809340058093170539
:103BF0008AE580930A0580933F0580931605539AC2
:103C000080E0815009F086C15398789482E084BDA9
:103C100093E095BD9AEF97BD80936E0080E60E9479
:103C2000920981E60E94920982E60E94920983E647
:103C30000E94920980E30E94920987E90E949209FA
:103C400086E90E94920985E90E9492091092DB019F
:103C5000109229021092DC0110922A021092DD01CA
:103C600010922B021092DE0110922C020E94331D42
:103C7000EFE3FCE93197F1F700C000000E94331D2B
:103C80008091290280FF17C06FEF82E290E00E94CE
:103C90002B276FEF83E290E00E942B276FEF84E2E7
:103CA00090E00E942B276FEF7FEF90E080E00E9472
:103CB00049270E94070790E080E00E9425278B3E5D
:103CC0009E4F11F00E94131182E290E00E941D2786
:103CD000833609F00CC783E290E00E941D278C31E7
:103CE00009F005C784E290E00E941D278A3309F09D
:103CF000FEC610920F0280E88093F4020E94CC2549
:103D00006DE070E08DEA91E00E94010B892B09F0D3
:103D10003FC080910F0263E070E081FD03C18AEA39
:103D200091E00E94010B892B99F56DE070E08AE922
:103D300091E00E94010B892B59F50E942B07DC01B1
:103D4000CB01805A9541AF4FBF4F809311029093A2
:103D50001202A0931302B0931402E7EFF2E080E0A6
:103D600092E0DF019C011D9221503040E1F7F09379
:103D7000FE04E093FD048FEF9FEF9093F602809393
:103D8000F50281E0809316028093150210921002D2
:103D900090E080E00E9425278B3E9E4F11F00E940C
:103DA000131182E090E00E941D27809324020E945C
:103DB000A80D9093E0018093DF0183E090E00E94E2
:103DC0001D27282F30E050E040E02E873F87488BAA
:103DD000598BCA01B9010E94A7126EE671E03BEE51
:103DE000832E31E0932E26E631E0EAE6F1E041E071
:103DF00050E01191812F82958F7090E0DC019196B7
:103E0000DC9091971F70C12E7A0101C0EE0C1A95BB
:103E1000EAF70E2D00950D2191960C9391979296AD
:103E20001C9192971E2992961C93D901DD909D01B9
:103E30000D2D02950F7010E0D8019196BC90BD2D0C
:103E4000BF70DB2E7A0101C0EE0CBA95EAF7FE2CAA
:103E5000F094FB20D8019196FC9291979296FC9059
:103E60009297EF289296EC92DC0190968C9190E0DC
:103E700002C095958795CA94E2F78170D801909613
:103E80000C9110E002C015950795DA94E2F790E0E6
:103E900000FD92E0892BD4018D934D016E177F07B1
:103EA00009F0A7CF459A80E091E09093E2018093DA
:103EB000E101BFEFE0E7F2E0B150E040F040E1F7B0
:103EC00000C0000033243394809125051091350201
:103ED000882359F1109225050E94A1118A8B292E61
:103EE000112331F0109235020E94B1120E9459083C
:103EF00080913502882331F10E94EE090E94331D22
:103F0000E9E2F2E081918111D8C522E0ED32F207B9
:103F1000C9F7DACFA895AFE9BFE01197F1F700C074
:103F200000006FCE87EA91E0FCCE1111E1CF8A89C3
:103F3000922D0E941C070697D8F2309235020E94FB
:103F4000EE09D6CF0E946A0B8091C502882309F43E
:103F500041C280910A0584FF3DC20E94331D682E34
:103F600081110E942B07A9E2B2E0E5E2F2E010E045
:103F700000E0302F8D919191981709F461C2292F9B
:103F8000282790E0FF24F394422F4F2109F453C2D5
:103F900099833A838F2191E009F490E09B830E94FA
:103FA000A1118160782F9D838C8349815A816B8117
:103FB0008D810E949E1CF801EB5DFD4F8081F826EB
:103FC000F08207EE11E083EEE82E81E0F82E96E60F
:103FD000492E91E0592E4AE651E05F874E872BEE3D
:103FE000822E21E0922ED12CC12CD401ED914D01D5
:103FF000EE0FEE0FAE85BF852D91BF87AE87A22F46
:10400000A295AF70B0E090968C9190E02F7002C0B6
:10401000959587952A95E2F781709927D2014D9160
:104020002D01A42FA295AF70B0E090962C9130E0B6
:104030004F7002C0359527954A95E2F7A901417066
:10404000552720FF02C042E050E0842BE82BD4012A
:104050001197EC935801EF70F0E0EA5AFE4F80811F
:10406000F8019081890F808320E084304CF0D701E3
:104070008C918F5F8C9360E08C2D0E946F1721E0F4
:10408000F80180818D3F4CF4D7018C9181508C9345
:1040900061E08C2D0E946F1721E00F5F1F4FF80128
:1040A0003197D5018C91082E000C990B64E070E0DB
:1040B0000E94DF268083D22AC394BFEFEB1AFB0A4B
:1040C000E4E0CE1292CFD1100E942B07809116020D
:1040D000882309F4A4C027EF32E03093FE04209334
:1040E000FD04EAEBF1E084918F018111C0C181E010
:1040F0000E94CF0A80911602882309F461C02091A2
:10410000F5023091F6022115310509F459C080916C
:104110001002811155C0082F10E0EE24E394F12C19
:10412000082E02C0EE0CFF1C0A94E2F7A9014E21F2
:104130005F21452B09F4A2C190910F0290FDA0C10F
:104140008295880F807680930C019801369527958B
:104150003695279520930F01815E80930D01109273
:10416000100124E630E047E050E06AE071E088E7C3
:104170000E945D26892B21F5A801F5E0440F551F0B
:10418000FA95E1F780910F0280FD88C149505D4F9B
:1041900004E610E020E230E060E488E70E948A262E
:1041A000892B71F40E94310BE094F0948091F50218
:1041B0009091F602E822F922F092F602E092F502DE
:1041C00080911502882359F10E942B076E877F8703
:1041D000888B998B8091110290911202A091130209
:1041E000B09114022E853F8548895989281B390BC7
:1041F0004A0B5B0BDA01C9018F3F9F4FAF4FBF479F
:1042000070F480911602882351F062E070E080ED36
:1042100091E00E94010B892B11F41092150261109C
:1042200001C0D1100E94310B86E0EDE1F2E0DE0129
:10423000119601900D928A95E1F7F0901F02E0909F
:104240002002009121021091220210921F0210926E
:10425000200210922102109222028F2D8E2909F441
:1042600048C080911B0290911C020E941C079C0177
:1042700080911A02882309F463C423333105C8F1FD
:104280008F3F19F08F5F80931A02FF2059F00E9430
:104290000A099FEF1F140CF491E0899F802D1124CF
:1042A00080931F02EE2059F00E940A099FEF1E140E
:1042B0000CF491E0899F802D11248093200230918D
:1042C0001F023323B1F020912002222391F045EB0D
:1042D0003403C0011124992309F444C190931F02AF
:1042E00055EB250390011124332309F43EC130938B
:1042F0002002812F802B09F448C0809118029091F0
:1043000019020E941C079C0180911702882309F45E
:1043100012C425363105C8F18F3F19F08F5F8093A5
:104320001702002359F00E94E8089FEF10160CF4C2
:1043300091E0899F802D112480932102112359F04F
:104340000E94E8089FEF11160CF491E0899F802DE0
:10435000112480932202309121023323B1F0209165
:104360002202222391F045EB3403C001112499234A
:1043700009F4FEC09093210255EB2503900111240E
:10438000332309F4F8C03093220280911F029091E8
:104390002002892B90912102892B90912202892B56
:1043A00011F00E94AD11FB82EC820D831E8386E02A
:1043B000FE013196ADE1B2E001900D928A95E1F7F0
:1043C0000E94590890912302891721F00E945908F0
:1043D000809323020E944A0D0E946A0B8091C502BD
:1043E000882309F471CD80913F0584FF6DCD8091C4
:1043F000BB02803209F068CD009133021091340283
:10440000E091CD020115110509F4B8C0EE3F09F0A5
:10441000E3C08091CE02833020F08550833008F0D5
:10442000DBC0E091CE02E93008F0D6C0F0E0E757FB
:10443000F84D0C94F3269F5FFF0C943009F0A4CD47
:104440000F5F1F4F0430110509F093CD8FEF89875F
:104450008A871B860E94A1118160782F9D878C8797
:1044600049855A856B858D850E949E1CAACD0E9428
:104470004E0A0F5F1F4FF801849137CE8F5F4BCEEE
:10448000880F880F880F80930C0110920F01895FAD
:1044900080930D0183E08093100163CE80E2AFEE44
:1044A000B1E01D928A95E9F7E2E7F1E0FF87EE8738
:1044B0006EE671E0E7E09E2EAE85BF852D91BF8749
:1044C000AE87FB014190BF01440E552E511CC20125
:1044D00089509D4F2C01E22FF0E0E151FE4F90E01A
:1044E00080E0792C781AAA24A394082E01C0AA0C83
:1044F0000A94EAF78201B12CD801CD908D01CA202F
:10450000272D2B192770822E022E000C330BBC2D69
:1045100001C0BB0F8A94EAF78B2E319521953109A2
:104520002770332701C0C6942A95EAF78C28C080EB
:104530008C288082B39428E0B212DECF01963196A7
:104540008830910571F686E791E0AE85BF858A17C0
:104550009B0709F0B1CF04E610E020E230E04FEE17
:1045600051E01ACE30921F02BBCE30922002C1CE53
:104570003092210201CF3092220207CFE43150F471
:10458000EE2359F0E150E33140F4F0E0EE56F84DFF
:104590000C94F326EE3F09F444CF8FEF8093CD02C5
:1045A0001BC01092CE0289E08093CF0215C080918B
:1045B000CE02823009F4B4C2833071F0813069F7E1
:1045C0000E942B070E94F9266093CF027093D002BD
:1045D0008093D1029093D2020E94E60C1092BB020B
:1045E00073CC8091CE028230C1F68091CF0290913F
:1045F000D002A091D102B091D2028E879F87A88B62
:10460000B98BBC01CD010E94F92685E290E00E94A1
:104610002B27E2CF4091D0026091CF028091CE0251
:104620000E94E50D9827892798279093D2028093BE
:10463000D102D2CF2091D1023091D202322723274A
:1046400032274091D0026091CF028091CE020E9429
:104650007E10C2CF0E94B510BFCF80E18093CE0202
:10466000BBCF83E08093CE028AE19ECF8091D002BF
:10467000282F30E08D3108F0AFCF0091CE0210919D
:10468000CF021027012710276DECE62E62E0F62EF0
:10469000D901A353BD4F6D01C8018A519F4FCE145C
:1046A000DF0409F499CF0A31B3E01B0750F40E94EC
:1046B0001D27F70184830F5F1F4FBFEFEB1AFB0A23
:1046C000EBCFD70114961C92F6CF809131029091D6
:1046D0003202892B09F480CF8091D002E82EF12C90
:1046E0008D3108F079CF0091CE021091CF021027C2
:1046F000012710275DECC52E52E0D52EE00EF11EED
:10470000C8018A519F4FE016F10609F465CF0A31BE
:10471000E3E01E0728F4D60114966C910E942B2723
:10472000BFEFCB1ADB0A0F5F1F4FEACF0E94371093
:1047300053CF84E093CF8091D002282F30E08D3189
:1047400008F04ACF0091CE021091CF021027012726
:1047500010274DECE42E42E0F42EF901E353FD4F17
:104760006F01C8018696EC14FD0409F435CF0038BA
:10477000110558F40E941D27D70114968C930F5FE2
:104780001F4FFFEFEF1AFF0AECCFF7011482F7CFAC
:104790008091D002E82EF12C8D3108F01DCF0091D0
:1047A000CE021091CF0210270127102700381105E3
:1047B00008F012CF80E890E0801B910B8E159F05CA
:1047C00008F40ACF480126E2820E911C8091310242
:1047D0009091320228014E0C5F1C892BC1F03DECF8
:1047E000E32E32E0F32EC80186960415150509F470
:1047F000F3CE0038110528F4D70114966C910E946D
:104800002B27BFEFEB1AFB0A0F5F1F4FECCF68019E
:1048100031E0C322DD2400FF0FC0C80185960E944D
:104820001D279091D10289279827892781159C45BA
:1048300019F48FEF8093D102370140FE14C0C701F5
:1048400001973C01D701A053BD4F5D01C4018E0DFE
:104850009F1D0E941D27F501908181159C4519F42B
:104860008FEFD5018C93F601E353FD4F2FEFC61464
:10487000D70408F0B4CF9481858181159C4511F44B
:104880002483258332E0C30ED11C3296F0CF809171
:10489000310290913202892B09F49ECE0E94E60CDF
:1048A000EFEFF1EE24E0E150F0402040E1F700C0EE
:1048B00000000E94070790CE88E0E7E1F1E0DE010A
:1048C000119601900D928A95E1F782E08093CD02D6
:1048D0001092CE021092CF021092D00288E0FE0118
:1048E0003196A1EDB2E001900D928A95E1F774CE78
:1048F00084E08093CD023092CE021092CF021092CB
:10490000D0026ACE8091D002682F70E0762F6627A1
:104910008091CF02860F972F911D092E000CAA0BB4
:10492000BB0B25E0880F991FAA1FBB1F2A95D1F743
:10493000AC01BD01405E5F4F6F4F7F4F803E3FEF48
:104940009307A307B30708F047CE8430E1E09E0742
:10495000A105B10508F040CE4530F1E05F076105E3
:10496000710520F044E051E060E070E0481B590B15
:10497000BC016E527E4F8DEC92E00E9400272CCE3F
:104980001091CF020091D00240E0602F812F0E9451
:10499000B60D9827892798279093CE028093CD0251
:1049A00041E0602F812F0E94B60D98278927982714
:1049B0009093D0028093CF020FCE2091D2023091FB
:1049C000D3023227232732274091D1026091D002AF
:1049D0008091CF020E944710FFCD4AE150E06FEF77
:1049E00070E083ED92E00E9416278091310280935F
:1049F000CD020093CE021092CF021092D00283E03B
:104A00008093D1028093D202E7CD21E030E0309351
:104A100034022093330242E350E05093300240933B
:104A20002F020E94A11190932E0280932D02D4CDCB
:104A3000012B61F11091290200912C0280912D022D
:104A400090912E020E941C078536910550F103FFBC
:104A500028C010FF26C00E94A11190932E028093BF
:104A60002D0280912F029091300201979093300295
:104A700080932F02892B51F410923402109233024A
:104A800081E090E090933202809331028091310274
:104A90008093CD02809133028093CE0280912F02C9
:104AA00083CDA2E3B0E0B0933002A0932F02EECF0B
:104AB00010923202109231028FCDF8942AB15B9A93
:104AC000822F8C608AB99BB13CE093279BB9BFE7EA
:104AD000E8E3F1E0B150E040F040E1F700C0000051
:104AE0008BB183278BB92AB95B987894EDC960E0C4
:104AF00085E290E00E942B270E94B5100E9437109B
:104B000063E682E290E00E942B276CE183E290E072
:104B10000E942B276AE384E290E00E942B27E9C8D9
:104B200085E290E00E941D271092CF021092D002E1
:104B30001092D10267CF2D32314008F0EFCB25CC57
:104B40002D32314008F09ECBD4CB1F921FB61F925E
:104B500011248F939F93AF93BF938091D6018111BE
:104B600013C08091D7019091D801A091D901B09143
:104B7000DA014196A11DB11D8093D7019093D80110
:104B8000A093D901B093DA01BF91AF919F918F911A
:104B90001F901FBE1F9018951092B9008CE0809353
:104BA000B8000895EF92FF920F931F93CF93DF9376
:104BB000182FEB011092BC0084EA8093BC000E9485
:104BC000A1117C018091BC0087FF27C08091B900B2
:104BD000887F883029F08091B900887F8031D9F5AD
:104BE0001093BB0084E88093BC000E94A1118C014B
:104BF0008091BC0087FF24C02091B900287F90E0FD
:104C000080E02831B1F081E090E0203411F490E0B0
:104C100080E09195819591090CC0CF3FDC0791F21E
:104C20000E94A1118E199F098C179D0758F28EEFD3
:104C30009FEFDF91CF911F910F91FF90EF9008951B
:104C4000CF3FDC07A9F20E94A111801B910B8C17AA
:104C50009D0770F2ECCF8FEF9FEFEBCF0F931F9379
:104C6000CF93DF93EB018093BB0084E88093BC007B
:104C70000E94A1118C018091BC0087FF11C020917E
:104C8000B900287F81E090E0283211F490E080E0C4
:104C9000919581959109DF91CF911F910F91089581
:104CA000CF3FDC0741F30E94A111801B910B8C17B1
:104CB0009D0708F38EEF9FEFEECFCF92DF92EF923A
:104CC000FF920F931F93CF93DF936B018A01F22E14
:104CD000E32E622F732F0E94D225AC01E6010C0D4A
:104CE0001D1DC017D10711F057FF0DC084E9809337
:104CF000BC00CA01DF91CF911F910F91FF90EF90FF
:104D0000DF90CF9008956F2D7E2D89910E942E26E1
:104D1000AC01E7CFCF92DF92EF92FF920F931F93F8
:104D2000CF93DF93C62F6A017901B8010E94D22583
:104D30009C0197FD0DC0B8018C2F0E942E269C016E
:104D4000E601EC0CFD1CCE15DF0511F037FF0DC0A0
:104D500084E98093BC00C901DF91CF911F910F912D
:104D6000FF90EF90DF90CF900895B80189910E9455
:104D70002E269C01E8CF84E98093BC000895991BFE
:104D800079E004C0991F961708F0961B881F7A9542
:104D9000C9F780950895AA1BBB1B51E107C0AA1F44
:104DA000BB1FA617B70710F0A61BB70B881F991FCC
:104DB0005A95A9F780959095BC01CD01089597FB70
:104DC000072E16F4009407D077FD09D00E94CB2659
:104DD00007FC05D03EF4909581959F4F08957095FE
:104DE00061957F4F0895EE0FFF1F0590F491E02D20
:104DF00009946927962769277827872778270895B0
:104E0000FB01DC0102C005900D9241505040D8F7E3
:104E10000895FB01DC0104C08D910190801921F4FB
:104E200041505040C8F7881B990B0895DC0101C020
:104E30006D9341505040E0F70895F999FECF92BD2F
:104E400081BDF89A992780B50895A8E1B0E042E0C5
:104E500050E00C945127262FF999FECF92BD81BDC9
:104E6000F89A019700B4021639F01FBA20BD0FB6A8
:104E7000F894FA9AF99A0FBE08950396272F0E9484
:104E80002C270E942B27252F0E942C27242F0C949F
:104E90002C270196272F0E942C270C942B27DC010E
:104EA000CB01FC01F999FECF06C0F2BDE1BDF89A35
:104EB000319600B40D9241505040B8F70895F894DF
:104EC000FFCFEF15F515F91507160B160F1613166C
:104ED00019162116251629162D1639163D164116B6
:104EE00045164B1669165316FD1503163116351661
:104EF0001D164F165F16721678165F185F18CE18BB
:104F0000CE1826194019941894184D193B1A4A1AAC
:104F10004A1A5C2478248224C024DD24ED2405254B
:104F200018255825D122D722F1220A231A232A2311
:104F3000CD22CD22CD22CD2247242D23312336234D
:0A4F40006523962399239B23C823C1
:104F4A000207790D0C0D460D420D0021007F22004B
:104F5A0003FF5A00000000A2F18A6FB1A501030005
:104F6A00E200E900EA00B500B600B700CD0083010F
:104F7A00CC008A0192019401210223022402250213
:104F8A00260227022A02B300B4006F007000606193
:104F9A0062633097969500FF0100010000FFFF0051
:104FAA0000010001FF00903133359132349400083A
:064FBA0010181810080099
:00000001FF
