:100000000C9422020C9469020C9484020C946902F0
:100010000C9469020C9469020C9452200C946902AD
:100020000C9469020C9469020C9469020C946902A4
:100030000C9469020C9469020C942E200C946902B1
:100040000C9469020C9469020C9469020C94690284
:100050000C9469020C9469020C9469020C94690274
:100060000C9469020C94690200000000000000007A
:100070000000000000000000000000000000000080
:100080000000000000000000000000007E0F00D40F
:10009000FFFFFFC700000078000000000000000024
:1000A0002A2B2800000000000000000000000000D3
:1000B00000000029000000002C1E342021222434DE
:1000C0002627252E362D3738271E1F2021222324B0
:1000D00025263333362E37381F0405060708090A4C
:1000E0000B0C0D0E0F101112131415161718191AE8
:1000F0001B1C1D2F3130232D350405060708090A66
:100100000B0C0D0E0F101112131415161718191AC7
:100110001B1C1D2F3130354C5F0060006100540006
:100120005C005D005E00550059005A005B005600FF
:100130006200630067005700010001000100010038
:1001400001000100010001000100010001000100A7
:100150000100010001000100010001000100010097
:100160000100010001000100010001000100010087
:100170000100010001000100010001000100010077
:100180000100010001000100010001000100010067
:100190000100010001000100FD377A585A000004F7
:1001A000E6D6B4460200210116000000742FE5A334
:1001B000E001D200C45D003D8889C65436C3174FA4
:1001C000E4E46873BBAA4484EA5987532642E19366
:1001D0001675ABB9749FB2877F1F754A735F0A6C3F
:1001E000EFB0447C4DDC3EA8F465F96C67EF3EEA65
:1001F000A1E13795A058C29550537312C130201B0E
:10020000136E73957C0D818EBD7833E1584755ABE5
:10021000F9340EEC24C8224040291CAED26B136F77
:1002200007A01FBD7D9B64111AC027EACFF1E28FA2
:10023000180EFC3561BF5996A23C6C55D221DDE801
:1002400005F99074A2AA21CB871019E509222F1570
:100250009BB423F5F94FA5D44D11BFAEEB3B7C36D3
:10026000E2C964A7C5BE7AA734E84894F3B3EB8922
:100270004C1E5146CF1F12F52C490000793C1C2E14
:10028000A8A29F810001E001D3030000C14ED6DE89
:10029000B1C467FB020000000004595A05010902BD
:1002A000A10185020901A10005091901290515000F
:1002B00025019505750181029501750381030501ED
:1002C000093009311581257F9502750881060938A5
:1002D0001581257F950175088106050C0A380215E0
:1002E00081257F950175088106C0C005010980A19F
:1002F00001850319012AB700150126B7009501757C
:10030000108100C0050C0901A101850419012AA072
:1003100002150126A002950175108100C00660FF3C
:100320000961A1010962150026FF00952075088169
:10033000020963150026FF00952075089102C0058B
:10034000010906A101050719E029E7150025019516
:1003500008750181029501750881030507190029B7
:10036000FF150026FF009506750881000508190194
:100370002905950575019102950175039103C01C2E
:10038000037600690061006C003A006600360034B4
:10039000006300320062003300630000001E03505F
:1003A000006C006100690064002D00500061006471
:1003B0000020005200650076003200000014034B5C
:1003C00000650079006300610070007300730073C2
:1003D0000000000403090409025B00030100A032CD
:1003E00009040000010301010009210101000122AB
:1003F0004000070581030800010904010002030011
:1004000000000921010100012222000705840308E0
:1004100000010705040308000109040200010300AC
:100420000000092101010001228100070583030862
:1004300000011201100100000008837950500200F1
:100440000102030111241FBECFEFD8E0DEBFCDBFF4
:1004500004B603FE27C080910A0390910B03A0917C
:100460000C03B0910D038730904BA740B04BD1F4F3
:1004700010920A0310920B0310920C0310920D03BA
:1004800014BE84B7877F84BF0FB6F894A895809177
:100490006000886180936000109260000FBEE0E011
:1004A000F8E3099523E0A8E6B1E001C01D92AA3067
:1004B000B207E1F711E0A0E0B1E0ECE8F2E402C03D
:1004C00005900D92A836B107D9F70E94B3190C9484
:1004D00000210C940000A82FB92F80E090E041E0AB
:1004E00050EA609530E009C02D9182279795879555
:1004F00010F084279527305EC8F36F5FA8F3089546
:10050000EADF8D939D930895CF93CFB7CF93DF9379
:10051000C3954B9BE9F74B9B10C04B9B0EC04B9B6D
:100520000CC04B9B0AC04B9B08C04B9B06C0C091A4
:10053000E402C395C093E4028EC06F93C091E302BE
:10054000DD27C851DD4F2F9365E54B9B03C02F91ED
:100550006F91E1CF0F931F934F9320E040E15F93A2
:1005600009B10C7003FB27F93F9350E03BE039C021
:100570001C7040642F77012F5F5F1EC0406819B167
:100580001C702F7752501FC0406409B12F770C7038
:10059000D1F15F5F00C023C0406219B12F771C709A
:1005A00091F15F5F00C025C00C701027515012F40C
:1005B0005D5F0000115027952C3F19B1C8F61C70E3
:1005C0000127015027952C3FC8F64227499309B1CE
:1005D0000C7010274F73115027952C3FA8F64695A5
:1005E000469519B11C7079F00127015027952C3FD1
:1005F00098F66B5A60F3315009B1B0F600C012E0C2
:100600001CBB00271CC03B503195C31BD04012E0DF
:100610001CBB0881033C21F10B3411F12091E10254
:100620001981110F1213EDCF4A81441F093679F158
:100630000D3211F0013E29F74F7009F0042F00939D
:10064000E7023F915F914F911F910F912F916F9111
:10065000CCB3C1FD5DCFDF91CF91CFBFCF911895C6
:100660002091E702222369F31091E502112309F09A
:1006700049C034300AF448C03093E5022093E202C6
:100680001091E3023BE0311B3093E3023DC0009147
:10069000E5020130BCF50AE54F7049F430910B01D9
:1006A00034FD33C000930B01CEEBD2E032C04330B7
:1006B00059F0443091F03091C90234FD26C00093C6
:1006C000C902CAECD2E025C03091FE0234FD1DC043
:1006D0000093FE02CFEFD2E01CC03091D50234FD72
:1006E00014C00093D502C6EDD2E013C0052710E078
:1006F00000C000000BB91AC0052710E0221F1DC062
:1007000010E021C04AE502C032ED432FC4E1D0E041
:1007100032E01AB11C605B9A0BB11AB95CE020E8B8
:1007200065E320FF05270BB9279517951C3FF0F6C9
:100730006695B8F7B1F720FF05270BB927951795F0
:100740001C3FD0F62795179517FF052700001C3F83
:100750000BB9B0F629913A9519F7037F1091E6028B
:10076000110FC651D0400BB911F01093E10212E005
:100770001CBB08601AB1137F402F437F54E05A9589
:10078000F1F70BB91AB94BB95CCFFC018381833007
:1007900081F130F48130E9F0823019F180E0089580
:1007A000813209F44EC08232C9F72481358121306B
:1007B000310509F45BC02230310509F45EC0232BFA
:1007C00069F78FE393E0909396028093950280E41B
:1007D000089582E394E0909396028093950282E1DB
:1007E000089587ED93E090939602809395028BE5B0
:1007F000089582818230E9F050F4811112C083EDB6
:1008000093E0909396028093950284E0089583305C
:1008100029F68FE793E090939602809395028CE1FE
:1008200008958DEB93E0909396028093950284E176
:1008300008958DE993E090939602809395028EE15E
:1008400008958281813061F0823069F08111A6CFF4
:1008500089EE93E0909396028093950289E0089543
:1008600082E094E0F7CF82E294E0F4CF2DE133E030
:10087000309396022093950208958CE992E090932C
:1008800096028093950281E80895809190020895E0
:1008900080E0089588E198E00FB6F894A8958093D9
:1008A00060000FBE90936000A895F894D8E0CEEF5A
:1008B00028E3299320E0299314BEFFCF08959C01DB
:1008C0004FB7F8948091F7019091F801A091F90148
:1008D000B091FA014FBF821B930B08952FB7F89484
:1008E0008091F7019091F801A091F901B091FA017E
:1008F0002FBF08958091C30181111092C301089503
:100900008091C2019091C101892B9091C001892BE6
:1009100080936A019091C301992391F0892B809370
:100920006A0120E08CE691E0FC01308101963111F2
:100930002F5F31E082379307B9F721110E947A04C3
:10094000E091CF01F091D001309731F00280F38136
:10095000E02D8AE691E009940895ECE6F1E09191AA
:10096000891303C0DF0111971C9291E0E237F90768
:10097000B1F70895ACE6B1E0EFEF90E02D9182176A
:1009800051F0EF3F19F4211101C0E92F9F5F96301C
:10099000A9F7EF3F09F408950E2E000CFF0BE6595E
:1009A000FE4F82830895E92FEE0FEE0FE80F9E2F82
:1009B0009770E695E695E69585E0E89FF0011124AD
:1009C000EB54FE4F50E040E080E0219130E0092EF2
:1009D00002C0369527950A94E2F721703327042E3A
:1009E00001C0220F0A94EAF7822B4F5F5F4F453018
:1009F000510559F70895E92FEE0FEE0FE80F8E2FEE
:100A0000877041E001C0440F8A95EAF7E695E695C4
:100A1000E69585E0E89FF0011124EB54FE4F30E0AD
:100A200020E070E05191DF011197CB01022E02C04E
:100A3000969587950A94E2F781708195852784239E
:100A400085278C932F5F3F4F2530310559F7089547
:100A50008091B40190918301981301C008958F5F34
:100A60008770FACF882341F080959091C101892346
:100A70008093C1010C9480040895882339F09091EB
:100A8000C101892B8093C1010C94800408958823AF
:100A900041F080959091C20189238093C2010C940A
:100AA00080040895882339F09091C201892B8093A6
:100AB000C2010C948004089520917A0130917B0149
:100AC0002817390771F090937B0180937A01E091A8
:100AD000CF01F091D001309721F00084F185E02D15
:100AE00009940895209178013091790128173907E8
:100AF00071F09093790180937801E091CF01F091AA
:100B0000D001309721F00680F781E02D09940895F7
:100B1000E091CF01F091D001309721F00190F08168
:100B2000E02D099480E008950E946E042091E50173
:100B30003091E601232B21F08093E1019093E201B3
:100B40002091E7013091E801232B21F08093DE0111
:100B50009093DF01E091CF01F091D001309749F0FF
:100B600082E08093E3010480F581E02D83EE91E043
:100B70000994089590E080E00E94720590E080E082
:100B80000E945C051092C1011092C0010E94800475
:100B900086E0E3EEF1E0DF011D928A95E9F710921D
:100BA000E0011092DD0110927C010C949405609399
:100BB000BA027093BB028093BC029093BD020C9466
:100BC000BA05CF93DF9300D000D0CDB7DEB78091C8
:100BD000BA029091BB02A091BC02B091BD02AC01DF
:100BE000BD0146705527662777279C014630510581
:100BF0006105710591F4AD01286029833A834B8327
:100C00005C8369817A818B819C810F900F900F901A
:100C10000F90DF91CF910C94D705AD01277FEDCFD9
:100C20000F931F93CF93DF9300D000D0CDB7DEB7E3
:100C300041E050E060E070E004C0440F551F661FC3
:100C4000771F8A95D2F74095509560957095809161
:100C5000BA029091BB02A091BC02B091BD028A0180
:100C60009B01082319232A233B2309831A832B83FF
:100C70003C83C901B8010F900F900F900F90DF9146
:100C8000CF911F910F910C94D7059091BF01809542
:100C900089238093BF01282F277071F4282F082EF5
:100CA000000C330B9217130639F0859585958595C1
:100CB0000E9410061092BF0108950F931F93CF93C7
:100CC000DF9300D000D0CDB7DEB741E050E060E068
:100CD00070E004C0440F551F661F771F8A95D2F736
:100CE0008091BA029091BB02A091BC02B091BD026A
:100CF0008A019B01082B192B2A2B3B2B09831A8372
:100D00002B833C83C901B8010F900F900F900F9077
:100D1000DF91CF911F910F910C94D7056093C4017F
:100D20007093C5018093C6019093C7010C94BA05D6
:100D30009091E501803F59F48091E60187FF0DC055
:100D40001092E60191110BC01092E00108C0813FA2
:100D500081F48091E60118169CF3992381F080912B
:100D6000E7019091E801892B09F064C01092DD0140
:100D70000895823F49F497FFF0CF1092E5018091EA
:100D8000E6018111ECCFE0CF833F19F41916ACF3E3
:100D9000E4CF2091E701893F29F41216F4F610926E
:100DA000E701DBCF8A3F19F427FFD7CFF8CF209197
:100DB000E8018B3F29F427FFD0CF1092E801CDCF77
:100DC0008C3F19F41216CCF3C8CF843F31F48091D4
:100DD000E4018E7F8093E401C0CF853F21F48091B0
:100DE000E4018D7FF7CF863F21F48091E4018B7F72
:100DF000F1CF873F21F48091E401877FEBCF883FDB
:100E000021F48091E4018F7EE5CF8D3F31F4809114
:100E10007C018E7F80937C01A0CF8E3F21F4809156
:100E20007C018D7FF7CF8F3F09F097CF80917C01B8
:100E30008B7FF0CF0895882309F459C0823871F46C
:100E40000E94880581FF53C089E30E94BA040E9472
:100E5000800489E30E94AD040C948004833859F423
:100E60000E94880580FF43C083E50E94BA040E9467
:100E7000800483E5EFCF843859F40E94880582FF0F
:100E800036C087E40E94BA040E94800487E4E2CF5F
:100E90009CEF980F913AF0F290E2980F983088F416
:100EA000877021E030E0A90102C0440F551F8A95E8
:100EB000E2F7CA0180959091C20189238093C20113
:100EC000CBCF9BE5980F933020F490E080E00C941A
:100ED000720598E5980F973120F490E080E00C942B
:100EE0005C05803F20F00E9498060C9494050895BC
:100EF00080917C0180FD16C081FD16C082FD16C068
:100F00008091DD018823A1F0883280F428E0829F5F
:100F1000C001112468E270E00E947920862F672BBF
:100F200039F0089582E0089584E0089588E00895F6
:100F300081E0089580917C0180FD14C081FD14C082
:100F400082FD16C08091E001882381F0843180F415
:100F500022E3829FC001112464E170E00E947920A5
:100F6000862F08958CE0089589E1089585E008951D
:100F700082E30895803F31F40E949A07819580931F
:100F8000E6010895813F19F40E949A07F8CF823F45
:100F900031F40E949A0781958093E5010895833F7B
:100FA00019F40E949A07F8CF893F29F40E94780724
:100FB0008093E70108958A3F21F40E947807819584
:100FC000F7CF8B3F31F40E94780781958093E80139
:100FD00008958C3F19F40E947807F8CF843F31F4CC
:100FE0008091E40181608093E4010895853F21F4BC
:100FF0008091E4018260F7CF863F21F48091E40183
:101000008460F1CF873F21F48091E4018860EBCFC9
:10101000883F21F48091E4018061E5CF8D3F31F478
:1010200080917C01816080937C0108958E3F21F442
:1010300080917C018260F7CF8F3FB9F780917C016E
:101040008460F1CFF894E82FE295EF70F0E041A1D1
:101050008F7021E030E0B90102C0660F771F8A95DA
:10106000E2F7CB01962F9095942391A392A1892B1F
:1010700082A3789408959091CD0192FF06C0282F05
:1010800028712830F9F4877F846093FF06C0282FE9
:1010900028712831F1F4877E84612091CE0120FFF0
:1010A00006C0382F38713830D9F4877F816021FF2E
:1010B00006C0282F28712831D1F4877E816194FDE4
:1010C000877E0895282F24712430F9F68B7F88605D
:1010D000DCCF282F2471243101F78B7E8861DDCF8E
:1010E000382F3171313019F78E7F8860E0CF282F8B
:1010F0002171213121F78E7E8861E1CF8091FF013E
:10110000882321F11092C80188E190E020E40FB615
:10111000F894A895809360000FBE2093600083B779
:10112000817F846083BF83B7816083BF7894889513
:1011300083B78E7F83BF0FB6F894A8958091600027
:10114000886180936000109260000FBE0895CF9375
:10115000DF939C01FB019A9581159F4160F5E901A0
:10116000CC27D170D901AA27B270B9016627747053
:10117000A9014427587034FF10C080E1CD2B09F439
:1011800080E0AB2B09F08062672B09F08064452B6F
:1011900009F08068DF91CF91099481E0CD2B09F4AB
:1011A00080E0AB2B09F08260672B09F08460452B4F
:1011B00089F38860EFCFDF91CF910895CF93DF93CC
:1011C0008091E502835087FD14C09091E302CCE04A
:1011D000D0E0C91BD109C851DD4F9091E202903196
:1011E00008F070C0883009F458C01092850210923F
:1011F000E50280910B0184FF43C080910A018F3F7B
:1012000009F43EC0C82F893008F0C8E0982F9C1B15
:1012100090930A019091BE0228E892279093BE0213
:10122000882301F180919502909196022091940279
:1012300026FF0AC1FC012C2F4FEB52E03491DA015A
:101240003C934F5F5F4F31962150C1F79C012F5F58
:101250003F4F8FEF8C0F820F932F911D909396022B
:10126000809395026C2F8FEB92E00E94800284E0C5
:101270008C0FC83019F09FEF90930A0180930B01F7
:1012800084E199B19C7031F48150D9F71092E60253
:101290001092E102DF91CF9108958091850289310A
:1012A00008F0A3CFE82FF0E0E956FD4F9E01285F3C
:1012B0003F4F999191932C173D07D9F7885F809301
:1012C000850295CF9D3209F0A3C0883009F08FCFF9
:1012D00083EC8093BE028AE580930B011092940206
:1012E0008881807609F447C0803229F58981813070
:1012F00099F48C819D81892BF1F487E892E0909399
:1013000096028093950288E09F81911131C09E8161
:10131000981770F5892F2CC0823041F486E892E04E
:10132000909396028093950281E0EECF8A3029F463
:101330008B818093860280E0E7CF8930E1F78A8154
:101340009B818115924069F48C819D81892B49F4A0
:1013500081E0809393028E819F819093920280938B
:101360009102888187FF52C08E8190E89093940209
:1013700080930A013CCF2A811092C7029981911172
:101380000AC01092C80227EC32E082E03093960245
:1013900020939502B9CF953029F42093E60227ECEB
:1013A00032E0F4CF9630C1F49B81913049F4CE0104
:1013B0000E94C50390E4909394028F3F91F2A4CFD2
:1013C0009230A9F3933099F3913289F3923279F301
:1013D00090E49093940298CF983089F0993019F462
:1013E00020938F02DCCF9A3071F09B30C1F69BE4E2
:1013F0009093CA029093FF029093D602D0CF2FE829
:1014000032E081E0C3CF27EC32E0FBCF8FEFADCFEE
:101410008091940287FFEBCE80919102909192028D
:10142000892B71F080919302813051F488818093EF
:101430009002109292021092910210920A01D7CE5D
:101440008EE180930B01D3CEDC012C2F4FEB52E0C9
:10145000FA013D9130834F5F5F4F2150C9F7F6CEBF
:101460001F93CF93DF93782F162FEA01888184FF93
:101470001EC0898128E882278983AE014E5F5F4FB5
:10148000FA01272F392F710FD9012F5F3F4F8C9110
:101490008193872F821B1816BCF3612FCA010E940B
:1014A00080021C5F1883DF91CF911F9108958AE518
:1014B0008883E3CFCF93DF93C7E9D2E08091D50251
:1014C00084FF18C045ED52E068E0CE010E94300A6A
:1014D000289682E0C73BD80789F78091D50284FF20
:1014E0000CC045ED52E060E090E080E0DF91CF91EC
:1014F0000C94300A0E94DE08E1CF0E94DE08EDCF96
:101500002091FE0224FF05C04EEF52E066E00C94ED
:10151000300A0895CF93DF9300D00F92CDB7DEB796
:101520009B0190918402981307C0409182025091D0
:10153000830246175707A1F08093840230938302F9
:101540002093820289833B832A838091FE0284FF59
:1015500007C04EEF52E063E0CE0101960E94300AD0
:101560000F900F900F90DF91CF910895BC0184E010
:101570000C948A0ABC0183E00C948A0ACF93DF930F
:10158000CAE0D0E08091C90284FF1CC08091800233
:1015900090918102981799F028E0829FC001112450
:1015A00049EC52E068E080509E4F0E94300A8091E2
:1015B000800290E001968F70992780938002DF91DE
:1015C000CF9108950E94DE088FE99FE00197F1F71F
:1015D00000C000002197B1F6F2CFCF93DF93D82F50
:1015E000C92FA0918102B0E0CD0101968F7099279B
:1015F00020918002281781F093E0AA0FBB1F9A95D3
:10160000E1F7A050BE4F98E0ED2FFC2F01900D9216
:101610009A95E1F7809381020E94DE080E94BE0A3B
:1016200088E0ED2FFC2FA7E8B2E001900D928A959B
:10163000E1F7DF91CF910895CF93C82F882309F464
:101640008FC08238C1F40E94880581FD89C089E37A
:101650000E94BA040E9480042FEF31EE84E02150F2
:1016600030408040E1F700C0000089E30E94AD04F3
:10167000CF910C9480048338A1F40E94880580FDEA
:101680006FC083E50E94BA040E9480049FEF21EEA0
:1016900034E0915020403040E1F700C0000083E585
:1016A000E5CF8438A1F40E94880582FD59C087E403
:1016B0000E94BA040E9480048FEF91EE24E08150D2
:1016C00090402040E1F700C0000087E4CFCF8CEFCE
:1016D0008C0F813A68F4ECE6F1E08191C817D1F102
:1016E00031E0E237F307C9F78C2F0E94BA04C0CF6C
:1016F00080E28C0F883068F4C77021E030E001C0D0
:10170000220FCA95EAF78091C201822B8093C20111
:10171000AFCF8BE58C0F833038F42C2F2452330B52
:10172000C901CF910C947205E8E5EC0FE73150F454
:10173000F0E0EE0FFF1FE75EFE4F80819181CF91B9
:101740000C945C05C03F60F08C2F0E94BA07CF91CB
:101750000C9494058C2F0E94AD040E948004C4CF89
:10176000CF9108950F931F93CF93C82F10E000E0FF
:10177000893311F400E510E08C2F0E941C0B011539
:10178000110531F48C2FCF911F910F910C941B07F1
:101790008FE99FE00197F1F700C0000001501109A7
:1017A000EECFFF920F931F93CF93DF93C62FD42FCB
:1017B000122FFC0182818823A9F06093B9020E9454
:1017C0006E049093B8028093B702C77081E001C0A5
:1017D000880FCA95EAF7DF91CF911F910F91FF9083
:1017E0000C9452058091B902681334C08091B702FD
:1017F0009091B8020E945F04883C910558F500E280
:101800000D0FCD17A9F0C770FF24F3948F2D01C0E1
:10181000880FCA95EAF70E944705083048F48D2FD3
:10182000877001C0FF0C8A95EAF78F2D0E94520540
:10183000812F0E94B20B0830A0F4D77081E001C064
:10184000880FDA95EAF7DF91CF911F910F91FF9002
:101850000C944705C77081E001C0880FCA95EAF76C
:10186000F2CFDF91CF911F910F91FF900895BF921A
:10187000CF92DF92EF92FF920F931F93CF93DF935C
:1018800087E4E82E81E0F82EC9ECD1E0C12CD12C00
:1018900001E010E0F70181917F01F894E82FE295D3
:1018A000EF70F0E021A18F70A80102C0440F551F16
:1018B0008A95E2F7CA01922F982B91A392A1809565
:1018C000892382A3789400C0EBE4F1E030E020E0CB
:1018D000B12C4191A42FA295AF70B0E090968C915D
:1018E00090E04F7002C0959587954A95E2F780FD8C
:1018F00048C0802F022E01C0880F0A94EAF7B82A48
:101900002F5F3F4F2430310521F7F7013197808158
:101910000E94220853E0C51619F080EA8A95F1F773
:101920008881B81681F1B88281E0D82AC3942196C3
:10193000E4E0CE12AFCFDD2041F181E0809375016C
:101940000E946E04909374018093730180917301DF
:10195000909174010E945F040697D8F08091C901AC
:101960008093EF018091CA018093F0018091CB01B7
:101970008093F1018091CC018093F2011092750166
:1019800008C080E0BCCF80E0D0CF8091750181118C
:10199000DDCF8D2DDF91CF911F910F91FF90EF90B3
:1019A000DF90CF90BF900895AF92BF92CF92DF9219
:1019B000EF92FF920F931F93CF93DF93EC018AE096
:1019C000A82E2881222309F48CC02130C9F59981E1
:1019D0008A81913021F422960E94B20B05C0923088
:1019E00029F422960E941C0B2196EBCF933021F410
:1019F00022960E941B07F8CF943011F02196F4CF65
:101A0000229630E020E0AE014F5F5F4F8053990B8C
:101A10008A30910550F02150310930F38FE99FE071
:101A20000197F1F700C00000F6CFA29EB001A39E7F
:101A3000700D11249C01260F371F8981EA01E3CF25
:101A4000E22FF0E0E856FF4FB490822F86958695FE
:101A5000869590E0FC01E857FF4FE4902770F12C49
:101A6000022E02C0F594E7940A94E2F731E0E322F3
:101A7000FF24FC01E858FF4FC490D12C022E02C075
:101A8000D594C7940A94E2F731E0C322DD24FC0127
:101A9000E859FF4F049110E002C0159507952A956B
:101AA000E2F701701127E114F10419F081EE0E94B0
:101AB0001C0BC114D10419F086EE0E941C0B8B2D57
:101AC0000E94B20BCD2819F086EE0E941B07EF286A
:101AD00019F081EE0E941B07012B09F485CF8CE2DF
:101AE0007BCFDF91CF911F910F91FF90EF90DF900F
:101AF000CF90BF90AF900895CF9384E090E00E9484
:101B0000BE20C82F81E290E00E94BE20982F8C2F2B
:101B1000CF9108950F931F93CF93DF93843030F5C7
:101B2000643020F520E1829FE001112434E0639FBE
:101B3000B0011124C60FD71F50E0440F551FC40F2A
:101B4000D51FCA55DF4FCE010E94BE20082F10E0DE
:101B5000102F0027CE0101960E94BE209801282B4D
:101B6000C901DF91CF911F910F91089590E080E01E
:101B7000F8CF0F931F93CF93DF93843038F5643001
:101B800028F5443018F528E0629FE001112450E068
:101B9000440F551FC40FD51F30E2839FC00111248D
:101BA000C80FD91FCE0186960E94BE20082F10E0D4
:101BB000102F0027CE0187960E94BE209801282B67
:101BC000C901DF91CF911F910F91089590E080E0BE
:101BD000F8CF462F672F2091FD013091FE01232B76
:101BE00089F47E3F39F44E3F69F4809176019091FB
:101BF00077010895843030F4743020F4443010F4C8
:101C00000C94B90D90E080E00895CF93DF930E948B
:101C1000E90DEC01803E910509F46EC060F5813359
:101C2000910509F4B1C088F48932910509F4A5C081
:101C30008A9709F4B0C0C130D10551F1CE010497A3
:101C4000813A910508F064C023C08933910509F4F5
:101C50004CC08238910509F448C08533910509F4D8
:101C600085C0883A910508F09DC0853A910518F322
:101C7000A497D0640DC0843E910509F45CC060F463
:101C8000823E910509F447C0833E910509F448C09E
:101C9000CE01DF91CF910895863E910509F456C09B
:101CA000873E910509F457C0811522E5920708F097
:101CB000ACC0811531E5930708F0FCC0883E910562
:101CC00038F3811540E5940708F083C0C11580E41E
:101CD000D80708F0ECC0CF3FD10511F008F072C072
:101CE000C03FD105A8F0D065D3CF8091CD018370DE
:101CF00079F2C0EED0E0CCCF8091CD0180FD07C15C
:101D00009091CE0190FFC4CFC3EED0E084FFC0CF4E
:101D1000D0E0C0E0BDCF8091CD0182FDF5CFB8CF3E
:101D20008091CD0182FDF6C09091CE0190FDE1CF72
:101D300084FFAECFEDCF8091CE0181FFA9CF8091FE
:101D4000CD01C7EED0E084FDE3CFA2CF8091CD01DD
:101D500083FDF7CF9DCF8091CD0183FDDEC09091B3
:101D6000CE0191FFE5CFC4EED0E092CF8091CD01BE
:101D700085FF8ECFC9E2D0E08BCF8091CD0185FF6A
:101D800087CFC5E3D0E084CF8091CD0186FF80CF9F
:101D9000CAE2D0E07DCF8091CD0186FF79CFC1E34B
:101DA000D0E076CF885A9109479708F0B1CFC85A4A
:101DB000D0E0CC0FDD1FC75EDE4F0990D881C02D6B
:101DC000D46466CFCE019A9581159F4108F460CF07
:101DD0009FCFF4E096958795FA95E1F783702C2FC5
:101DE00026952695237040E2249F90011124382BDC
:101DF0008C2F8370C1E0D0E002C0CC0FDD1F8A952C
:101E0000E2F7C22BD32BDC6843CFC11586E5D80798
:101E100030F5C11595E5D90708F060C0C11524E576
:101E2000D207C0F49C2F969596959E012370332778
:101E3000C115D34508F043C0C1E0D0E002C0CC0FCB
:101E4000DD1F2A95E2F720E2929FC0011124C82BE2
:101E5000D92BD9CFDC2FCC27C46FD06A19CFC115AD
:101E60003AE5D30788F4C11549E5D40708F041C025
:101E7000CE0198558F3F910511F008F049CFDC2F26
:101E8000CC27C06FD06A04CFCE0190568115904206
:101E900008F03ECF8D2F8F710E943B0890E0982F65
:101EA000882788279F719C012C2BE90120C0DF70B7
:101EB000D06AEECED82FCC27C16FD06AE9CEC1E070
:101EC000D0E002C0CC0FDD1F2A95E2F730E2939FED
:101ED000C0011124C82BD92BDA68DACE8C2F0E94CE
:101EE0003B08C82FD0E0DC2FCC27CC27DF71D06295
:101EF000CFCE8C2F8F700E943B0834E0D695C795CB
:101F00003A95E1F7CF70DC2FC82FD069C1CEC9E375
:101F1000D0E0BECEC2EED0E0BBCEC6EED0E0B8CEB2
:101F2000BF92CF92DF92EF92FF920F931F93CF93C6
:101F3000DF938C01C090BA02D090BB02E090BC024B
:101F4000F090BD028091C4019091C501A091C6019D
:101F5000B091C701C82AD92AEA2AFB2ACFE1D0E0EA
:101F6000BC2ED701C6010C2E04C0B695A795979537
:101F700087950A94D2F780FD0EC0219788F7B12C7F
:101F80008B2DDF91CF911F910F91FF90EF90DF90FC
:101F9000CF90BF900895B8018C2F0E94050E019735
:101FA00061F3EECFCF93DF93D82FC92F0E94900F0C
:101FB0006D2F7C2FDF91CF910C94050E0E94D20FD4
:101FC000282F892F8F70392F32953F70903C80F4E5
:101FD0003A30B0F4343020F4323090F480E0089598
:101FE0003630E1F781E0283E88F0213FB9F70EC096
:101FF0003C3011F03F3091F786958695869508958F
:1020000081E0203F39F018F4283E40F70895243F3E
:1020100029F7FCCF0895CF93DF93C6EED0E060E0C0
:10202000CE010E94CC202196C11584E0D807B9F7D3
:10203000DF91CF9108950F931F93CF93DF93890181
:10204000843058F5643048F5423038F521153C4568
:1020500031F42091FB013091FC01232BF1F090E150
:10206000899FE001112484E0689FB0011124C60F0C
:10207000D71F50E0440F551FC40FD51FCA55DF4F5F
:10208000612FCE010E94CC20602FCE010196DF91FE
:10209000CF911F910F910C94CC20DF91CF911F9184
:1020A0000F9108950F931F93CF93DF93890184308D
:1020B00058F5643048F5443038F501152CE5120721
:1020C00031F42091FB013091FC01232BE9F098E0E1
:1020D000699FE001112450E0440F551FC40FD51F24
:1020E00020E2829FC0011124C80FD91F612FCE01A9
:1020F00086960E94CC20602FCE018796DF91CF91EB
:102100001F910F910C94CC20DF91CF911F910F91D3
:1021100008958F929F92AF92BF92CF92DF92FF92DB
:102120000F931F93CF93DF93A090FB01B090FC011E
:1021300081E090E09093FC018093FB01D12CC12CB5
:10214000C0E04601D0E014C0F801259134914F2D34
:102150006D2F8C2F0E9452100E5F1F4FF39484E05E
:10216000F812F2CF84E0880E911CDF5FD43039F092
:102170008401000F111F085E1E4FF12CE5CFD0E047
:1021800021E030E040E06D2F8C2F0E941B1021E0F9
:1021900030E041E06D2F8C2F0E941B10DF5FD430A8
:1021A00079F7CF5F80E1C80ED11CC43051F6B092F0
:1021B000FC01A092FB01DF91CF911F910F91FF9045
:1021C000DF90CF90BF90AF909F908F900895109226
:1021D000C201ECE6F1E086E0DF011D928A95E9F7A5
:1021E0000C94BA056BEE7EEF90E080E00E94EA204E
:1021F00060E082E090E00E94CC2060E083E090E02C
:102200000E94CC201092C4011092C5011092C60108
:102210001092C70160E084E090E00E94CC2060E072
:1022200081E290E00E94CC2060E085E090E00E9496
:10223000CC2060E086E090E00E94CC206FEF87E049
:1022400090E00E94CC2040E050E0BA0188E090E0AD
:102250000E94DE2060E08DE090E00E94CC2040E013
:1022600050E0BA0188E190E00E94DE2060E087E162
:1022700090E00E94CC2040E050E0BA018CE190E078
:102280000E94DE2060E080E290E00E94CC2040E0EE
:1022900050E0BA0188E190E00E94DE2040E050E08A
:1022A000BA018FE090E00E94DE2040E050E0BA01E9
:1022B00083E190E00C94DE20BF92CF92DF92EF9208
:1022C000FF920F931F93CF93DF9300D000D0CDB731
:1022D000DEB78C01CB01FB01F280FF2009F4FFC1C6
:1022E000980122513F452031310508F0A8C18FEFF8
:1022F00093E00E94BE20811181C0025186EEC82E5B
:10230000D12C01113DC080910C0190910D01A09143
:102310000E01B0910F0189839A83AB83BC83BB24E8
:10232000BA9486010F5F1F4FC6010E94BE208983A9
:102330001A82882309F462C0813009F054C0760102
:1023400032E0E30EF11CC8010E94BE20082F8A83F0
:10235000882309F453C0C7010E94BE20182F8FEFB5
:10236000800F8330D8F4760183E0E80EF11C1B83E4
:10237000112321F0CE0101960E94D40C6701D1CF28
:10238000C114F4E0DF06D1F1C6010E94BE20811124
:1023900001C001502FEFC21AD20AB3CF043071F737
:1023A000760194E0E90EF11CC60103960E94BE205E
:1023B000282F112319F1882309F12150330BB29EE4
:1023C000A001B39E500D1124E12FE150FF0BCF016E
:1023D000840F951F019790F2EFE9FFE03197F1F735
:1023E00000C00000F7CFCE0101960E94D40C780106
:1023F000C5CF81E00E945D060E94E105F12C05C079
:1024000081E00E9410060E94E1058F2D0F900F9031
:102410000F900F90DF91CF911F910F91FF90EF9050
:10242000DF90CF90BF90089582E0E4CF053F3CE578
:102430001307F1F027E245EE66EE063FECE51E07D6
:1024400041F027E245EE64EE043FFCE51F0709F08A
:1024500018C10E94D10BD2CF26E241EE61EEF9CF36
:1024600027E245EE65EEF5CF26E241EE60EEF1CFD4
:1024700026E241EE62EEEDCFC8018A5F9C450997E6
:1024800008F40DC106318CE5180709F0BFC0809132
:10249000C2018A7A91E009F490E09093720181116F
:1024A000A9C089E20E94BA040E948004A7CFF80163
:1024B000E350FC458091CD018160E331F10590F45A
:1024C000EE5FFE4D0C948D200A5F1C45093011050E
:1024D00008F0F5C00B5E1E4DF8010C948D20809124
:1024E000CD0182608093CD01EAC08091CD018460EE
:1024F000F9CF8091CD018860F5CF8091CE018160C8
:102500008093CE01DCC08091CE018260F9CF8091B2
:10251000CD018061E7CF8091CD018062E3CF8091D2
:10252000CD018064DFCF0E94E7108091CD018068EB
:10253000D9CF8091CD018C60D5CF8091CE018360C1
:10254000DFCF8091CD018E7FCDCF8091CD018D7F6A
:10255000C9CF8091CD018B7FC5CF8091CD01877F81
:10256000C1CF8091CE018E7FCBCF8091CE018D7F68
:10257000C7CF8091CD018F7EB5CF8091CD018F7D6A
:10258000B1CF8091CD018F7BADCF0E94E7108091BC
:10259000CD018F77A7CF8091CD01837FA3CF80918D
:1025A000CE018C7FADCF8091CD0182FB992790F930
:1025B00021E0922790FB82F990FB83F993CF8091E1
:1025C000CE01982F909591708E7F892B90FB81F989
:1025D00097CF0E94E7109091CD01892F97FB87F943
:1025E000805880CF61E08EE090E00E94CC2067C0F0
:1025F00060E0F9CF85E356CF80917201811104C06C
:1026000089E20E94AD0450CF85E3FBCF0115FCE5C4
:102610001F0739F00E3D1C4509F0F7CE0E94F2105D
:10262000EDCE0E94E7103FEF84E39CE03150804004
:102630009040E1F700C000000E944A04DFCE003164
:10264000EFE51E0709F4D5CE0131FFE51F0709F4B8
:10265000EBCE033F2CE5120709F406CF08F0E6CED7
:10266000083DECE51E0709F4FBCE28E241E0093DF8
:10267000FCE51F0709F4F6CE073D2CE5120709F427
:10268000EBCEFF20C1F11092B90206312CE5120702
:1026900008F0F2CE02303CE5130708F4B7CF0E94F1
:1026A0007C0D9093CE018093CD0106318CE5180707
:1026B00008F00ACF02309CE5190708F0F8CE6091C7
:1026C000CD011091CE0184E090E00E94CC20612FDA
:1026D00081E290E00E94CC200E94E7108FCE003172
:1026E0002FE5120709F48CCE01313FE5130709F0FD
:1026F000B0CF82E086CE06311C4509F47DCFFF24A1
:10270000F39483CE0F931F93CF93DF9300D000D029
:1027100000D0CDB7DEB78C0190937701809376011E
:102720001C821D821E828EEF89838A8381E08B83C7
:102730000E946E0481609D838C83011580E21807DE
:1027400008F03FC0C801805E9109089728F06DE34A
:1027500075E00115110511F462E575E0C8010E94EC
:10276000A708802F0E941C0B8FE39CE90197F1F7CB
:1027700000C000000E946E0481609D838C831B82D8
:10278000011590E2190720F5802F0E941B07C80150
:10279000805E9109089728F062E375E00115110544
:1027A00011F467E475E0C8010E94A70826960FB6E9
:1027B000F894DEBF0FBECDBFDF91CF911F910F9177
:1027C0000895BE016F5F7F4FC8010E945C11CCCF9E
:1027D000BE016F5F7F4FC8010E945C11E7CFCF92AF
:1027E000DF92EF92FF920F931F93CF93DF93182FF7
:1027F000062FC090BA02D090BB02E090BC02F090CD
:10280000BD028091C4019091C501A091C601B09113
:10281000C701C82AD92AEA2AFB2ACFE1D0E0D7018A
:10282000C6010C2E04C0B695A795979587950A9476
:10283000D2F780FF12C0402F612F8C2F0E948A0D8B
:102840008130910551F0DF91CF911F910F91FF9051
:10285000EF90DF90CF900C948213219700F7402FD8
:10286000612F80E00E948A0DEECF7F928F929F921F
:10287000AF92BF92CF92DF92EF92FF920F931F938E
:10288000CF93DF93CDB7DEB729970FB6F894DEBFAD
:102890000FBECDBF6C01FC0183819481892B31F087
:1028A0008081918189238F3F09F0F4C229960FB668
:1028B000F894DEBF0FBECDBFDF91CF911F910F9176
:1028C000FF90EF90DF90CF90BF90AF909F908F9050
:1028D0007F9008950E94900F182F682F89819A8108
:1028E0000E94FB0469817A81812F0E94E90DB60163
:1028F0000E945C1181111EC08091BF018770B1F2EE
:10290000F6018281882391F282E029960FB6F8942D
:10291000DEBF0FBECDBFDF91CF911F910F91FF9012
:10292000EF90DF90CF90BF90AF909F908F907F906F
:102930000C944506F6018281E080F1808823D1F174
:10294000C7010E94900F182F682FC7010E94FB0437
:10295000B701812F0E94050E8C01782EF601F280BE
:10296000E580E2942FE0E2228091BF018770A1F020
:102970009F2CFF2091F0812F807F803421F080E216
:10298000800F883048F082E00E9445068091BF01A8
:102990008770992493948111912C812F82958F7047
:1029A000A82EB12C8C3008F03FC0F501E25EFE4D40
:1029B0000C948D20C7010E94D304182FC9CFF12F8A
:1029C000FF70EF2E107F19F0E29490EFE922802F34
:1029D000FF20C9F0EE2069F090E2900F983010F0DF
:1029E00001110BC08091C201E82AE092C2010E944D
:1029F0008004802F0E941C0B17C08091C101E82A1F
:102A0000E092C101F4CF0E941B07EE2069F0E09430
:102A1000005E083010F071103BC08091C201E822C6
:102A2000E092C2010E948004E8E0AE1AB108F4E02E
:102A3000AF16B10410F40E948805992009F436CF2E
:102A40008091BF0180FD32CFF60112828595859578
:102A500085950E945D06C6010E9435148091BF01D4
:102A600085958595859529960FB6F894DEBF0FBE9E
:102A7000CDBFDF91CF911F910F91FF90EF90DF902D
:102A8000CF90BF90AF909F908F907F900C94100646
:102A90008091C101E822E092C101C4CF212F2F70A3
:102AA000822E107F103219F0829480EF88227720D6
:102AB00071F031E0731661F1FF20B9F1EE2071F190
:102AC000F601858180FF95CF8F70858327C0FF2019
:102AD00091F09091C301882D892BE11003C00E94D1
:102AE0005205A2CF41E0E412FACF981709F49CCF27
:102AF0008093C30199CFE11006C00E947A04882D0B
:102B00000E94470591CF51E0E51609F48DCFF5CF2E
:102B1000FF2031F065E06E1508F486CF882DDFCFF9
:102B200074E07E1508F480CFEACFEE2041F309333C
:102B300049F4FFEF17EE23E0F15010402040E1F799
:102B400000C00000802F0E941B076ECF812F86954A
:102B50008695837061F0813009F066CFC80193706B
:102B6000F11002C090E080E00E945C055DCFC801DA
:102B70009370F11002C090E080E00E94720554CF83
:102B8000802FFF2039F00E94BA070E9494050E940E
:102B900094054ACF0E949806FACF812F837009F0DE
:102BA00072C0F11041CF202F229526952770220F59
:102BB000220F402F4F7050E070E060E0022E04C002
:102BC000440F551F661F771F0A94D2F780E090E0EC
:102BD000DC0104FF0FC08FE090E0A0E0B0E004C093
:102BE000880F991FAA1FBB1F2A95D2F78095909531
:102BF000A095B095E12FE695E695E370E23051F1AE
:102C0000E33009F10091C4011091C5012091C60182
:102C10003091C701E13099F0842B952BA62BB72B6F
:102C2000AC01BD0140235123622373234E835F8394
:102C300068877987CB01BA010E948E06F5CE402BBA
:102C4000512B622B732B8A019B01082B192B2A2BEA
:102C50003B2B12C0842B952BA62BB72B4091C40184
:102C60005091C5016091C6017091C7018C019D0111
:102C700004271527262737270E831F8328873987A0
:102C8000C901B801D9CF8695FF2011F0812F81703D
:102C9000882309F4C9CE202F229526952770220F6C
:102CA000220F402F4F7050E070E060E0022E04C011
:102CB000440F551F661F771F0A94D2F780E090E0FB
:102CC000DC0104FF0FC08FE090E0A0E0B0E004C0A2
:102CD000880F991FAA1FBB1F2A95D2F78095909540
:102CE000A095B095E12FE695E695E370E23081F18D
:102CF000E330F9F00091BA021091BB022091BC02BE
:102D00003091BD02E13089F0842B952BA62BB72B97
:102D1000AC01BD0140235123622373234E835F83A3
:102D200068877987CB01BA0110C0402B512B622BE9
:102D3000732B8A019B01082B192B2A2B3B2B0E830B
:102D40001F8328873987C901B8010E94D7056CCE37
:102D5000842B952BA62BB72B4091BA025091BB0226
:102D60006091BC027091BD028C019D010427152762
:102D700026273727E4CF1F70FF2029F0812F0E94DC
:102D80005D06802FACCE802F0E944705812F0E94C8
:102D900010064ACE802F22EF721609F446C027157E
:102DA00070F030EF731609F141EF7416B1F1FF20A6
:102DB00009F460C0E1101DCE812F8F7133C053EF35
:102DC0007516C1F164EF7612F2CFFF2009F447C007
:102DD0001F71812F0E945D0658E0159FC0011124CC
:102DE00083608093BF01812F1DC0FF2089F074E0B4
:102DF0007E1508F419CE1F7181E090E0A0E0B0E0EC
:102E000004C0880F991FAA1FBB1F1A95D2F7A4CF21
:102E100025E02E1508F408CEEECF812F8F71FF200C
:102E200009F4B5CF0E945D06FFCD812F8F71FF2081
:102E3000C9F3ADCF60E070E0CB01FF2009F485CF8E
:102E40001F7181E090E0A0E0B0E0AC01BD0104C0E2
:102E5000440F551F661F771F1A95D2F75FCF81E089
:102E60000E94450661E06E1508F0DECD82E00E940A
:102E70004506DACDEE2059F0893309F063CE7FEFB5
:102E800087EE93E0715080409040E1F759CE812F5A
:102E90008F717DCF85E0DE01119601900D928A95AC
:102EA000E1F7F601228189819A81211113CD0E94D7
:102EB000D304182F17CD1F93CF93DF9380918201F6
:102EC000807FA9F480917F01882389F08091B401EB
:102ED000D091830160917D0170917E01A09180016C
:102EE000B0918101C62FC72316E0D81304C0DF912B
:102EF000CF911F91089590E0109711F0CF3F19F4F2
:102F000001968770F2CF189F9001199F300D112400
:102F1000F901EC57FE4F41814713F2CF4081461330
:102F2000EFCF42814111ECCF438154814A1B5B0BAF
:102F3000483C510528F7809182018F708061809311
:102F40008201F901E757FE4F80818F708061808395
:102F50008DE791E00E943514DF91CF911F910C9481
:102F60002805AF92BF92CF92DF92EF92FF920F931C
:102F70001F93CF93DF93CDB7DEB72B970FB6F8949F
:102F8000DEBF0FBECDBF8C0185E0F801DE011796D4
:102F900001900D928A95E1F7F80180819181E2809C
:102FA0002DE7A22E21E0B22E609180017091810167
:102FB0006115710509F421C130917D0140917E01B7
:102FC000242F23232F3F09F418C1C380D480F0900D
:102FD0007F01F601E61BF70BFF2009F4DFC020910B
:102FE0008201522F507FE83CF10508F0BAC0511120
:102FF00077C0FE2C491321C038131FC0E1101DC03B
:103000002F70206120938201C5010E9435148091A8
:103010008201F80185838F2D2B960FB6F894DEBFC1
:103020000FBECDBFDF91CF911F910F91FF90EF9019
:10303000DF90CF90BF90AF900895CD2829F0282F32
:1030400029232F3F09F0F7C020E0F22FF170DF2E87
:10305000E091B4014091830156E020FD1CC0EE20B8
:10306000D1F280918201816080938201F12CD3CFD3
:103070002E2F30E05E9FF0011124EC57FE4F61814E
:10308000961306C06081861303C06281E612E7CF03
:10309000F9013196E770E413EBCF8F8398878F8126
:1030A00098850E94D20F292F22952F70903260F0C0
:1030B000225F2F70223078F49F7051F0F8019581D3
:1030C000907F31F4D12C0AC09F7011F08823D1F386
:1030D000805E8830B8F3C8010E943514FD2C9BCF68
:1030E000491312C0381310C0E1100EC0F801258337
:1030F000C8010E94351486E0F801ADE7B1E0019007
:103100000D928A95E1F787CF8F8398878F81988575
:103110000E94DE0F882309F1EE20F9F080918201F0
:10312000803270F020917D0130917E013A832983B5
:103130001B82DD82CC828E83CE0101960E943514E3
:1031400086E0F801ADE7B1E001900D928A95E1F7D4
:103150000E945B17FF24F3945ECFC8010E943514D0
:10316000F9CF51110AC08DE791E00E94351486E035
:10317000F50111928A95E9F779CF4913C5CF381334
:10318000C3CFE110C1CFF8012583C8010E943514D7
:1031900086E0F50111928A95E9F73DCFE83CF1050B
:1031A000B8F7FE2CEE20C9F2491316C0381314C02C
:1031B0008091820180FD9FCF982F907F09F49BCF53
:1031C000F8018583903F09F493CF982F907F905F0B
:1031D0008F70892B85838CCF8F8398878F8198857B
:1031E0000E94DE0F8111ACCF8091820181608093BB
:1031F0008201C8010E9435140ECFEE2009F4ADCF34
:103200008F8398878F8198850E94DE0FF82E882300
:1032100009F4A3CF86E0F801ADE7B1E001900D928B
:103220008A95E1F780917D0190917E010E94D20FF5
:103230000E945B17F0CE21E02E2507CF1F93CF937E
:10324000DF93CDB7DEB767970FB6F894DEBF0FBE3A
:10325000CDBF342F4B8B252F5C8B6D8B7E8B8F8B53
:103260008E899F8961111092C1011A8A3D872E872C
:103270006F87998B888B86E0FE013D96DE0117965D
:1032800001900D928A95E1F7CE0107960E94B11741
:10329000882389F016E08091B4019091830189130D
:1032A0004FC067960FB6F894DEBF0FBECDBFDF915B
:1032B000CF911F91089586E0FE013796DE011196A9
:1032C00001900D928A95E1F74A855B85411551057C
:1032D00009F37F816885862F87238F3FD9F220915C
:1032E000830130E0C901019687709927E091B4010C
:1032F000E817190671F40E94E710109283011092EA
:10330000B40186E0EDE7F1E0DF011D928A95E9F76F
:10331000C1CF79836A835D834C8396E0929FD0010D
:10332000939FB00D1124AC57BE4FFE013196019012
:103330000D929A95E1F7809383010E942805AACF08
:10334000819FC00111248C579E4F0E94B117882382
:1033500009F4A7CF8091B40190E001968770992776
:103360008093B40198CFCDB7DEB763970FB6F894CA
:10337000DEBF0FBECDBF0E946E048A8B9B8B80E8A0
:1033800090E00FB6F89480936100909361000FBEB7
:1033900088E494E0909369018093680180916900CA
:1033A000886080936900E99A8BE48093CA028093D5
:1033B000FF028093D6028AE58093C9028093FE02C1
:1033C0008093D502539A80E0815009F039C1539817
:1033D000789482E084BD93E095BD9AEF97BD809389
:1033E0006E0080E60E94220881E60E94220882E6A2
:1033F0000E94220883E60E94220880E30E9422089D
:1034000087E90E94220886E90E94220885E90E9435
:1034100022081092C9011092EF011092CA01109275
:10342000F0011092CB011092F1011092CC01109298
:10343000F2010E94370CEFE3FCE93197F1F700C08D
:1034400000000E94370C8091EF0180FF17C06FEFE2
:1034500082E290E00E94CC206FEF83E290E00E9435
:10346000CC206FEF84E290E00E94CC206FEF7FEFE2
:1034700090E080E00E94EA200E944A0490E080E010
:103480000E94C6208B3E9E4F11F00E94F21082E2F5
:1034900090E00E94BE20813309F0B0C583E290E045
:1034A0000E94BE208B3E09F0A9C584E290E00E94F4
:1034B000BE20833109F0A2C590E080E00E94C620C2
:1034C0008B3E9E4F11F00E94F21082E090E00E942D
:1034D000BE208093EA010E947C0D9093CE018093E0
:1034E000CD0183E090E00E94BE20282F30E050E024
:1034F00040E02E873F87488B598BCA01B9010E9453
:103500008E0667E671E0B9ED8B2EB1E09B2E2FE5BC
:1035100031E0E3E6F1E041E050E01191812F829546
:103520008F7090E0DC019196DC9091971F70C12E16
:103530007A0101C0EE0C1A95EAF70E2D00950D21C7
:1035400091960C93919792961C9192971E29929620
:103550001C93D901DD909D010D2D02950F7010E097
:10356000D8019196BC90BD2DBF70DB2E7A0101C0B1
:10357000EE0CBA95EAF7FE2CF094FB20D801919658
:10358000FC9291979296FC909297EF289296EC92EB
:10359000DC0190968C9190E002C095958795CA9435
:1035A000E2F78170D80190960C9110E002C0159559
:1035B0000795DA94E2F790E000FD92E0892BD401C0
:1035C0008D934D016E177F0709F0A7CF459A80E0D4
:1035D00091E09093D0018093CF01BFEFE0E7F2E05C
:1035E000B150E040F040E1F700C0000022242394F5
:1035F00033243A948091E4021091FF01882341F131
:103600001092E4020E946E048A8B9B8B112331F08E
:103610001092FF010E94E7100E9488058091FF012F
:10362000882319F10E947E080E94370CEFEEF1E02A
:1036300081918111C9C421E0E33FF207C9F7DACFD4
:10364000A895AFE9BFE01197F1F700C00000BCCE2C
:103650001111E4CF8A899B890E945F040697F0F2DA
:103660002092FF010E947E08D9CF0E94DE0880913F
:103670008F02882309F4A4C18091C90284FFA0C1EC
:103680000E94370C882359F08FB7F8944091F701C6
:103690005091F8016091F9017091FA018FBFAFEE7E
:1036A000B1E0EBEEF1E010E000E0302F8D91919170
:1036B000981709F4BAC1292F282790E0FF24F39422
:1036C000422F4F2109F4ACC199833A838F2191E0B5
:1036D00009F490E09B830E946E048160782F9D83A3
:1036E0008C8349815A816B818D810E941E19F8015A
:1036F000E551FE4F8081F826F08205ED11E071ED75
:10370000C72E71E0D72EEFE54E2EE1E05E2EF3E6F8
:103710006F2EF1E07F2EA9ED8A2EA1E09A2EA12C2A
:10372000B12CD401ED914D01EE0FEE0FD3012D918F
:103730003D01A22FA295AF70B0E090968C9190E0E1
:103740002F7002C0959587952A95E2F78170992789
:10375000D2014D912D01A42FA295AF70B0E09096AB
:103760002C9130E04F7002C0359527954A95E2F7CD
:10377000A9014170552720FF02C042E050E0842B90
:10378000E82BD4011197EC937801EF70F0E0E15B46
:10379000FE4F8081F8019081890F808320E0843082
:1037A0004CF0D6018C918F5F8C9360E08B2D0E9442
:1037B000EF1321E0F80180818D3F4CF4D6018C910C
:1037C00081508C9361E08B2D0E94EF1321E00F5FFD
:1037D0001F4FF8013197D7018C91082E000C990BDF
:1037E00064E070E00E9479208083A22AB394BFEF46
:1037F000CB1ADB0AE4E0BE1294CFAA2059F08FB7AF
:10380000F8944091F7015091F8016091F90170919D
:10381000FA018FBF86E0E3EEF1E0DE011196019040
:103820000D928A95E1F70091E501E090E601F090B4
:10383000E7011091E8011092E5011092E601109263
:10384000E7011092E801802F8E2909F448C0809189
:10385000E1019091E2010E945F049C018091E001EE
:10386000882309F4F6C323333105C8F18F3F19F0DB
:103870008F5F8093E001002359F00E949A079FEF29
:1038800010160CF491E0899F802D11248093E5019E
:10389000EE2059F00E949A079FEF1E140CF491E05D
:1038A000899F802D11248093E6013091E501332317
:1038B000B1F02091E601222391F045EB3403C001E1
:1038C0001124992309F4C7C09093E50155EB250312
:1038D00090011124332309F4C1C03093E601812FF4
:1038E0008F2909F448C08091DE019091DF010E9488
:1038F0005F049C018091DD01882309F4A5C325366E
:103900003105C8F18F3F19F08F5F8093DD01FF20F3
:1039100059F00E9478079FEF1F140CF491E0899FE3
:10392000802D11248093E701112359F00E9478071C
:103930009FEF11160CF491E0899F802D1124809344
:10394000E8013091E7013323B1F02091E80122230F
:1039500091F045EB3403C0011124992309F481C08F
:103960009093E70155EB250390011124332309F4CB
:103970007BC03093E8018091E5019091E601892BAD
:103980009091E701892B9091E801892B11F00E9419
:1039900094050B83EC82FD821E8386E0FE01319646
:1039A000A3EEB1E001900D928A95E1F70E9488059F
:1039B0009091E901891721F00E9488058093E9011F
:1039C0000E94BE0A0E94DE0880918F02882309F4BB
:1039D00011CE8091FE0284FF0DCE8091850280324F
:1039E00009F008CE0091FD011091FE01E0919702CF
:1039F00001151105E1F1EE3F09F076C080919802C2
:103A0000833020F08550833008F06EC0E09198023A
:103A1000E93008F069C0F0E0E65DFE4D0C948D20C1
:103A20009F5FFF0C943009F04BCE0F5F1F4F0430A7
:103A3000110509F03ACE39863A861B860E946E043B
:103A40008160782F9D878C8749855A856B858D8508
:103A50000E941E1952CE2092E50138CF2092E60135
:103A60003ECF2092E7017ECF2092E80184CFE4315F
:103A700050F4EE2351F0E150E33138F4F0E0ED5C26
:103A8000FE4D0C948D20EE3F09F2309297022CC02F
:103A90001092980289E08093990226C08091980242
:103AA000823009F4C4C28330F9F0813071F78FB7E6
:103AB000F8942091F7013091F8014091F90150916B
:103AC000FA012E873F87488B598B8FBF6E857F8584
:103AD000888999890E9493206093990270939A0231
:103AE00080939B0290939C020E945A0A1092850236
:103AF00081CD80919802823041F680919902909117
:103B00009A02A0919B02B0919C028E879F87A88BFE
:103B1000B98BBC01CD010E94932085E290E00E9408
:103B2000CC20E2CF40919A02609199028091980254
:103B30000E94B90D98278927982790939C0280931B
:103B40009B02D2CF20919B0230919C0232272327E7
:103B5000322740919A0260919902809198020E94C6
:103B60005210C2CF0E948910BFCF80E1809398028B
:103B7000BBCF93E0909398028AE18DCF80919A0217
:103B8000282F30E08D3108F0AFCF009198021091CE
:103B9000990210270127102767E9C62E62E0D62E6A
:103BA000D901A956BD4F7D01C8018A519F4FEC1420
:103BB000FD0409F499CF0A31B3E01B0750F40E94C9
:103BC000BE20F60184830F5F1F4FBFEFCB1ADB0AC5
:103BD000EBCFD60114961C92F6CF8091FB01909109
:103BE000FC01892B09F480CF80919A02E82EF12CF8
:103BF0008D3108F079CF0091980210919902102729
:103C00000127102757E9C52E52E0D52EE00EF11EF0
:103C1000C8018A519F4FE016F10609F465CF0A31B9
:103C2000E3E01E0728F4D60114966C910E94CC2084
:103C3000BFEFCB1ADB0A0F5F1F4FEACF0E940B10BA
:103C400053CFE4E0E09398024FCF80919A02282F5F
:103C500030E08D3108F048CF009198021091990220
:103C600010270127102747E9C42E42E0D42EA901CE
:103C700049565D4F7A01C8018696CE14DF0409F4D7
:103C800033CF0038110558F40E94BE20D601149697
:103C90008C930F5F1F4FFFEFCF1ADF0AECCFF601B7
:103CA0001482F7CF80919A02E82EF12C8D3108F022
:103CB0001BCF00919802109199021027012710271D
:103CC0000038110508F010CF80E890E0801B910BC0
:103CD0008E159F0508F408CF480126E2820E911C3C
:103CE0008091FB019091FC0138016E0C7F1C892BA7
:103CF000C1F037E9E32E32E0F32EC80186960615AF
:103D0000170509F4F1CE0038110528F4D7011496EF
:103D10006C910E94CC20BFEFEB1AFB0A0F5F1F4F84
:103D2000ECCF680131E0C322DD2400FF0EC0C801E2
:103D300085960E94BE2090919B028927982789270B
:103D400081159C4511F430929B02570160FE13C00F
:103D5000C70101975C01D701A656BD4F2D01C401D3
:103D60008E0D9F1D0E94BE20F201908181159C4501
:103D700011F4D2013C92F601E956FD4FCA14DB045E
:103D800008F0B7CF9481858181159C4511F4348268
:103D9000358222E0C20ED11C3296F0CF8091FB0119
:103DA0009091FC01892B09F49FCE0E945A0AEFEFF3
:103DB000F1EE24E0E150F0402040E1F700C00000C7
:103DC0000E944A0491CE88E0E0E1F1E0DE01119624
:103DD00001900D928A95E1F732E0309397021092AC
:103DE00098021092990210929A0288E0FE01319690
:103DF000ABE9B2E001900D928A95E1F775CE44E00F
:103E000040939702209298021092990210929A027F
:103E10006BCE80919A02682F70E0762F6627809192
:103E20009902860F972F911D092E000CAA0BBB0B30
:103E300025E0880F991FAA1FBB1F2A95D1F7AC0157
:103E4000BD01405E5F4F6F4F7F4F803EEFEF9E079B
:103E5000AE07BE0708F048CE8430F1E09F07A10509
:103E6000B10508F041CE453021E0520761057105EA
:103E700020F044E051E060E070E0481B590BBC01C9
:103E800068567E4F87E992E00E94AE202DCE1091B9
:103E9000990200919A0240E0602F812F0E948A0DC2
:103EA000982789279827909398028093970241E05A
:103EB000602F812F0E948A0D982789279827909339
:103EC0009A028093990210CE20919C0230919D021B
:103ED00032272327322740919B0260919A028091DA
:103EE00099020E941B1000CE4AE150E06FEF70E093
:103EF0008DE992E00E94B7208091FB0180939702A8
:103F0000009398021092990210929A0233E0309333
:103F10009B0230939C02E8CD41E050E05093FE01BB
:103F20004093FD0182E390E09093F6018093F501C8
:103F30000E946E049093F4018093F301D5CD012B80
:103F400061F11091EF010091F2018091F3019091E4
:103F5000F4010E945F048536910550F103FF28C0EB
:103F600010FF26C00E946E049093F4018093F30129
:103F70008091F5019091F60101979093F60180935D
:103F8000F501892B51F41092FE011092FD01A1E080
:103F9000B0E0B093FC01A093FB018091FB01809302
:103FA00097028091FD01809398028091F50173CD75
:103FB000E2E3F0E0F093F601E093F501EECF10922A
:103FC000FC011092FB0190CDF8942AB15B9A822FEC
:103FD0008C608AB99BB13CE093279BB9FFE748E32B
:103FE00051E0F15040405040E1F700C000008BB17B
:103FF00083278BB92AB95B987894FCCA60E085E284
:1040000090E00E94CC200E9489100E940B1061E376
:1040100082E290E00E94CC206BEE83E290E00E946E
:10402000CC2063E184E290E00E94CC2045CA85E286
:1040300090E00E94BE201092990210929A02109273
:104040009B0280939C0250CD2D32314008F05CCC15
:1040500092CC2D32314008F00BCC41CC78941F9299
:104060001FB61F9211248F939F93AF93BF9380919C
:10407000F7019091F801A091F901B091FA01019630
:10408000A11DB11D8093F7019093F801A093F90150
:10409000B093FA01BF91AF919F918F911F901FBE76
:1040A0001F9018951F921FB61F9211248F939F93F4
:1040B000AF93BF938091C801811113C08091F70124
:1040C0009091F801A091F901B091FA014196A11DDA
:1040D000B11D8093F7019093F801A093F901B0937B
:1040E000FA01BF91AF919F918F911F901FBE1F90BA
:1040F000189597FB072E16F4009407D077FD09D08A
:104100000E949A2007FC05D03EF4909581959F4F20
:104110000895709561957F4F0895EE0FFF1F0590EC
:10412000F491E02D09946927962769277827872736
:1041300078270895AA1BBB1B51E107C0AA1FBB1F0C
:10414000A617B70710F0A61BB70B881F991F5A9523
:10415000A9F780959095BC01CD010895FB01DC0184
:1041600002C005900D9241505040D8F70895DC01EF
:1041700001C06D9341505040E0F70895F999FECF8A
:1041800092BD81BDF89A992780B50895A8E1B0E065
:1041900042E050E00C94F220262FF999FECF92BD18
:1041A00081BDF89A019700B4021639F01FBA20BDFC
:1041B0000FB6F894FA9AF99A0FBE08950396272F2E
:1041C0000E94CD200E94CC20252F0E94CD20242F9C
:1041D0000C94CD200196272F0E94CD200C94CC204A
:1041E000DC01CB01FC01F999FECF06C0F2BDE1BDB7
:1041F000F89A319600B40D9241505040B8F70895A6
:10420000F894FFCF6F127512791287128B128F12EA
:1042100093129912A112A512A912AD12B912BD12D0
:10422000C112C512CB12E912D3127D128312B11240
:10423000B5129D12CF12DF12F212F812DF14DF1442
:104240004E154E15A615C01514151415CD15BB1613
:10425000CA16CA16E31EFF1E091F471F641F741FDC
:104260008C1F9F1FDF1F481D4E1D791D921DA21D13
:10427000B21D451D451D451D451DCE1EB51DB91D53
:0C428000BE1DED1D1E1E211E251E521E1F
:10428C004504ED0A800ABA0AB60AFF5A000000007B
:10429C00A2F18A6FB1A5010300E200E900EA00B5C2
:1042AC0000B600B700CD008301CC008A01920194C6
:1042BC00012102230224022502260227022A02B32C
:1042CC0000B4006F007000606162633097969500D7
:1042DC00FF0100010000FFFF0000010001FF009042
:0842EC003133359132349400A6
:00000001FF
