:100000000C9429050C9470050C948B050C947005C8
:100010000C9470050C9470050C94E7280C947005F2
:100020000C9470050C9470050C9470050C9470057C
:100030000C9470050C9470050C947B140C94700552
:100040000C9470050C9470050C9470050C9470055C
:100050000C9470050C9470050C9470050C9470054C
:100060000C9470050C947005000000000000000066
:100070000000000000000000000000000000000080
:100080000000000000000000000000007E0F00D40F
:10009000FFFFFFC700000078000000000000000024
:1000A0002A2B2800000000000000000000000000D3
:1000B00000000029000000002C1E342021222434DE
:1000C0002627252E362D3738271E1F2021222324B0
:1000D00025263333362E37381F0405060708090A4C
:1000E0000B0C0D0E0F101112131415161718191AE8
:1000F0001B1C1D2F3130232D350405060708090A66
:100100000B0C0D0E0F101112131415161718191AC7
:100110001B1C1D2F3130354C00DA0281FFD9F1DB79
:1001200020A4A62EAF00A0C000A1C800AED580A814
:100130001FD300408D142000506C6169642D506104
:1001400064202F2F2F2F2F2F2F2F2F2F2F0000AE78
:10015000FD377A585A000004E6D6B4460200210161
:1001600016000000742FE5A3E001FA00BD5D003D1C
:100170008889C65436C3174FE4E46873BBAA448425
:10018000EA5987532642E1931675ABB9749FB2873B
:100190007F1F754A735F0A6CEFB0447C4DDC3EA84C
:1001A000F465F96C67EF3EEAA1E13795A058C29576
:1001B00050537312C130201B136E73957C0D818ECA
:1001C000BD7833E1584755ABF9340EEC24C82240D2
:1001D00040291CAED26B136F07A01FBD7DF599049B
:1001E000E2085E2C7258C86E437F86689FCBE9890F
:1001F0003973E491A25B70D8B326449644656F0EC0
:10020000832FD064D261DB7380AF600EAF9384DB49
:10021000F814C370FB76ED1BAA3B687D352AF6A067
:1002200042E8956B23D630130D8D9D000000000031
:1002300070348E949287048E0001D901FB03000074
:10024000759F2598B1C467FB020000000004595A4D
:100250005F006000610054005C005D005E005500BE
:1002600059005A005B0056006200630067005700A7
:100270000100010001000100010001000100010076
:100280000100010001000100010001000100010066
:100290000100010001000100010001000100010056
:1002A0000100010001000100010001000100010046
:1002B0000100010001000100010001000100010036
:1002C0000100010001000100010001000100010026
:1002D00001000100250400000200020021040000CA
:1002E0000300010026040000040002000B04430880
:1002F0000500010027040000060002000D040000B4
:100300000700020023040000080001002804000088
:10031000090002000F041E080A00020011041E0852
:100320000B00020013041E080C00020015041E0836
:100330000D00020017041E080E00020019041E081A
:100340000F0002001B041E08100002001D041E08FE
:10035000110002001F041E08120002002904000000
:10036000130002002B04000000AF05010902A101E7
:1003700085020901A10005091901290515002501BA
:100380009505750181029501750381030501093009
:1003900009311581257F9502750881060938158177
:1003A000257F950175088106050C0A3802158125FF
:1003B0007F950175088106C0C005010980A10185EE
:1003C0000319012AB700150126B7009501751081A0
:1003D00000C0050C0901A101850419012AA002151C
:1003E0000126A002950175108100C00660FF096119
:1003F000A1010962150026FF0095207508810209F8
:1004000063150026FF00952075089102C0050109BB
:1004100006A101050719E029E715002501950875D2
:100420000181029501750881030507190029FF154F
:100430000026FF00950675088100050819012905A9
:10044000950575019102950175039103C01C037612
:1004500000690061006C003A0066003600340063F9
:1004600000320062003300630000001E0350006C85
:10047000006100690064002D0050006100640020EC
:10048000005200650076003300000014034B006545
:100490000079006300610070007300730073000056
:1004A000000403090409025B00030100A0320904EF
:1004B00000000103010100092101010001224000A7
:1004C0000705810308000109040100020300000080
:1004D000092101010001222200070584030800010F
:1004E00007050403080001090402000103000000DD
:1004F0000921010100012281000705830308000191
:10050000120110010000000883795050030001021D
:10051000030107087F0807003E5B4F5B3E003E6B10
:100520004F6B3E001C3E7C3E1C00183C7E3C18007D
:100530001C577D571C001C5E7F5E1C0000183C1879
:100540000000FFE7C3E7FF00001824180000FFE7E2
:10055000DBE7FF0030483A060E00262979292600FD
:10056000407F05050700407F05253F005A3CE73CDA
:100570005A007F3E1C1C0800081C1C3E7F001422F1
:100580007F2214005F5F005F5F0006097F017F002C
:10059000006689956A0060606060600094A2FFA2B6
:1005A000940008047E04080010207E201000080833
:1005B0002A1C0800081C2A0808001E101010100031
:1005C0000C1E0C1E0C0030383E383000060E3E0E5D
:1005D000060000000000000000005F0000000007AF
:1005E00000070000147F147F1400242A7F2A1200C1
:1005F00023130864620036495620500000080703A0
:100600000000001C224100000041221C00002A1CA6
:100610007F1C2A0008083E08080000807030000097
:1006200008080808080000006060000020100804A6
:1006300002003E5149453E0000427F4000007249A1
:10064000494946002141494D33001814127F1000DA
:100650002745454539003C4A4949310041211109A6
:100660000700364949493600464949291E0000001D
:100670001400000000403400000000081422410073
:100680001414141414000041221408000201590922
:1006900006003E415D594E007C1211127C007F49DC
:1006A000494936003E41414122007F4141413E00DF
:1006B0007F49494941007F09090901003E414151F3
:1006C00073007F0808087F0000417F410000204040
:1006D000413F01007F08142241007F40404040001C
:1006E0007F021C027F007F0408107F003E414141D1
:1006F0003E007F09090906003E4151215E007F0945
:100700001929460026494949320003017F010300A7
:100710003F4040403F001F2040201F003F403840E6
:100720003F00631408146300030478040300615954
:10073000494D4300007F4141410002040810200060
:10074000004141417F00040201020400404040405A
:1007500040000003070800002054547840007F2820
:1007600044443800384444442800384444287F0036
:1007700038545454180000087E09020018A4A49CA0
:1007800078007F080404780000447D400000204089
:10079000403D00007F102844000000417F400000E1
:1007A0007C04780478007C080404780038444444CD
:1007B0003800FC182424180018242418FC007C0895
:1007C0000404080048545454240004043F44240002
:1007D0003C4040207C001C2040201C003C4030401D
:1007E0003C004428102844004C9090907C004464C5
:1007F000544C44000008364100000000770000001F
:100800000041360800000201020402003C262326B3
:100810003C00000000000000404040F0F8F8FF38C5
:10082000FFF8F83FF8F8FF38FFF8F8F040404000D4
:10083000000000000080C0C0C0800000C0C0800078
:10084000000080C0C000C0C0000080C0C000000028
:100850000000C0C0C0C0C000C0C000000000000058
:100860000000000000000000000000000000000088
:100870000000000000000000000000000000000078
:100880000000000000000000000000000000000068
:1008900000C0F0F8FC3E1E06010000007F4141410F
:1008A0007F007F4141417F000080C0E07E5B4F5B65
:1008B000FEC00000C000DCD7DEDEDED7DC00C000FA
:1008C0000000000000000000000000000000000028
:1008D0000000000000000000494949FFFFFFFFE061
:1008E000DFBFBF00BFBFDFE0FFFFFFFF4949490097
:1008F000000000001F3F6060E0BF1F007F7F071EF9
:10090000381E077F7F007F7F0E1F3B716000000055
:1009100000007F7F0C0C0C007E7E007F7E030300B6
:100920007F7E03037E7E03037F7E000F3E703C06C6
:100930003C703E0F00327B49493F7E007F7E0303BF
:10094000001E3F69696F26000000000000000000E3
:1009500000030F1F3F3C7870600000007F41414161
:100960007F007F4141417F00307B7F783020203005
:10097000787F3B0003000F7F0F0F0F7F0F000300F6
:100980000000000000000000000000000000000067
:100990000000000000000000010101070F0F7F0FA1
:1009A0007F0F0F7E0F0F7F0F7F0F0F0701010100D9
:1009B0000000000000000000000101000000000035
:1009C0000000000000000000000000000000000027
:1009D0000000000000000000000000000000000017
:1009E0000000000000000000000000000000000007
:1009F00000000000000000000000000000000000F7
:100A000000000000000000000000000000000000E6
:100A100000000000000000000000000000000000D6
:100A200000000000000000000000000000000000C6
:100A300000000000000000000000000000000000B6
:100A400000000000000000000000000000000000A6
:100A5000000011241FBECFEFD8E0DEBFCDBF04B62B
:100A600003FE27C080914F0790915007A091510736
:100A7000B09152078730904BA740B04BD1F4109201
:100A80004F0710925007109251071092520714BE50
:100A900084B7877F84BF0FB6F894A89580916000D3
:100AA000886180936000109260000FBEE0E0F8E380
:100AB000099527E0A4E8B1E001C01D92AF34B20768
:100AC000E1F711E0A0E0B1E0E2E2F8E602C0059053
:100AD0000D92A438B107D9F70E940E290C94C633A1
:100AE0000C940000A82FB92F80E090E041E050EA7C
:100AF000609530E009C02D9182279795879510F079
:100B000084279527305EC8F36F5FA8F30895EADF66
:100B10008D939D930895CF93CFB7CF93DF93C395D4
:100B20004B9BE9F74B9B10C04B9B0EC04B9B0CC0E3
:100B30004B9B0AC04B9B08C04B9B06C0C09129072A
:100B4000C395C09329078EC06F93C0912807DD27F6
:100B5000C35DD84F2F9365E54B9B03C02F916F91D9
:100B6000E1CF0F931F934F9320E040E15F9309B1D2
:100B70000C7003FB27F93F9350E03BE039C01C7039
:100B800040642F77012F5F5F1EC0406819B11C7051
:100B90002F7752501FC0406409B12F770C70D1F1EC
:100BA0005F5F00C023C0406219B12F771C7091F1C4
:100BB0005F5F00C025C00C701027515012F45D5FBC
:100BC0000000115027952C3F19B1C8F61C70012761
:100BD000015027952C3FC8F64227499309B10C7064
:100BE00010274F73115027952C3FA8F64695469530
:100BF00019B11C7079F00127015027952C3F98F608
:100C00006B5A60F3315009B1B0F600C012E01CBB62
:100C100000271CC03B503195C31BD04012E01CBBC9
:100C20000881033C21F10B3411F120912607198131
:100C3000110F1213EDCF4A81441F093679F10D329D
:100C400011F0013E29F74F7009F0042F00932C0793
:100C50003F915F914F911F910F912F916F91CCB365
:100C6000C1FD5DCFDF91CF91CFBFCF91189520917E
:100C70002C07222369F310912A07112309F049C098
:100C800034300AF448C030932A0720932707109184
:100C900028073BE0311B309328073DC000912A070D
:100CA0000130BCF50AE54F7049F430911F0134FD65
:100CB00033C000931F01C3E0D7E032C0433059F086
:100CC000443091F030910E0734FD26C000930E079A
:100CD000CFE0D7E025C03091430734FD1DC000931D
:100CE0004307C4E4D7E01CC030911A0734FD14C098
:100CF00000931A07CBE1D7E013C0052710E000C02E
:100D000000000BB91AC0052710E0221F1DC010E01B
:100D100021C04AE502C032ED432FC4E1D0E032E009
:100D20001AB11C605B9A0BB11AB95CE020E865E36C
:100D300020FF05270BB9279517951C3FF0F6669500
:100D4000B8F7B1F720FF05270BB9279517951C3F7A
:100D5000D0F62795179517FF052700001C3F0BB904
:100D6000B0F629913A9519F7037F10912B07110FCF
:100D7000C651D0400BB911F01093260712E01CBBEE
:100D800008601AB1137F402F437F54E05A95F1F762
:100D90000BB91AB94BB95CCFFC018381833081F167
:100DA00030F48130E9F0823019F180E00895813229
:100DB00009F44EC08232C9F72481358121303105D2
:100DC00009F45BC02230310509F45EC0232B69F7BA
:100DD0008DE094E09093D6048093D50480E4089548
:100DE00080E095E09093D6048093D50482E1089545
:100DF00085EA94E09093D6048093D5048BE508951A
:100E000082818230E9F050F4811112C081EA94E0CD
:100E10009093D6048093D50484E00895833029F616
:100E20008DE494E09093D6048093D5048CE10895EA
:100E30008BE894E09093D6048093D50484E10895E0
:100E40008BE694E09093D6048093D5048EE10895C8
:100E50008281813061F0823069F08111A6CF87EB09
:100E600094E09093D6048093D50489E0089580EDB2
:100E700094E0F7CF80EF94E0F4CF2BEE33E03093A3
:100E8000D6042093D50408958AE693E09093D6047F
:100E90008093D50481E808958091D004089588E175
:100EA00098E00FB6F894A895809360000FBE9093D9
:100EB0006000A895F894D8E0CEEF28E3299320E0CD
:100EC000299314BEFFCF0895CF93DF9300D000D0B5
:100ED000CDB7DEB78FB7F8942091390430913A043A
:100EE00040913B0450913C0429833A834B835C83BB
:100EF0008FBF69817A818B819C810F900F900F90B9
:100F00000F90DF91CF9108959C01FC0132968FEFF5
:100F100090E04191461751F08F3F19F4411101C003
:100F2000892F9F5F9630A9F78F3F09F40895280F06
:100F3000311D87FD3A95F9016283089520913504AA
:100F4000309136042817390771F090933604809356
:100F50003504E0913304F0913404309721F000849B
:100F6000F185E02D099408952091310430913204E7
:100F70002817390771F09093320480933104E0917F
:100F80003304F0913404309721F00680F781E02D8E
:100F900009940895E0913304F0913404309721F0DE
:100FA0000190F081E02D099480E00895452B39F0FF
:100FB000682381E06F3F09F080E08170089581E04F
:100FC000FCCFAC013091530360915403232F621383
:100FD00001C00895822F90E0FC01EE0FFF1FE55B3A
:100FE000FC4F0190F081E02DE417F50791F467E0E4
:100FF000649FF001659FF00D1124ED5EFC4F41E010
:1010000044832313E6CF019683709927809353037B
:1010100008950196282F2370DACF1092B002109213
:10102000AF02E3E1F3E08581811102C014821682F0
:10103000379683E0EB34F807B1F70895EBE0F4E07E
:10104000848195812AE030E0B9010E9405336093E4
:101050001901868180931801828580931701848508
:101060008093160186859785B9010E9405336093A8
:1010700015018089809314018289809313018489EA
:1010800080931201089580910B0490910C04909329
:101090001C0180931B01089590913902803F59F4FF
:1010A00080913A0287FF0DC010923A0291110BC055
:1010B0001092310208C0813F81F480913A021816E3
:1010C0009CF3992381F080913B0290913C02892B03
:1010D00009F064C0109230020895823F49F497FFEE
:1010E000F0CF1092390280913A028111ECCFE0CF1B
:1010F000833F19F41916ACF3E4CF20913B02893FEA
:1011000029F41216F4F610923B02DBCF8A3F19F451
:1011100027FFD7CFF8CF20913C028B3F29F427FF40
:10112000D0CF10923C02CDCF8C3F19F41216CCF3E5
:10113000C8CF843F31F4809138028E7F809338028B
:10114000C0CF853F21F4809138028D7FF7CF863F55
:1011500021F4809138028B7FF1CF873F21F4809179
:101160003802877FEBCF883F21F4809138028F7E51
:10117000E5CF8D3F31F4809132028E7F8093320231
:10118000A0CF8E3F21F4809132028D7FF7CF8F3F29
:1011900009F097CF809132028B7FF0CF0895809134
:1011A000320280FF0CC06091130170E07595679565
:1011B000759567956115710549F1862F089581FF31
:1011C00006C06091130170E075956795F3CF60914B
:1011D000130182FD0BC0909130029923A1F0609120
:1011E000120180911301961738F0682F70E0603873
:1011F000710500F38FE70895899FC001112470E005
:101200000E942533F4CF61E070E0D7CF81E00895EC
:1012100080913202609113047091140480FF16C013
:1012200020911701269FC001279F900D1124BC011A
:1012300076956795769567956038710508F043C097
:101240006115710509F441C0862F089581FF0BC017
:1012500020911701269FC001279F900D1124BC01EA
:1012600076956795E9CF82FF09C0809117019B01B0
:10127000829FB001839F700D1124DECF2091310237
:101280002223D1F29091160180911701482F50E04E
:10129000291748F0CB01849FB001859F700D949F62
:1012A000700D1124C9CF289F90011124269FA00101
:1012B000279F500D369F500D1124692F70E0CA01F1
:1012C0000E940533B9CF8FE7089581E00895803FEC
:1012D00031F40E940809819580933A020895813F74
:1012E00019F40E940809F8CF823F31F40E940809DE
:1012F0008195809339020895833F19F40E9408096B
:10130000F8CF893F29F40E94CF0880933B020895CB
:101310008A3F21F40E94CF088195F7CF8B3F31F4AB
:101320000E94CF08819580933C0208958C3F19F468
:101330000E94CF08F8CF843F31F480913802816059
:10134000809338020895853F21F4809138028260AD
:10135000F7CF863F21F4809138028460F1CF873F38
:1013600021F4809138028860EBCF883F21F480918E
:1013700038028061E5CF8D3F31F480913202816087
:101380008093320208958E3F21F480913202826070
:10139000F7CF8F3FB9F7809132028460F1CF80E0C0
:1013A0000895F894E82FE295EF70F0E041A18F7076
:1013B00021E030E0B90102C0660F771F8A95E2F79D
:1013C000CB01962F9095942391A392A1892B82A370
:1013D000789408959091EC0192FF06C0282F28710F
:1013E0002830F9F4877F846093FF06C0282F287186
:1013F0002831F1F4877E84612091ED0120FF06C041
:10140000382F38713830D9F4877F816021FF06C0CA
:10141000282F28712831D1F4877E816194FD877E41
:101420000895282F24712430F9F68B7F8860DCCF53
:10143000282F2471243101F78B7E8861DDCF382F6E
:101440003171313019F78E7F8860E0CF282F2171FC
:10145000213121F78E7E8861E1CFCF93DF93EC01BC
:10146000803E910509F460C050F58133910509F47F
:10147000A6C090F48932910509F49AC08A9709F4BC
:10148000A5C0C130D10509F462C0CE010497813AEC
:10149000910508F055C05BC089339105F1F18238A0
:1014A0009105D9F1C59709F47CC0C83AD10508F077
:1014B00094C0C53AD10528F3A497D06448C0843EAF
:1014C000910509F453C068F4823E9105E1F1833E31
:1014D000910509F440C0CE01805E9109089780F51E
:1014E00036C0863E910509F44CC0873E910509F44B
:1014F0004DC0811522E5920708F0AAC0811531E59B
:10150000930708F0FAC08F3F910511F008F074C0FE
:10151000803F910550F2D0651AC08091EC01837034
:10152000B1F0C0EED0E013C08091EC0180FD12C19B
:101530009091ED0190FF0BC0C3EED0E084FF07C097
:10154000D0E0C0E004C08091EC0182FDF5CFCE0177
:10155000DF91CF9108958091EC0182FDFEC09091C2
:10156000ED0190FDDECF84FFF2CFEACF8091ED0157
:1015700081FFEDCF8091EC01C7EED0E084FDE0CF9C
:10158000E6CF8091EC0183FDF7CFE1CF8091EC01B4
:1015900083FDE6C09091ED0191FFE5CFC4EED0E070
:1015A000D6CF8091EC0185FFD2CFC9E2D0E0CFCF7A
:1015B0008091EC0185FFCBCFC5E3D0E0C8CF80910F
:1015C000EC0186FFC4CFCAE2D0E0C1CF8091EC012C
:1015D00086FFBDCFC1E3D0E0BACFCF3BD10508F045
:1015E0007ACFC85AD0E0CC0FDD1FC35DDE4F099023
:1015F000D881C02DD464ABCF811540E5940760F449
:10160000C11580E4D80708F075C0CE019A95811500
:101610009F4108F49CCF94CFF4E096958795FA9576
:10162000E1F783702C2F26952695237040E2249FA6
:1016300090011124382B8C2F8370C1E0D0E002C0C0
:10164000CC0FDD1F8A95E2F7C22BD32BDC687FCF4E
:10165000C11586E5D80730F5C11595E5D90708F01D
:1016600060C0C11524E5D207C0F49C2F96959695CD
:101670009E0123703327C115D34508F043C0C1E054
:10168000D0E002C0CC0FDD1F2A95E2F720E2929F46
:10169000C0011124C82BD92BD9CFDC2FCC27C46F84
:1016A000D06A55CFC1153AE5D30788F4C11549E58D
:1016B000D40708F041C0CE0198558F3F910511F035
:1016C00008F03ECFDC2FCC27C06FD06A40CFCE01D0
:1016D00090568115904208F033CF8D2F8F710E9464
:1016E000EA0990E0982F882788279F719C012C2B6E
:1016F000E90120C0DF70D06A2ACFD82FCC27C16F74
:10170000D06A25CFC1E0D0E002C0CC0FDD1F2A9502
:10171000E2F730E2939FC0011124C82BD92BDA687D
:1017200016CF8C2F0E94EA09C82FD0E0DC2FCC27DF
:10173000CC27DF71D0620BCF8C2F8F700E94EA090B
:1017400034E0D695C7953A95E1F7CF70DC2FC82FD6
:10175000D069FDCEC9E3D0E0FACEC2EED0E0F7CE3C
:10176000C6EED0E0F4CE8091E801882331F01092EB
:10177000E8011092E7011092E6010895982F9095E4
:1017800080910A04892380930A040895982F9095E4
:101790008091090489238093090408951092E4013B
:1017A0001092E3011092E20108958091E10181110C
:1017B0001092E1010895E091E00190919F01E913F9
:1017C00002C080E008952E2F30E058E0E59FF00140
:1017D0001124E056FE4F5181561306C05081581314
:1017E00003C05281541304C0F9013196E770E7CF6A
:1017F00081E008958091E00190919F01981301C0CC
:1018000008958F5F8770FACFE82F9E3F39F1990FC7
:10181000990FE90F9E2F9770E695E695E69583E080
:10182000E89FF0011124EF56FE4F50E040E080E0C9
:10183000219130E0092E02C0369527950A94E2F7EF
:1018400021703327042E01C0220F0A94EAF7822B5D
:101850004F5F5F4F4330510559F7089580E0089579
:10186000E82F9E3F59F1990F990FE90F8E2F87703E
:1018700041E001C0440F8A95EAF7E695E695E695C2
:1018800083E0E89FF0011124EF56FE4F30E020E0A6
:1018900070E05191DF011197CB01022E02C09695A5
:1018A00087950A94E2F7817081958527842385279F
:1018B0008C932F5F3F4F2330310559F70895282F20
:1018C000892F82958F70903C80F48A30B0F48430F8
:1018D00020F4823090F480E008958630E1F781E0D2
:1018E000283E88F0213FB9F70EC08C3011F08F30C0
:1018F00091F793FB882780F9089581E0203F39F024
:1019000018F4283E40F70895243F29F7FCCF0895A6
:1019100080913704882321F11092380488E190E007
:1019200020E40FB6F894A895809360000FBE209332
:10193000600083B7817F846083BF83B7816083BF8A
:101940007894889583B78E7F83BF0FB6F894A89557
:1019500080916000886180936000109260000FBEEB
:1019600008959C019A9581159F4150F5D901AA27A8
:10197000B170F901EE27F270B90166277470A90100
:101980004427587034FF0EC080E1AB2B09F480E08F
:10199000EF2B09F08062672B09F08064452B89F0FA
:1019A0008068089581E0AB2B09F480E0EF2B09F00B
:1019B0008260672B09F08460452B19F088600895D8
:1019C00080E00895CF93DF93682F81E06A3019F0AB
:1019D0006D3029F480E0DF91CF910C94630D8091FC
:1019E00001079091020726E0FC01ABEFB6E0019001
:1019F0000D922A95E1F7603E08F45AC026E0FC01FA
:101A000011922A95E9F7C0910107D091020746E0AB
:101A100050E0BE018BEF96E00E944F339E012B5F9A
:101A20003440892B41F1C90145E0969587954A9547
:101A3000E1F741E050E0BA0102C0660F771F8A95D6
:101A4000E2F7CB016091F9047091FA04862B972B91
:101A5000B9016B5F7F4FE5E076956795EA95E1F711
:101A600002C0440F551F6A95E2F7842B952B909383
:101A7000FA048093F9042A5F3F4F4091F804642FE1
:101A800070E0C9010E940533481B463010F4240F52
:101A9000311D211572E0370710F030E020E02550AD
:101AA0003B4F3093020720930107DF91CF910895B8
:101AB000F6E06F9FB00111246E5E7A4F46E050E071
:101AC0000E944633A0CFCF93382FE0910107F091C9
:101AD0000207EB5FF4402091F804622F70E0CF0121
:101AE0000E940533281B822F332361F066E00E9499
:101AF0001933C82FC15010F4CF91089580E20E948D
:101B0000E20CF8CF9F01280F311D2115324018F04B
:101B100080E0F0E0E0E08E0F9F2F911D85509B4FFD
:101B20009093020780930107E7CFCF92DF92EF9265
:101B3000FF920F931F93CF93DF936C017B0164E6B9
:101B400070E088E70E94FA31EC0197FD12C010E0C6
:101B500000E0F601E00FF11F849164E670E00E945E
:101B60007432EC01892B29F40F5F1F4F0E151F05EE
:101B700081F70E940133CE01DF91CF911F910F9128
:101B8000FF90EF90DF90CF900895CF93DF9300D038
:101B900000D00F92CDB7DEB78091AA028D838091DD
:101BA000AB028823F1F00E946407DC01CB01805A6C
:101BB0009541AF4FBF4F8093A6029093A702A09389
:101BC000A802B093A9028D81811108C062E070E083
:101BD00088E693E00E94950D892B61F08091AA021E
:101BE0008D838D810F900F900F900F900F90DF914C
:101BF000CF91089581E08093AA02F0CFCF93DF9335
:101C000080912A07835087FD14C090912807CCE06B
:101C1000D0E0C91BD109C35DD84F909127079031FF
:101C200008F070C0883009F458C01092C5041092B2
:101C30002A0780911F0184FF43C080911E018F3FBE
:101C400009F43EC0C82F893008F0C8E0982F9C1BCB
:101C500090931E019091030728E892279093030721
:101C6000882301F18091D5049091D6042091D40469
:101C700026FF0AC1FC012C2F44E057E03491DA0121
:101C80003C934F5F5F4F31962150C1F79C012F5F0E
:101C90003F4F8FEF8C0F820F932F911D9093D6049F
:101CA0008093D5046C2F84E097E00E94870584E040
:101CB0008C0FC83019F09FEF90931E0180931F0185
:101CC00084E199B19C7031F48150D9F710922B07BF
:101CD00010922607DF91CF9108958091C504893134
:101CE00008F0A3CFE82FF0E0E952FB4F9E01285FF8
:101CF0003F4F999191932C173D07D9F7885F8093B7
:101D0000C50495CF9D3209F0A3C0883009F08FCF6C
:101D100083EC809303078AE580931F011092D4041B
:101D20008881807609F447C0803229F58981813025
:101D300099F48C819D81892BF1F487EC94E0909348
:101D4000D6048093D50488E09F81911131C09E8193
:101D5000981770F5892F2CC0823041F486EC94E0FE
:101D60009093D6048093D50481E0EECF8A3029F495
:101D70008B818093C60480E0E7CF8930E1F78A81C8
:101D80009B818115924069F48C819D81892B49F456
:101D900081E08093D3048E819F819093D2048093BD
:101DA000D104888187FF52C08E8190E89093D4043B
:101DB00080931E013CCF2A8110920C0799819111CA
:101DC0000AC010920D072CE037E082E03093D60471
:101DD0002093D504B9CF953029F420932B072CE01C
:101DE00037E0F4CF9630C1F49B81913049F4CE01B5
:101DF0000E94CC0690E49093D4048F3F91F2A4CF3C
:101E00009230A9F3933099F3913289F3923279F3B6
:101E100090E49093D40498CF983089F0993019F4D5
:101E20002093CF04DCCF9A3071F09B30C1F69BE455
:101E300090930F079093440790931B07D0CF2FECFC
:101E400034E081E0C3CF2CE037E0FBCF8FEFADCFA4
:101E50008091D40487FFEBCE8091D1049091D2047D
:101E6000892B71F08091D304813051F48881809363
:101E7000D0041092D2041092D10410921E01D7CE39
:101E80008EE180931F01D3CEDC012C2F44E057E07C
:101E9000FA013D9130834F5F5F4F2150C9F7F6CE75
:101EA0001F93CF93DF93782F162FEA01888184FF49
:101EB0001EC0898128E882278983AE014E5F5F4F6B
:101EC000FA01272F392F710FD9012F5F3F4F8C91C6
:101ED0008193872F821B1816BCF3612FCA010E94C1
:101EE00087051C5F1883DF91CF911F9108958AE5C4
:101EF0008883E3CFCF93DF93C7EDD4E080911A07B7
:101F000084FF18C04AE157E068E0CE010E94500FFC
:101F1000289684E0C73FD80789F780911A0784FF85
:101F20000CC04AE157E060E090E080E0DF91CF91A3
:101F30000C94500F0E94FE0DE1CF0E94FE0DEDCFDC
:101F40002091430724FF05C043E457E066E00C946A
:101F5000500F08959B019091C404981307C04091BD
:101F6000C2045091C30446175707B9F08093C404C4
:101F70003093C3042093C2048093BF043093C10400
:101F80002093C0048091430784FF07C043E457E0D7
:101F900063E08FEB94E00C94500F0895BC0184E053
:101FA0000C94AA0FBC0183E00C94AA0FCF93DF938B
:101FB000CAE0D0E080910E0784FF1CC08091BD0470
:101FC0009091BE04981799F028E0829FC0011124D7
:101FD0004EE057E068E0835C9B4F0E94500F809179
:101FE000BD0490E001968F7099278093BD04DF9126
:101FF000CF9108950E94FE0D8FE99FE00197F1F7C0
:1020000000C000002197B1F6F2CFCF93DF93D82F15
:10201000C92FA091BE04B0E0CD0101968F70992721
:102020002091BD04281781F093E0AA0FBB1F9A9559
:10203000E1F7A35CBB4F98E0ED2FFC2F01900D92D0
:102040009A95E1F78093BE040E94FE0D0E94D60F80
:1020500088E0ED2FFC2FA7ECB4E001900D928A955B
:10206000E1F7DF91CF9108959C012150310908F4E7
:1020700008958FE99FE00197F1F700C00000F5CFC8
:102080000F931F93CF93DF930BE014E0C7EED0E0E4
:10209000CE010E947C33F80181938F012196C930D3
:1020A000F1E0DF07A9F7C6EDD2E0FE01859194913A
:1020B000009711F0FC0109952896F3E0CE36DF0772
:1020C000A1F7DF91CF911F910F9108950F931F9367
:1020D000CF93DF93843030F5643020F520E1829F88
:1020E000E001112434E0639FB0011124C60FD71F13
:1020F00050E0440F551FC40FD51FC955DF4FCE0107
:102100000E947C33082F10E0102F0027CE0101968B
:102110000E947C339801282BC901DF91CF911F9138
:102120000F91089590E080E0F8CF0F931F93CF9325
:10213000DF93843038F5643028F5443018F528E012
:10214000629FE001112450E0440F551FC40FD51FBA
:1021500030E2839FC0011124C80FD91FCE0187969A
:102160000E947C33082F10E0102F0027CE018896A4
:102170000E947C339801282BC901DF91CF911F91D8
:102180000F91089590E080E0F8CF462F672F2091BF
:10219000A4023091A502232B89F47E3F39F44E3FEF
:1021A00069F48091A2029091A3020895843030F4E2
:1021B000743020F4443010F40C94951090E080E0DA
:1021C0000895DF92EF92FF920F931F93CF93DF93C7
:1021D0007C010091F70480913D02082BC7E0D0E01C
:1021E00010E0DC2EC8010C2E02C0959587950A944C
:1021F000E2F780FD0CC02197A0F7D12C8D2DDF9147
:10220000CF911F910F91FF90EF90DF900895B7014C
:102210008C2F0E94C5100E942D0A019761F3EECF0A
:10222000CF93DF93D82FC92F0E94E1106D2F7C2F01
:102230000E94C510DF91CF910C942D0AFC0186817C
:102240009781009721F00E942D0A0C945F0C8081E9
:1022500091810E941011F9CF1F93CF93DF9300D08B
:1022600000D00F92CDB7DEB749835A8389819A8116
:102270006623B9F02223A9F00E94E110182F682FDD
:1022800089819A810E94300C69817A81812F0F9017
:102290000F900F900F900F90DF91CF911F910C94A2
:1022A000C5100E94040C182FEFCFFC01262F868149
:1022B0009781009739F440815181628173818481D3
:1022C0000C942C11089583E290E00E947C338232BA
:1022D00089F484E290E00E947C33853459F485E2ED
:1022E00090E00E947C3391E08A3A09F090E0892FD7
:1022F0008170089580E0FCCFCF9384E090E00E944D
:102300007C33C82F82E290E00E947C33982F8C2F80
:10231000CF9108950F931F93CF93DF930BE014E0B9
:10232000C7EED0E0CE010E947C33F80161918F01AD
:10233000681719F0CE010E948A332196C930F1E066
:10234000DF0781F7DF91CF911F910F910895EBE0A7
:10235000F4E0128E138E8FEA90E09183808385E003
:10236000848F88E893E1938382832CE231E0358384
:10237000248382E390E09783868345E050E0518791
:1023800040874AE050E05387428744E150E0558758
:1023900044873787268724E630E0318B208B28E07E
:1023A00030E0338B228B28E230E0358B248B978B07
:1023B000868B88EC90E0918F808F158E8CE390E077
:1023C000978F868F80E590E091A380A30E948A1169
:1023D0000C944010CF93DF93C9EAD1E060E0CE01C6
:1023E0000E948A332196C11584E0D807B9F7DF919E
:1023F000CF9108950F931F93CF93DF93890184307A
:1024000058F5643048F5423038F521153C4531F433
:102410002091A0023091A102232BF1F090E1899F3D
:10242000E001112484E0689FB0011124C60FD71F7A
:1024300050E0440F551FC40FD51FC955DF4F612F02
:10244000CE010E948A33602FCE010196DF91CF9199
:102450001F910F910C948A33DF91CF911F910F91AF
:1024600008950F931F93CF93DF938901843058F51C
:10247000643048F5443038F501152CE5120731F485
:102480002091A0023091A102232BE9F098E0699FEE
:10249000E001112450E0440F551FC40FD51F20E266
:1024A000829FC0011124C80FD91F612FCE018796CA
:1024B0000E948A33602FCE018896DF91CF911F91C1
:1024C0000F910C948A33DF91CF911F910F91089552
:1024D000CF93C82F6FEF811162E283E290E00E94F8
:1024E0008A336FEFC11165E484E290E00E948A3381
:1024F0006FEFC1116AEA85E290E0CF910C948A33C4
:10250000CF93C091ED01C2FB992790F9981781F004
:1025100080FBC2F9C093ED016091EC0184E090E092
:102520000E948A336C2F82E290E0CF910C948A3320
:10253000CF9108957F928F929F92AF92BF92CF9248
:10254000DF92EF92FF920F931F93CF93DF93CDB75C
:10255000DEB764970FB6F894DEBF0FBECDBFC09054
:10256000A002D090A10281E090E09093A10280931C
:10257000A002B12CA12C10E0450100E015C0F7012C
:1025800025913491472D602F812F0E94311222E036
:10259000E20EF11C739434E07312F1CF84E0880EE4
:1025A000911C0F5F043049F0C401880F991FFC0192
:1025B000E05BFD4F7F01712CE2CF00E021E030E0D5
:1025C00040E0602F812F0E94FA1121E030E041E0CD
:1025D000602F812F0E94FA110F5F043079F71F5F7F
:1025E000F0E1AF0EB11C143039F60E94A7111A8227
:1025F00019821C821B821E821D8218861F8288EC13
:1026000090E09A87898709E011E04AE050E0B8013C
:10261000CE0101960E94AE33065F1F4F093521E0BF
:10262000120799F77E013BE0E30EF11C8AE0F70107
:1026300011928A95E9F74AE050E0B801C7010E947B
:10264000AE33065F1F4F093AF1E01F07A1F7D092A2
:10265000A102C092A00264960FB6F894DEBF0FBE2E
:10266000CDBFDF91CF911F910F91FF90EF90DF9041
:10267000CF90BF90AF909F908F907F90089580E013
:102680000E94681260E086E290E00E948A330E9415
:102690009A120E94EA1181E00C946812282FCB0153
:1026A000283068F43AE0239FB0011124675F7E4F21
:1026B0004AE050E00E946C3390E080E008958FEF94
:1026C0009FEF08958F929F92AF92BF92CF92DF9229
:1026D000EF92FF920F931F93CF93DF93CDB7DEB7A7
:1026E0002A970FB6F894DEBF0FBECDBF09E513E001
:1026F000F12CE12C81E4C82E88E2D82E9BE6A92E8D
:1027000098E2B92E27E3822E27E2922EF801D18299
:10271000C082B382A28295828482F58AE48ABE0155
:102720006F5F7F4F8E2D0E944E13892B29F4898570
:102730009A85F801938B828BFFEFEF1AFF0A0A5EEE
:102740001F4F88E0E816F10409F72A960FB6F894AF
:10275000DEBF0FBECDBFDF91CF911F910F91FF90D4
:10276000EF90DF90CF90BF90AF909F908F900895A3
:10277000CF92DF92EF92FF920F931F93CF93DF934D
:10278000CDB7DEB72A970FB6F894DEBF0FBECDBF28
:10279000E0E5F2E080E5DF011D928A95E9F7E3E1EB
:1027A000F3E088E3DF011D928A95E9F780E5C82E02
:1027B00082E0D82E7F0109E511E0F701D182C082C5
:1027C0004AE050E0B801CE0101960E946C3388E0E7
:1027D000FE013196D60101900D928A95E1F7898527
:1027E0009A85D70113969C938E931297BAE0CB0EDD
:1027F000D11CE7E0EE0EF11C065F1F4F093AF1E035
:102800001F07D9F62A960FB6F894DEBF0FBECDBFCC
:10281000DF91CF911F910F91FF90EF90DF90CF90BC
:1028200008956AEE7EEF90E080E00E94A83360E0B9
:1028300082E090E00E948A3360E083E090E00E94B2
:102840008A3310923D0260E084E090E00E948A3377
:1028500060E082E290E00E948A3360E085E090E0F0
:102860000E948A3360E086E090E00E948A336FEF36
:1028700087E090E00E948A3340E050E0BA0188E0AF
:1028800090E00E949C3360E08DE090E00E948A33EB
:1028900040E050E0BA0188E190E00E949C3360E0A3
:1028A00087E190E00E948A3340E050E0BA018CE179
:1028B00090E00E949C3370E060E080E290E00E9433
:1028C000A83340E050E0BA0188E190E00E949C33D8
:1028D00080E00E9468120E943F1340E050E0BA017D
:1028E0008FE090E00E949C3340E050E0BA0183E129
:1028F00090E00C949C3378941F921FB61F92112481
:102900008F939F93AF93BF938091390490913A0432
:10291000A0913B04B0913C040196A11DB11D809390
:10292000390490933A04A0933B04B0933C04BF91C4
:10293000AF919F918F911F901FBE1F9018959C0182
:102940004FB7F8948091390490913A04A0913B04D8
:10295000B0913C044FBF821B930B08952FB7F8949E
:102960008091390490913A04A0913B04B0913C04C9
:102970002FBF08950E94AE142091390230913A027F
:10298000232B21F0809335029093360220913B0255
:1029900030913C02232B21F0809333029093340238
:1029A000E0913304F0913404309749F082E0809351
:1029B00037020480F581E02D87E392E009940895C1
:1029C00080910D0490910E04892B91F00E94AE1419
:1029D0002091E6013091E701AC01421B530B9A01B3
:1029E00081E040910D0450910E042417350708F43E
:1029F00080E0817008958091090490910A04892BE8
:102A00009091E501892B809386018091E8018823CC
:102A100009F180910D0490910E04892B29F00E94F8
:102A2000E01481110E94B30B809186019091E8011E
:102A3000892B8093860120E088E891E0FC013081B9
:102A4000019631112F5F31E08E389307B9F72111CC
:102A50000E94B30BE0913304F0913404309731F0CD
:102A60000280F381E02D86E891E009940895CF93E8
:102A7000DF93EC0181E0898B809109049F81892B90
:102A80008093090480910A049885892B80930A0415
:102A90000E94FB14EA81FB81309739F06C897D89B3
:102AA000CE010696DF91CF910994DF91CF910895E1
:102AB000EF92FF920F931F93CF93DF93EC018A85E0
:102AC000811134C0EB80FC8087E5F81A26E12E9D49
:102AD000C0012F9D900D1124DC01A75ABC4F149604
:102AE000ED91FC911597309731F054966D917C9152
:102AF000815A9C4F099586E18E9D80018F9D100D16
:102B00001124075A1C4FF80187810E94C60BF80157
:102B100080850E94BE0B0E94FB14188219861B86BA
:102B20001E821D821092580310925703DF91CF919D
:102B30001F910F91FF90EF90089590E080E00E9428
:102B4000B40790E080E00E949E0710920A04109261
:102B5000E5010E94FB1486E0E7E3F2E0DF011D924D
:102B60008A95E9F7109231021092300210923202E7
:102B70000C94BA148093F7040C949D158091F7047B
:102B8000982F9670963019F488600C94BA15877F48
:102B9000FCCF21E030E001C0220F8A95EAF72095B2
:102BA0008091F70482230C94BA159091E4018095EA
:102BB00089238093E401282F277039F4282F082EC9
:102BC000000C330B9217130621F49091ED0192FF44
:102BD00007C08595859585950E94C9150C94CE0BE7
:102BE000089521E030E001C0220F8A95EAF7809134
:102BF000F704822B0C94BA159091ED0192FD10C050
:102C000098E0899F90011124622B6093E4010E9457
:102C1000F1150E94AE149093E3018093E2010895B0
:102C20000C94F11580933D020C949D1510920904AB
:102C3000E8E8F1E086E0DF011D928A95E9F70C945F
:102C40009D15882321F00E94BE0B0C94FB1408955F
:102C5000882339F090910A04892B80930A040C94FC
:102C6000FB140895882321F00E94C60B0C94FB14DA
:102C70000895882339F090910904892B80930904E1
:102C80000C94FB1408958823B1F19CEF980F913AAE
:102C900070F4E8E8F1E09191891303C0DF01119726
:102CA0001C9291E0EE38F907B1F70C94FB1490E216
:102CB000980F983050F4877091E001C0990F8A9571
:102CC000EAF7892F0E94C60BF0CF9BE5980F93304F
:102CD00020F490E080E00C94B40798E5980F9731C9
:102CE00020F490E080E00C949E07803F20F00E944A
:102CF0004C080C94BA140895CF93C82F882309F474
:102D000055C08CEF8C0F813AF8F4E8E8F1E0DF0170
:102D10008D91C81761F021E0AE38B207C9F76C2F6A
:102D200086E891E00E948407CF910C94FB14819176
:102D3000C81303C0DF0111971C9231E0EE38F3078E
:102D4000B1F70E94FB14EBCF80E28C0F883068F45F
:102D5000C77021E030E001C0220FCA95EAF78091E8
:102D60000904822B80930904DFCF8BE58C0F83301D
:102D700038F42C2F2452330BC901CF910C94B40793
:102D8000E8E5EC0FE73150F4F0E0EE0FFF1FE35DF4
:102D9000FE4F80819181CF910C949E07C03F30F00F
:102DA0008C2F0E946709CF910C94BA14CF9108958B
:102DB000FF920F931F93CF93DF938C01EB01F42EBF
:102DC00080911D0182FF43C08B7F80931D01809104
:102DD0002D0420912F0430913004AB01421B530B82
:102DE0009A0140911B0150911C0124173507A8F44A
:102DF0000E947C1680911D018D7F80931D01809122
:102E0000290490912A040E94341080912D040E947C
:102E1000431682E00E94BE0B24C090910A04926087
:102E200090930A040E947C1680911D018260809319
:102E30001D018091260485FFE2CF86FDE0CFFF20B3
:102E4000F1F2DF91CF911F910F91FF900895802FA4
:102E50000E94431680912D0490912E0480179107B3
:102E6000C1F20E94FB14D0933004C0932F04E9CF29
:102E70000F931F93CF93C82F00912B0410912C0414
:102E8000893321F00091290410912A048C2F0E948B
:102E90007C160115110531F48C2FCF911F910F91E4
:102EA0000C9443168FE99FE00197F1F700C00000F2
:102EB00001501109EECFFF920F931F93CF93DF9331
:102EC000C42FD22FFC0182818823A9F04093AE0247
:102ED0000E94AE149093AD028093AC02C77081E063
:102EE00001C0880FCA95EAF7DF91CF911F910F912A
:102EF000FF900C9439161091AE02141338C08091D3
:102F0000AC029091AD020E949F1420912304309155
:102F100024048217930758F5C0E2CD0F1D17A9F0BE
:102F20001770FF24F3948F2D01C0880F1A95EAF7CC
:102F30000E943216C83048F48D2F877001C0FF0CF4
:102F40008A95EAF78F2D0E943916802F0E94381734
:102F5000C830A0F4D77081E001C0880FDA95EAF795
:102F6000DF91CF911F910F91FF900C943216C77093
:102F700081E001C0880FCA95EAF7F2CFDF91CF91C7
:102F80001F910F91FF900895AF92BF92CF92DF9261
:102F9000EF92FF920F931F93CF93DF93EC018AE0A0
:102FA000A82E2881222309F48CC02130C9F59981EB
:102FB0008A81913021F422960E94381705C0923000
:102FC00029F422960E947C162196EBCF933021F4AF
:102FD00022960E944316F8CF943011F02196F4CF38
:102FE000229630E020E0AE014F5F5F4F8053990B97
:102FF0008A30910550F02150310930F38FE99FE07C
:103000000197F1F700C00000F6CFA29EB001A39E89
:10301000700D11249C01260F371F8981EA01E3CF2F
:10302000E22FF0E0E856FF4FB490822F8695869508
:10303000869590E0FC01E857FF4FE4902770F12C53
:10304000022E02C0F594E7940A94E2F731E0E322FD
:10305000FF24FC01E858FF4FC490D12C022E02C07F
:10306000D594C7940A94E2F731E0C322DD24FC0131
:10307000E859FF4F049110E002C0159507952A9575
:10308000E2F701701127E114F10419F081EE0E94BA
:103090007C16C114D10419F086EE0E947C168B2D8B
:1030A0000E943817CD2819F086EE0E944316EF28AB
:1030B00019F081EE0E944316012B09F485CF8CE2B2
:1030C0007BCFDF91CF911F910F91FF90EF90DF9019
:1030D000CF90BF90AF9008958F929F92AF92BF9282
:1030E000CF92DF92EF92FF920F931F93CF93DF93D4
:1030F00000D000D0CDB7DEB77C01DC0113964D9136
:103100005C91149711966C9111978C910E94D6073F
:10311000811139C161E0C7010E9455118C01F7018D
:1031200082818111D2C0D70112964C9141110FC1F9
:103130000031BFE51B0709F4B7C10131EFE51E07F8
:1031400009F4B6C1C80197558F3F910511F008F0F9
:103150004BC020910001022E000C330B28173907B9
:1031600014F48093000126E1289F5001299FB00CA0
:1031700011249501275A3C4F6901D90150964C936F
:103180005097F701928116968C911697992309F41E
:1031900091C11A961C930E9319978F5F16968C9374
:1031A0000E94AE14D6011E969C938E931D9780911B
:1031B000E80117968C93179780910A04909109045F
:1031C000892B18968C931897ED91FC911197309755
:1031D00039F054966D917C91C501815A9C4F0995A7
:1031E00010935803009357038091260480FFC1C1B8
:1031F0000E94AE146C01D70112968C91882311F1B4
:1032000080911D0182FF06C040E0B60190E080E0A1
:103210000E94D81682E00E94BE0B0B31BCE51B0752
:1032200009F456C10C31ECE51E0709F487C19091F1
:103230001D01892F8E7F90FF81600A31FCE51F07F9
:1032400009F47FC10832110508F081C10E31110562
:1032500008F0ADC1C80104974A9708F03EC18091BB
:10326000260484FD86C1D70112968C91882309F427
:10327000BAC180911D0180FF7CC19091260491FD0F
:1032800004C020910904211174C195FF9BC12091B4
:103290002F0430913004F601E21BF30B9F0196FDE1
:1032A00002C081FD8FC1283C310508F08BC12091FF
:1032B0002D0430912E040217130709F083C181FDFC
:1032C0007BC1802F0E947C1653C0809100018F3FEC
:1032D00009F429CF49E5C42E43E0D42EB12CA12C0A
:1032E0009924939480910001082E000C990B8A1563
:1032F0009B050CF418CFF6018681882309F181859E
:1033000092850817190739F4809157039091580353
:1033100008171907A9F0D6011F969C921F971C96B3
:103320001C930E931B9751968C91811103C0C6017B
:103330000E943715C60106960E94581510920A047D
:10334000BFEFAB1ABB0AE6E1CE0ED11CCBCFC80152
:1033500082519F45409708F034C58FEF93E00E945B
:103360007C333EEED32ED00E09EA11E0882341F1E2
:103370008091E401877039F0F7018281882319F088
:1033800082E00E94D5150F900F900F900F90DF9163
:10339000CF911F910F91FF90EF90DF90CF90BF9052
:1033A000AF909F908F9008950115F4E01F0701F3EF
:1033B000C8010E947C33811101C0DA940F5F1F4F56
:1033C000D110F2CF8091200190912101A091220192
:1033D000B091230189839A83AB83BC8399249A9407
:1033E00068012FEFC21AD20AC8010E947C33898378
:1033F0001A82882309F4BCCF813009F049C05801F2
:1034000032E0A30EB11CC6010E947C33C82E8A8311
:10341000882309F4ADCFC5010E947C33D82E8FEFED
:103420008C0D833068F4580143E0A40EB11CDB829C
:10343000DD2021F0CE0101960E94C4178501D0CF76
:1034400054E0C512FBCF580184E0A80EB11CC8019E
:1034500003960E947C33282FDD2009F489CF88232E
:1034600009F486CF2150330B929EA001939E500DFC
:103470001124AD2DA150BB0BCD01840F951F0197D9
:10348000E8F2EFE9FFE03197F1F700C00000F7CF75
:10349000CE0101960E94C4175601D0CF81E00E9450
:1034A000F1150E94BE1564CF81E00E94C915F9CFC5
:1034B00082E0FBCF882309F497CEF9018189882324
:1034C00009F492CEC501815A9C4F0E9458158CCEAA
:1034D00080911D01816080931D01F70132813323AA
:1034E00009F47BC41092AE020631FCE51F0708F018
:1034F000B1C002302CE5120708F4BEC00E947C1156
:103500009093ED018093EC0106313CE5130708F040
:1035100003C102304CE5140708F0F1C06091EC01E2
:103520001091ED0184E090E00E948A33612F82E2E5
:1035300090E00E948A330E9416161ACF80911D01D6
:103540008E7F80931D0182E00E94BE0BC6CF09339F
:10355000110560F40D32110520F40B32110509F04C
:10356000BCCF8091260482FD04C07DCE04361105B7
:10357000C1F3033FFCE51F0709F454C0D0F5083D33
:103580003CE5130709F448C0093D4CE5140709F46C
:103590005BC0073D5CE5150709F09FCF06E221EE11
:1035A00041EE67ED7CE5C7010E945B17E1CE80919B
:1035B000260483FDDECF57CE80910A04826080937B
:1035C0000A047FCE10932E0400932D04D092300471
:1035D000C0922F0480911D01846080931D0182E0C0
:1035E0000E94D515C5CE40E0B601C8010E94D8168C
:1035F000BFCE053F8CE51807D9F0063F9CE51907BB
:10360000E9F0043FACE51A0709F067CF07E225EEC1
:1036100044EE64EF7CE5C7CF07E225EE45EE68EDAA
:103620007CE5C1CF06E221EE40EE63EF7CE5BBCF47
:1036300006E221EE42EE65EF7CE5B5CF07E225EE2E
:1036400046EE66EF7CE5AFCF08E221E045EE69ED9E
:103650007CE5A9CFC8018A5F9C45099708F44ECF45
:1036600006314CE5140709F4BCC30A35FDE51F0714
:1036700009F420C108F0FBC001153CE5130709F46B
:1036800008C10E3D1C4509F412C1D70116968D9153
:103690009C91009709F412C10E942D0A182F092F3E
:1036A000D7011296CC9012971596DC90D2942FE009
:1036B000D2228091E4018770A1F0AC2CCC2091F053
:1036C000892F807F803421F080E2810F883048F09C
:1036D00082E00E94D5158091E4018770AA24A3940A
:1036E0008111A12C802F82958F70882E912C8C3087
:1036F00008F030C1F401E853FC4C0C943933F80164
:10370000E350FC458091EC018160E331F10590F4D8
:10371000EC52FC4C0C9439330A5F1C4509301105FE
:1037200008F0FCCE09511C4CF8010C9439338091FF
:10373000EC0182608093EC01F1CE8091EC01846019
:10374000F9CF8091EC018860F5CF8091ED01816027
:103750008093ED01E3CE8091ED018260F9CF8091FD
:10376000EC018061E7CF8091EC018062E3CF809132
:10377000EC018064DFCF0E9416168091EC01806816
:10378000D9CF8091EC018C60D5CF8091ED01836021
:10379000DFCF8091EC018E7FCDCF8091EC018D7FCA
:1037A000C9CF8091EC018B7FC5CF8091EC01877FE1
:1037B000C1CF8091ED018E7FCBCF8091ED018D7FC8
:1037C000C7CF8091EC018F7EB5CF8091EC018F7DCA
:1037D000B1CF8091EC018F7BADCF0E941616809106
:1037E000EC018F77A7CF8091EC01837FA3CF8091ED
:1037F000ED018C7FADCF8091EC0182FB992790F990
:1038000021E0922790FB82F990FB83F993CF80917E
:10381000ED01982F909591708E7F892B90FB81F907
:1038200097CF0E9416169091EC01892F97FB87F98C
:10383000805880CF61E08EE090E00E948A336ECEA7
:1038400060E0F9CF80918E0181110FC089E2E8E834
:10385000F1E02EE831E09191891303C0DF01119767
:103860001C922E173F07B9F7E9C285E3F0CF0B355D
:103870005DE5150709F10C351D4509F006CF80916E
:10388000ED0182FB882780F991E089270E94801250
:10389000FCCE0E9416169FEFA4E3BCE09150A0401E
:1038A000B040E1F700C000000E944F0761CD0E94C8
:1038B00011145ECD81E0EACF80E0E8CFF70182818C
:1038C000C080D180882369F0C6010E94E110182FC2
:1038D000682FC6010E94300CB601812F0E94C510CE
:1038E000DBCEC6010E94040C182FF6CFB02FBF709C
:1038F000BB2E802F807F19F0B29490EFB922CC209C
:10390000C9F0BB2069F080E2810F883010F01111FE
:103910000BC080910904B82AB09209040E94FB14DC
:10392000812F0E947C1616C080910A04B82AB0929A
:103930000A04F4CF812F0E944316BB2059F080E285
:10394000810F883010F0111135C08B2D0E94C60BED
:103950000E94FB1498E0891A9108A4E08A16910449
:1039600010F40E94CA07812F902F0E945F0C8111D2
:1039700009C21092900110928F01AA20B1F080919B
:10398000E40180FD12C0D70112961C9285958595A1
:1039900085950E94F115C7010E946C188091E40181
:1039A0008595859585950E94C91560E0C7010E949F
:1039B0005511E9CC8B2D0E94BE0BCACFE02FEF70C2
:1039C000BE2E802F807F803219F0B29480EFB82213
:1039D000112321F1113009F46DC0CC2009F476C017
:1039E000DD2009F446C020E0D7014C9111965C918E
:1039F000119712966C91129713967C9113971496C7
:103A00008C910E942C118091280481FD89CFF701AF
:103A1000858180FF85CF8F7085832BC0CC2069F195
:103A2000D11004C08091E8018B2924C0F1E0DF129D
:103A300013C08091ED0182FD8DCF8091E801B82AFD
:103A4000B81609F487CF0E94AE149093E7018093D3
:103A5000E601B092E8017ECF80912704823010F316
:103A6000D812E0CF0E94B30B8091E101B812B0925E
:103A7000E1018B2D0E9439166DCFD11006C00E9436
:103A8000B30B8B2D0E94321665CF8091270421E065
:103A9000D2120BC0823008F45DCF809109048B21D3
:103AA00009F458CF0E94D50BEACF823040F38D1134
:103AB000E6CF50CFCC2029F035E03D1508F44ACFB1
:103AC000D8CF44E04D1508F445CFDBCFDD20C9F257
:103AD00080912B0490912C04193321F080912904BA
:103AE00090912A040E943410812F0E94431632CFF5
:103AF000802F86958695837069F0813009F02ACFF2
:103B0000812F902F9370C11002C090E080E00E943E
:103B10009E0720CF812F902F9370C11002C090E09C
:103B200080E00E94B40716CF812FCC2039F00E948C
:103B300067090E94BA140E94BA140CCF0E944C0864
:103B4000FACF802F8370A9F5C11004CF912F9295E1
:103B500096959770990F990F412F4F70092E01C0BC
:103B6000440F0A94EAF7212F207114FF07C02FE0B9
:103B700030E001C0220F9A95EAF72095902F969594
:103B800096959370923081F0822F842B933031F090
:103B900080913D02913029F0242B82230E9412163D
:103BA000D9CE842B822BFACF242B80913D02822701
:103BB000F5CF8695CC2011F0802F8170882309F4F1
:103BC000C9CE912F929596959770990F990F412F85
:103BD0004F70092E01C0440F0A94EAF7212F20717B
:103BE00014FF07C02FE030E001C0220F9A95EAF7DA
:103BF0002095902F969596959370923081F0822F14
:103C0000842B933031F08091F704913029F0242BEC
:103C100082230E94BA159ECE842B822BFACF242BAE
:103C20008091F7048227F5CFF02FFF70BF2ECC20B4
:103C300029F08F2F0E94F115812F1CCF812F0E9418
:103C400032168B2D0E94C91585CE123F09F44AC049
:103C500060F4103F41F1113FE9F1CC2009F48DC02F
:103C6000D1105ECE802F8F713AC0133F09F43FC050
:103C7000143F99F720912704223008F466C0809100
:103C8000E101CC2009F44EC00E94C60B8091E401F2
:103C900087708430C1F50E94CE0B802F8F710E94F7
:103CA000C915A12C57CECC2081F024E02D1508F4A5
:103CB00051CE202F2F7181E090E001C0880F2A950E
:103CC000EAF79091F7048927A4CF35E03D1508F471
:103CD00041CEEFCF802F8F71CC2009F4B3CF0E945B
:103CE000F11538CE802F8F71CC20C9F3ABCF80E097
:103CF000CC2009F48ECF81E0902F9F7101C0880FF6
:103D00009A95EAF786CF80912704D81650F6402F6F
:103D10004F71B42E842F0E94F11563E08B2D0E9409
:103D2000FC15BFCF90910904982B90930904D216EB
:103D300040F00E94CE0B0E94D50B64E0802F8F7163
:103D4000EECF81E00E94D515ACCFCC2059F0502F9A
:103D50005F71B52E852F0E94F11563E08B2D0E94B7
:103D6000FC15F8CD81E00E94D51581E08D1508F095
:103D7000F1CD82E00E94D515EDCDD110A9CE802FD6
:103D80008F7160CFCC2019F0D110F3CDF6CDD110CA
:103D9000F0CD20E0F70140815181628173818481FF
:103DA0000E942C118091280483FFE3CD80918F0124
:103DB00090919001029709F0DCCD812F0E94381775
:103DC000D8CD0031FFE51F0709F468CB01312FE59D
:103DD000120709F0B7C982E062CB06311C4509F031
:103DE00054CC80910904982F9A7A2091250420FFC1
:103DF00004C0482F447409F090E021FF04C0482F0C
:103E0000417109F090E022FF04C0482F487809F082
:103E100090E023FF03C0827209F090E0332309F49D
:103E200011CD81E0911101C080E080938E0169E2A3
:103E3000911165E386E891E00E9484070E94FB14DB
:103E400097CACF92DF92EF92FF920F931F93CF9377
:103E5000DF9380919C01807F31F480919901C09122
:103E6000E00181110BC0DF91CF911F910F91FF9065
:103E7000EF90DF90CF9008952196C77080919F01B9
:103E80008C1789F3F0909701E0909801C0909A0107
:103E9000D0909B01A6016E2D8F2D0E94D607D0E0F9
:103EA0008111EACF8E0183E0000F111F8A95E1F79F
:103EB000F801E056FE4F81818E11DECF80818F1197
:103EC000DBCF82818111D8CFE380F480EC18FD082C
:103ED00060E087E991E00E94551180912304909160
:103EE0002404E816F90640F680919C018F708061E9
:103EF00080939C01F801EB55FE4F80818F708061AB
:103F0000808387E991E00E946C18DF91CF911F9127
:103F10000F91FF90EF90DF90CF900C94FA0B5F928F
:103F20006F927F928F929F92AF92BF92CF92DF92C9
:103F3000EF92FF920F931F93CF93DF93CDB7DEB72E
:103F40002D970FB6F894DEBF0FBECDBF8C0185E074
:103F5000F801DE01199601900D928A95E1F7D801DA
:103F60001296EC9087E9A82E81E0B82E80909A01F5
:103F700090909B01A40160919801809197010E940B
:103F8000D6078111CEC1F801C380D480F090990189
:103F9000C601881999094C01FF2009F45FC15080BE
:103FA000618060E0C5010E945511809123049091C9
:103FB000240470909C018816990608F020C1409155
:103FC0009A0150919B01B0909701A0909801872D84
:103FD000807F6A2D09F0BAC08B2D0E94D607FE2C77
:103FE000811139C0D80111968C9111978A1133C073
:103FF0008C918B1130C020919D0130919E011696BD
:104000008D919C912817390731F5E11024C0872D37
:104010008F70806180939C0187E991E00E946C1809
:1040200080919C01F80185838F2D2D960FB6F89411
:10403000DEBF0FBECDBFDF91CF911F910F91FF90DB
:10404000EF90DF90CF90BF90AF909F908F907F9038
:104050006F905F90089560E087E991E00E945511AC
:104060008091230490912404843F9140F8F0A601AC
:10407000662D852D0E94D60781114BC081E08E25CB
:1040800080FF1DC04E2D662D852D0E94DB0B8823E1
:10409000B1F087E991E00E946C1888E0E7E9F1E06F
:1040A000DF011D928A95E9F7F12CBECF60E087E928
:1040B00091E00E9455118091280480FDD8CFA6017F
:1040C000662D852D0E94D607811125C081E08E25A1
:1040D000B82FB170DB2E80FF30C04E2D662D852DA0
:1040E0000E94DB0BC82E811128C059866A868985FB
:1040F0009A850E941011292F22952F70903268F016
:10410000225F2F70223088F0C8010E946C18CD2CDD
:1041100012C080E0B5CF80E0DBCF9F7011F0882324
:1041200051F0805E883038F0EFCF9F70D1F3F80106
:104130009581907FB1F7FC2C77CFEE2009F474CFF6
:1041400080919C01816080939C01AECF8B2D0E9459
:10415000D607811124C0D80111968C9111978A112C
:104160001EC08C918B111BC020919D0130919E012E
:1041700016968D919C9117972817390781F4E110B5
:104180000EC015967C92C8010E946C1888E0F80158
:10419000A7E9B1E001900D928A95E1F745CFC801FA
:1041A0000E941E11882339F1EE2029F180919C0193
:1041B0008032A0F020919701309198013A832983B1
:1041C0001B82DD82CC828E8380919D0190919E0125
:1041D00098878F83CE0101960E946C1888E0F801C1
:1041E000A7E9B1E001900D928A95E1F70E94211FA5
:1041F000FF24F39419CFC8010E946C18F9CF872DC2
:10420000807F09F446CF909097018090980140916B
:104210009A0150919B01682D892D0E94D60781112A
:10422000BECFF80181818811BACF80818911B7CFC3
:1042300020919D0130919E01868197812817390731
:1042400009F0ADCFE110ABCF7582C8010E946C18A8
:1042500088E0D5011D928A95E9F7E6CE60E087E90E
:1042600091E00E94551180912304909124048816B6
:10427000990608F050C0FE2CEE2009F4BCCFE09067
:104280009701D090980140919A0150919B016D2D1A
:104290008E2D0E94D607811130C0F80181818D11C9
:1042A0002CC080818E1129C020919D0130919E01EA
:1042B000868197812817390701F560E087E991E049
:1042C0000E9455118091280482FD60CF80919C014D
:1042D00080FD5CCF982F907F09F458CFD8011596B8
:1042E0008C931597903F09F44ECF982F907F905F55
:1042F0008F70892B15968C9346CFC8010E941E1192
:1043000081116CCF80919C01816080939C01C801D8
:104310000E946C1889CE88E0F50111928A95E9F720
:1043200083CEEE2009F467CFC8010E941E11F82E3B
:10433000882309F460CF88E0F801A7E9B1E0019093
:104340000D928A95E1F780919701909198010E94D2
:1043500010110E94211F68CEEF92FF920F931F93BE
:10436000CF93DF93CDB7DEB760970FB6F894DEBF7B
:104370000FBECDBF29873A874B875C876D877E87C5
:104380008F87988BCE0109960E948F1F811136C0AE
:1043900088E0FE013996DE01119601900D928A9512
:1043A000E1F7E984FA840C851D85A8016F2D8E2D17
:1043B0000E94D607811122C0A0919F01B0E0CD01DB
:1043C0000196877099272091E0012817190649F175
:1043D000E982FA821D830C8393E0AA0FBB1F9A9592
:1043E000E1F7A056BE4F98E0FE01319601900D9284
:1043F0009A95E1F780939F010E94FA0B8091E0016A
:1044000090919F0189131BC060960FB6F894DEBF90
:104410000FBECDBFDF91CF911F910F91FF90EF9015
:1044200008950E94161610929F011092E00188E0F4
:10443000E7E9F1E0DF011D928A95E9F7DFCFB8E007
:104440008B9FC001112480569E4F0E948F1F88238E
:10445000D9F28091E00190E00196877099278093CE
:10446000E001CCCFEF92FF920F931F93CF93DF9396
:104470008091B202882361F0C091B1028CE0F82EE5
:104480008091B202C81758F01092B2021092B10295
:10449000DF91CF911F910F91FF90EF900895EE243F
:1044A000E394EC0EE092B1020C2F10E0CF9DE001FE
:1044B0001124CD54DD4F4B815C81698188810E943C
:1044C000D60781111BC08E819F81892B21F488859D
:1044D0009985019651F4288139814A815B816C81EB
:1044E0007D818E819F810E94AC21F09EF001F19E22
:1044F000F00D1124ED54FD4F14821382CE2DC0CF48
:10450000109256031092550310921A018091540391
:10451000809353030E940D080C9432223F924F92D5
:104520005F926F927F928F929F92AF92BF92CF9243
:10453000DF92EF92FF920F931F93CF93DF93C0917F
:10454000530397E0892E01E010E02CE0322E3EEF7D
:10455000932E44244394809154038C1315C00E94DD
:104560003222DF91CF911F910F91FF90EF90DF905A
:10457000CF90BF90AF909F908F907F906F905F9003
:104580004F903F900C940D08D0E0FE01EE0FFF1FFE
:10459000E55BFC4F80819181889ED001899EB00DA2
:1045A0001124AD5EBC4F14962C911497211157C065
:1045B0005090B202E3EBF2E030E020E0712C5D01BC
:1045C000251508F04AC0E284F384D501CD90DC9033
:1045D0006FEF7FEF612C462D50E0DA01AA0FBB1F71
:1045E000AC0DBD1D0D90BC91A02D109731F0EA16B9
:1045F000FB0609F4BA016394EECF6F3F7607A1F191
:10460000D80102C0AA0FBB1F6A95E2F77A2AB80147
:1046100002C0660F771F6A94E2F7AB01415051095F
:1046200074161506F9F4329EF001339EF00D112434
:10463000ED54FD4F889ED001899EB00D1124AD5ED2
:10464000BC4F12962D913C9113973783268390820D
:1046500091829187808715964C920E94E10721965E
:10466000C37079CF148213822F5F3F4F3C96A8CF3F
:10467000BF92CF92DF92EF92FF920F931F93CF934F
:10468000DF9300D000D0CDB7DEB71A8219821C822A
:104690001B829BE5C92E91E0D92E10E000E0EE24AC
:1046A000E394F12CF60181916F018F3F09F44CC026
:1046B000F894E82FE295EF70F0E021A18F70A70148
:1046C00002C0440F551F8A95E2F7CA01922F982B1A
:1046D00091A392A18095892382A3789400C0EFE5ED
:1046E000F1E030E020E0B12C41914F3F09F473C07C
:1046F000A42FA295AF70B0E090968C9190E04F708F
:1047000002C0959587954A95E2F780FD64C08E2D8D
:10471000022E01C0880F0A94EAF7B82A2F5F3F4F94
:104720002430310509F7F601319780818F3F11F070
:104730000E94D10950EA5A95F1F7E1E0F0E0EC0F60
:10474000FD1FE00FF11FB0820F5F1F4F04301105F6
:1047500009F0A8CF44E050E0BE016F5F7F4F8EEEBE
:1047600091E00E944F339C01BB24B394892B09F440
:10477000B12C232B91F189819A81AB81BC818093EB
:10478000EE019093EF01A093F001B093F10181E06D
:104790008093EB010E94AE149093EA018093E901AB
:1047A0008091E9019091EA010E949F140597C8F059
:1047B0008091EE0180932A028091EF0180932B0279
:1047C0008091F00180932C028091F10180932D0261
:1047D0001092EB0106C080E0A0CF8091EB01811127
:1047E000DFCF809100018F3F09F072C080911A01E4
:1047F000811172C08091260480FF1CC080911D0130
:1048000082FF18C00E94AE14BC0180912F049091C9
:1048100030049B01281B390B80911B0190911C01D6
:104820002817390738F041E080912D0490912E042B
:104830000E94D8168B2D0F900F900F900F90DF9144
:10484000CF911F910F91FF90EF90DF90CF90BF908D
:104850000895E29EF001E39EF00D1124E75AFC4F0B
:10486000C288D388C114D10421F4C0902304D0900D
:104870002404E29E8001E39E100D1124075A1C4F70
:10488000F80186818823C1F0858596850E949F1452
:10489000C816D90688F4FE9C60011124F8018189AC
:1048A000811105C0C601875A9C4F0E943715C60169
:1048B000815A9C4F0E945815F3942F2D30E080911F
:1048C0000001082E000C990B8217930714F68ECF67
:1048D000F12C86E1E82EF1CF80915503909156039B
:1048E000009709F487CF0E949F142091AF02309166
:1048F000B0022817390708F07DCF909153038091BB
:104900005403981759F00E948E221092B002109210
:10491000AF0210925603109255036CCF0E943222C0
:1049200010925603109255030E940D0863CF2F92E8
:104930003F924F925F926F927F928F929F92AF922F
:10494000BF92CF92DF92EF92FF920F931F93CF937C
:10495000DF93CDB7DEB769970FB6F894DEBF0FBE11
:10496000CDBF242F498B952F5A8B6B8B7C8B8D8BD6
:104970004C895D89692F822F0E94D607811109C059
:1049800080918F0190919001019690939001809376
:104990008F018B89811110920A041E861F86188A46
:1049A00085E0FE017196DE01199601900D928A95BF
:1049B000E1F780910D0490910E04892BC1F00E94C3
:1049C000AE142091E2013091E301821B930B209100
:1049D0000D0430910E048217930720F08091E401BA
:1049E00082FFF2C10E94E01481110E94B30B4C853A
:1049F0005D856A8589850E94D607811111C061E0B5
:104A0000CE0109960E9455116C018B8527EFC216C5
:104A10002CE5D20681F4882321F181E080931A01EC
:104A200029853A854B855C856D857E858F8598893E
:104A30000E94AC21C5C038EFC3163CE5D30629F46B
:104A4000882379F00E948022EBCF49EFC4164CE511
:104A5000D40639F4882329F080911A018111F2CF0C
:104A6000DCCF03E113E0512CB12CA12C22242394A0
:104A7000312C2EEF422EF8014081518188248A94F6
:104A8000982C20E0822F90E0FC01EE0FFF1FE40F36
:104A9000F51F608171816115710531F0C616D70669
:104AA00009F44C012F5FEECFF12CFFEF8F169F061C
:104AB00009F448C0F8014481F0901A018F2D41118A
:104AC00080E0F82FF170FF2EF801E58086819B854C
:104AD000992309F40CC1FF2009F409C16090210455
:104AE00070902204E11012C0A10101C0440F8A9409
:104AF000EAF7842B86838091AF029091B0028615ED
:104B0000970520F47092B0026092AF02C10102C01A
:104B1000880F991F2A95E2F70197F8012681281737
:104B2000190681F48091550390915603009709F47A
:104B300060C00E949F146816790608F05AC021E0F0
:104B4000F80124835F28FFEFAF1ABF0A095F1F4FE8
:104B500028E0A216B10409F08ECF8B85882309F4D2
:104B60001EC1552009F41BC10E94AE149093560338
:104B7000809355038091B202883010F591E0980F30
:104B80009093B20298E0FE013996DE0111960190F1
:104B90000D929A95E1F73CE0839FC00111248D545A
:104BA0009D4F28E0FE013196DC0101900D922A957F
:104BB000E1F72FEF3FEFFC0131872087D386C286D4
:104BC00069960FB6F894DEBF0FBECDBFDF91CF91CF
:104BD0001F910F91FF90EF90DF90CF90BF90AF901B
:104BE0009F908F907F906F905F904F903F902F900D
:104BF00008958091530350915403982FF0E0E0E022
:104C0000851314C090935303E017F10709F49ACF6A
:104C100090E0FC01EE0FFF1FE55BFC4FB182A0822C
:104C2000019683709927809354038CCF682E712C42
:104C3000F301EE0FFF1FE55BFC4F2081318147E060
:104C4000429FD001439FB00D1124AD5EBC4F6D91CA
:104C50007C911197798F688F40E020E030E0E32F5E
:104C6000F0E0EE0FFF1F688D798DE60FF71F808053
:104C7000918081149104E1F0F8010190F081E02D20
:104C8000FF8BEE8B20E005C08616970609F44F2DAA
:104C90002F5FE22FF0E0EE0FFF1F6E897F89E60F96
:104CA000F71F608171816115710571F73F5FD7CF83
:104CB0004423D1F0F801231708F0FD0121E02483FB
:104CC0000E171F0721F490935303F42E3BCF891343
:104CD00005C0AE17BF0711F49F5F937093012F5F5C
:104CE0003F4F822F83708CCFF0E0E0E0F7CF90E071
:104CF000E1101FC0B10102C0660F771F2A95E2F7CD
:104D00009B01215031092817390731F4442309F454
:104D100044C0C5010E94E107C10101C0880F8A9407
:104D2000EAF7982F9095F801868189238683FE2CD7
:104D300009CFAC01082C02C0559547950A94E2F7BB
:104D40009C012150310982239323892B11F540FFC7
:104D500020C0F80182819381892BC1F01B821C82C3
:104D60001D821E8249824A820E94AE148160582FA1
:104D70009D838C83F801828193818F839887298119
:104D80003A814B816D817E810E94AC21F8011582B0
:104D9000C3CFF42FF170EF2EBFCFEF2CBDCF90918A
:104DA000530380915403981731F00E948E225520AE
:104DB00009F436CE05CF0E9432221092560310928B
:104DC00055030E940D08F3CF82E00E94D5150ACE4C
:104DD0000F931F93CF93DF9300D000D00F92CDB7E6
:104DE000DEB78C019093A3028093A202011580E2AA
:104DF000180720F5802F0E944316C8010E94B10CAD
:104E00009801205E31092830310510F0012B59F44A
:104E10000F900F900F900F900F90DF91CF911F91F7
:104E20000F910C9432160F900F900F900F900F90DF
:104E3000DF91CF911F910F910C9421168EEF8983F2
:104E40008A831B820E94AE148160782F9D838C839D
:104E500049815A816B818D810F900F900F900F9037
:104E60000F90DF91CF911F910F910C9497240F9386
:104E70001F93CF93DF938C01EB0166E472E08C2FDC
:104E80000E944E13892BA1F48091290490912A0449
:104E90000E943410DD27C25CDD4F8881F80110824A
:104EA0001882833009F148F4813059F0823081F062
:104EB000DF91CF911F910F9108958430D1F085300B
:104EC000B9F78091460290914702009789F306C096
:104ED0008091480290914902009799F3DF91CF9118
:104EE0001F910F910C94E82680914A0290914B02F9
:104EF000F3CF80914C0290914D02009779F7209169
:104F00004602309147028091480290914902211552
:104F10003105D9F2009711F7C901E0CF0F931F9324
:104F2000CF93DF9300D000D00F92CDB7DEB78C01C6
:104F30009093A3028093A202011580E21807E8F47F
:104F4000C8010E94B10C9801205E3109283031055A
:104F500018F00115110571F40E943916802F0F9079
:104F60000F900F900F900F90DF91CF911F910F91A5
:104F70000C947C160E942816F1CF8EEF89838A83C9
:104F800081E08B830E94AE148160782F9D838C8397
:104F900049815A816B818D810F900F900F900F90F6
:104FA0000F90DF91CF911F910F910C949724AF92A6
:104FB000BF92CF92DF92EF92FF920F931F93CF9306
:104FC000DF93182F062FC090F70480913D02C82A66
:104FD000C7E0D0E0D12CF12CE12CD701C6010C2E7A
:104FE00004C0B695A795979587950A94D2F780FF48
:104FF00022C0402F612F8C2F0E9466105C0181E03F
:10500000A816B104C1F0C5010E948E278FE39CE968
:105010000197F1F700C00000C5010E94E82681E079
:10502000DF91CF911F910F91FF90EF90DF90CF9084
:10503000BF90AF900895219780F6402F612F80E0B8
:105040000E946610D82FC92F0E948E278FE39CE9FB
:105050000197F1F700C000008D2F9C2FDECFCF937A
:10506000DF93D82FC92F0E948E2780912904909119
:105070002A040E9434108D2F9C2FDF91CF910C9425
:10508000E8260F931F93CF93DF938C01862F66E45E
:1050900072E00E944E13892BC9F4C0914602D09150
:1050A0004702209799F0F8018081833069F4CE019E
:1050B0000E942F28CE010E942F28CE01DF91CF9190
:1050C0001F910F910C942F288430B8F7DF91CF9166
:1050D0001F910F9108950F931F93CF93DF938C012E
:1050E000EB0166E472E08C2F0E944E13892B09F0CD
:1050F00064C0FE01FF27D8018C91E25CFD4F813036
:10510000D9F419969C911997992311F080830CC0BA
:105110001A969C919923D1F382E080838091480272
:10512000909149020097D9F48091460290914702EC
:10513000009709F442C013C08230E9F519968C91AA
:10514000199781112DC01A968C9181110EC083E0A0
:10515000808380914A0290914B02009719F1DF9170
:10516000CF911F910F910C948E2784E080838091C2
:105170004C0290914D02009791F7809146029091D8
:1051800047020097F9F00E942F28809148029091E1
:105190004902009721F78091460290914702DFCFA4
:1051A00085E080838091460290914702009729F024
:1051B0000E942F28F0CF86E08083DF91CF911F914E
:1051C0000F9108958091480290914902B1CF1F92AA
:1051D0001FB61F9211248F939F93AF93BF9380911B
:1051E0003804811113C08091390490913A04A09140
:1051F0003B04B0913C044196A11DB11D809339043C
:1052000090933A04A0933B04B0933C04BF91AF91B8
:105210009F918F911F901FBE1F901895CDB7DEB73D
:1052200063970FB6F894DEBF0FBECDBF0E94AE14D9
:1052300090932F0280932E0280E890E00FB6F894AE
:1052400080936100909361000FBE8FEC99E0909382
:105250008501809384010E9462130E94B8130E940A
:10526000401080916900886080936900E99A8BE41E
:1052700080930F078093440780931B078AE58093F0
:105280000E078093430780931A07539A80E081505A
:1052900009F062C15398789482E084BD93E095BD93
:1052A0009AEF97BD80936E000E946311811102C036
:1052B0000E943F1380E60E94D10981E60E94D10935
:1052C00082E60E94D10983E60E94D10980E30E9410
:1052D000D10987E90E94D10986E90E94D10985E9AF
:1052E0000E94D1091092EE0110922A021092EF0151
:1052F00010922B021092F00110922C021092F101E8
:1053000010922D0290E080E00E9484338A3E9E4FEE
:1053100021F40E946311811102C00E94111482E0E5
:1053200090E00E947C33809321020E947C11909334
:10533000ED018093EC010E943823EFE3FCE9319703
:10534000F1F700C000000E94382380912A0280FFFC
:1053500008C06FEF7FEF90E080E00E94A8330E94CA
:105360004F0783E090E00E947C330E941216109257
:105370001E0280E88093F8040E94F4316DE070E032
:105380008BE291E00E94950D892B09F043C080913A
:105390001E0263E070E081FDE7C088E291E00E94B8
:1053A000950D892BB9F56DE070E088E191E00E94E0
:1053B000950D892B79F50E946407688B798B8A8B10
:1053C0009B8BDC01CB01805A9541AF4FBF4F80933F
:1053D000A6029093A702A093A802B093A902EBEFB4
:1053E000F4E080E092E0DF019C011D92215030400A
:1053F000E1F7F0930207E09301078FEF9FEF90939F
:10540000FA048093F90481E08093AB028093AA02AE
:1054100010921F026BE771E02AEF822E21E0922E9C
:1054200023E731E0E7E7F1E041E050E01191812F1F
:1054300082958F7090E0DC019196FC9091971F709F
:10544000E12E6A0101C0CC0C1A95EAF70C2D0095EB
:105450000F2191960C93919792961C9192971C29EB
:1054600092961C93D901FD909D010F2D02950F700E
:1054700010E0D8019196BC90BF2DBF70FB2E6A0141
:1054800001C0CC0CBA95EAF7DC2CD094DB20D80113
:105490009196DC9291979296DC909297DC28929666
:1054A000DC92DC0190968C9190E002C095958795F6
:1054B000EA94E2F78170D80190960C9110E002C056
:1054C00015950795FA94E2F790E000FD92E0892B9C
:1054D000D4018D934D016E177F0709F0A7CF81E0AE
:1054E00091E09093340480933304BFEFE0E7F2E05F
:1054F000B150E040F040E1F700C000009E012F5F96
:105500003F4F19018091290710913704882379F1C1
:10551000109229070E94AE1490932F0280932E02BE
:10552000112309F457C5109237040E9416160E94E1
:10553000CA0780913704882309F44CC50E94880C5F
:105540000E943823EAE2F2E081918111E6C432E060
:10555000EE32F307C9F7D6CFA895AFE9BFE01197B0
:10556000F1F700C0000093CE85E291E018CF111151
:10557000E5CF80912E0290912F020E949F140697F2
:1055800008F428C581E0809337040E94880CD6CFA8
:105590009F5FFF0C943009F03FC50F5F1F4F043031
:1055A000110509F02EC58FEF8B878C871D860E9411
:1055B000AE148160782F9F878E874B855C856D85C3
:1055C0008F850E94972445C50E94E20C0F5F1F4FF4
:1055D000F8018491D2C58F5FE6C5880F880F880FC8
:1055E00080930D0110921001895F80930E0183E07A
:1055F00080931101FEC5EEEFF1E080E2DF011D9224
:105600008A95E9F7EFE7F1E0F98BE88B0BE711E01A
:1056100077E0B72EA889B9892D91B98BA88BF801AD
:1056200041908F01440E552E511CC20185509B4F55
:105630002C01E22FF0E0E250FE4F30E020E09B2C06
:10564000921AEE24E394022E01C0EE0C0A94EAF7BB
:10565000620190E0D6018D916D018E21692D691B4B
:105660006770A62E062E000C770BB82F01C0BB0F5B
:10567000AA94EAF7AB2E7195619571096770772747
:1056800001C086956A95EAF7A82A8081A82AA08297
:105690009F5F9830F9F62F5F3F4F319628303105E4
:1056A00071F6E3E8F1E028893989E217F30709F098
:1056B000B1CF04E610E020E230E04EEF51E0B4C597
:1056C000409119019AE0499FA00111244217530704
:1056D00008F020C68F5F8093310202C08F3FD1F760
:1056E000EE2059F00E9408099FEF1E140CF491E07F
:1056F000899F802D112480933902FF2059F00E9448
:1057000008099FEF1F140CF491E0899F802D11244C
:1057100080933A0230913902332309F4FBC520917A
:105720003A02222309F4F6C545EB3403C0011124E3
:10573000992359F09093390255EB250390011124D8
:10574000332339F030933A02E5C581E08093390282
:10575000F3CF81E080933A02DDC5409115019AE0D4
:10576000499FA00111244217530708F0E8C58F5F35
:105770008093300202C08F3FD1F7002359F00E947E
:10578000CF089FEF10160CF491E0899F802D112413
:1057900080933B02112359F00E94CF089FEF11160E
:1057A0000CF491E0899F802D112480933C0230916C
:1057B0003B02332309F4C3C520913C02222309F4A0
:1057C000BEC545EB3403C0011124992359F09093D1
:1057D0003B0255EB250390011124332339F030931C
:1057E0003C02ADC581E080933B02F3CF81E0809322
:1057F0003C02A5C5E43150F4EE2359F0E150E33109
:1058000040F4F0E0E051FC4C0C943933EE3F09F4E5
:10581000E1C58FEFB2C31092D80489E08093D90418
:1058200015C08091D804823009F4C9C3833099F03F
:10583000813079F70E9464070E943F336093D90456
:105840007093DA048093DB049093DC040E947A0F57
:105850001092C50457CE8091A0029091A102892B8D
:10586000A9F380912A028093D90480912B0280931E
:10587000DA0480912C028093DB0480912D028093C6
:10588000DC04E4CF8091D804823019F68091D904E9
:105890009091DA04A091DB04B091DC04888B998BA1
:1058A000AA8BBB8BBC01CD010E943F3386E290E006
:1058B0000E948A33CBCF4091DA046091D904809161
:1058C000D8040E9495109827892798279093DC0484
:1058D0008093DB04BBCF2091DB043091DC043227C2
:1058E000232732274091DA046091D9048091D804AB
:1058F0000E943112ABCF0E949A12A8CF80E1809310
:10590000D804A4CF82E08093D80487E587CF809124
:10591000DA04282F30E08D3108F098CF0091D804B8
:105920001091D90410270127102767EDE62E64E0B7
:10593000F62ED901A952BB4F6D01C80187559E4F64
:10594000CE14DF0409F482CF0735B2E01B0750F410
:105950000E947C33F70184830F5F1F4FBFEFEB1A68
:10596000FB0AEBCFD70114961C92F6CF8091A002D0
:105970009091A102892B09F469CF8091DA04E82E75
:10598000F12C8D3108F062CF0091D8041091D90428
:1059900010270127102757EDC52E54E0D52EE00E15
:1059A000F11EC80187559E4FE016F10609F44ECF4F
:1059B0000735E2E01E0728F4D60114966C910E9488
:1059C0008A33BFEFCB1ADB0A0F5F1F4FEACF0E946B
:1059D000EA113CCF84E093CF8091DA04282F30E0A5
:1059E0008D3108F033CF0091D8041091D9041027DD
:1059F0000127102747EDE42E44E0F42EF901E95287
:105A0000FB4F6F01C8018796CE14DF0409F41ECF47
:105A10000038110558F40E947C33D70114968C93FA
:105A20000F5F1F4FFFEFEF1AFF0AECCFF701148251
:105A3000F7CF8091DA04E82EF12C8D3108F006CFF3
:105A40000091D8041091D90410270127102700389D
:105A5000110508F0FBCE80E890E0801B910B8E15BD
:105A60009F0508F4F3CE480127E2820E911C809135
:105A7000A0029091A10228014E0C5F1C892BC1F05D
:105A800037EDE32E34E0F32EC80187964016510619
:105A900009F4DCCE0038110528F4D70114966C9176
:105AA0000E948A33BFEFEB1AFB0A0F5F1F4FECCF48
:105AB000680131E0C322DD2400FF0FC0C8018696D3
:105AC0000E947C339091DB048927982789278115D0
:105AD0009C4519F48FEF8093DB04370140FE14C01E
